:100000000C942E000C94AB000C9433010C94BB01A7
:100010000C9443020C94CB020C944B000C94830C74
:100020000C944B000C94F50B0C9453030C94DB03D1
:100030000C9463040C94EB040C9473050C94FB0572
:100040000C9483060C940B070C9493070C941B08D8
:100050000C94A3080C942B090C94B30911241FBE13
:10006000CFEFD4E0DEBFCDBF11E0A0E0B1E0E0E52E
:10007000F0E302C005900D92A031B107D9F724E05A
:10008000A0E1B1E001C01D92A336B207E1F70E94E2
:100090004D000C9426180C940000CF93DF93CDB73D
:1000A000DEB70E946E000E948A0042E060EA75E1BD
:1000B00080E091E00E945E1341E060EA75E180E03B
:1000C00091E00E945E1340E050E061E775E180E05E
:1000D00091E00E94A113DF91CF910895CF93DF9318
:1000E000CDB7DEB784EE90E020ECFC01208385EEF6
:1000F00090E027EBFC01208386EE90E027E0FC01F6
:10010000208387EE90E02FE0FC0120830000DF9148
:10011000CF910895CF93DF93CDB7DEB785E290E01E
:1001200020EDFC0120838EE290E02CE0FC01208396
:100130008CE690E020EDFC0120838BE690E02CE043
:10014000FC0120838DE390E020ECFC012083000083
:10015000DF91CF9108951F920F9200905F000F9250
:1001600011242F933F934F935F936F937F938F93BC
:100170009F93AF93BF93EF93FF93CF93DF93CDB74D
:10018000DEB78091180190911901092E000CAA0B7D
:10019000BB0BAC013327222784E890E0FC0180816F
:1001A0009181CC01A0E0B0E0822B932BA42BB52B46
:1001B0008093140190931501A0931601B093170139
:1001C00086E390E0FC018081882F90E08170992780
:1001D000892B01F180911801909119010196092E46
:1001E000000CAA0BBB0BAC013327222784E890E05C
:1001F000FC0180819181CC01A0E0B0E0822B932BA7
:10020000A42BB52B8093140190931501A093160194
:10021000B09317018091B2019091B301892B61F0E5
:100220002091B2013091B30180911A0190911B018C
:1002300060E070E0F90109950E94500E0000DF9126
:10024000CF91FF91EF91BF91AF919F918F917F914E
:100250006F915F914F913F912F910F9000925F00AE
:100260000F901F9018951F920F9200905F000F92B1
:1002700011242F933F934F935F936F937F938F93AB
:100280009F93AF93BF93EF93FF93CF93DF93CDB73C
:10029000DEB78091180190911901092E000CAA0B6C
:1002A000BB0BAC013327222784E890E0FC0180815E
:1002B0009181CC01A0E0B0E0822B932BA42BB52B35
:1002C0008093140190931501A0931601B093170128
:1002D00086E390E0FC018081882F90E0817099276F
:1002E000892B01F180911801909119010196092E35
:1002F000000CAA0BBB0BAC013327222784E890E04B
:10030000FC0180819181CC01A0E0B0E0822B932B95
:10031000A42BB52B8093140190931501A093160183
:10032000B09317018091B4019091B501892B61F0D0
:100330002091B4013091B50180911C0190911D0173
:1003400061E070E0F90109950E94500E0000DF9114
:10035000CF91FF91EF91BF91AF919F918F917F913D
:100360006F915F914F913F912F910F9000925F009D
:100370000F901F9018951F920F9200905F000F92A0
:1003800011242F933F934F935F936F937F938F939A
:100390009F93AF93BF93EF93FF93CF93DF93CDB72B
:1003A000DEB78091180190911901092E000CAA0B5B
:1003B000BB0BAC013327222784E890E0FC0180814D
:1003C0009181CC01A0E0B0E0822B932BA42BB52B24
:1003D0008093140190931501A0931601B093170117
:1003E00086E390E0FC018081882F90E0817099275E
:1003F000892B01F180911801909119010196092E24
:10040000000CAA0BBB0BAC013327222784E890E039
:10041000FC0180819181CC01A0E0B0E0822B932B84
:10042000A42BB52B8093140190931501A093160172
:10043000B09317018091B6019091B701892B61F0BB
:100440002091B6013091B70180911E0190911F015A
:1004500062E070E0F90109950E94500E0000DF9102
:10046000CF91FF91EF91BF91AF919F918F917F912C
:100470006F915F914F913F912F910F9000925F008C
:100480000F901F9018951F920F9200905F000F928F
:1004900011242F933F934F935F936F937F938F9389
:1004A0009F93AF93BF93EF93FF93CF93DF93CDB71A
:1004B000DEB78091180190911901092E000CAA0B4A
:1004C000BB0BAC013327222784E890E0FC0180813C
:1004D0009181CC01A0E0B0E0822B932BA42BB52B13
:1004E0008093140190931501A0931601B093170106
:1004F00086E390E0FC018081882F90E0817099274D
:10050000892B01F180911801909119010196092E12
:10051000000CAA0BBB0BAC013327222784E890E028
:10052000FC0180819181CC01A0E0B0E0822B932B73
:10053000A42BB52B8093140190931501A093160161
:10054000B09317018091B8019091B901892B61F0A6
:100550002091B8013091B901809120019091210141
:1005600063E070E0F90109950E94500E0000DF91F0
:10057000CF91FF91EF91BF91AF919F918F917F911B
:100580006F915F914F913F912F910F9000925F007B
:100590000F901F9018951F920F9200905F000F927E
:1005A00011242F933F934F935F936F937F938F9378
:1005B0009F93AF93BF93EF93FF93CF93DF93CDB709
:1005C000DEB78091180190911901092E000CAA0B39
:1005D000BB0BAC013327222784E890E0FC0180812B
:1005E0009181CC01A0E0B0E0822B932BA42BB52B02
:1005F0008093140190931501A0931601B0931701F5
:1006000086E390E0FC018081882F90E0817099273B
:10061000892B01F180911801909119010196092E01
:10062000000CAA0BBB0BAC013327222784E890E017
:10063000FC0180819181CC01A0E0B0E0822B932B62
:10064000A42BB52B8093140190931501A093160150
:10065000B09317018091BA019091BB01892B61F091
:100660002091BA013091BB01809122019091230128
:1006700064E070E0F90109950E94500E0000DF91DE
:10068000CF91FF91EF91BF91AF919F918F917F910A
:100690006F915F914F913F912F910F9000925F006A
:1006A0000F901F9018951F920F9200905F000F926D
:1006B00011242F933F934F935F936F937F938F9367
:1006C0009F93AF93BF93EF93FF93CF93DF93CDB7F8
:1006D000DEB78091180190911901092E000CAA0B28
:1006E000BB0BAC013327222784E890E0FC0180811A
:1006F0009181CC01A0E0B0E0822B932BA42BB52BF1
:100700008093140190931501A0931601B0931701E3
:1007100086E390E0FC018081882F90E0817099272A
:10072000892B01F180911801909119010196092EF0
:10073000000CAA0BBB0BAC013327222784E890E006
:10074000FC0180819181CC01A0E0B0E0822B932B51
:10075000A42BB52B8093140190931501A09316013F
:10076000B09317018091BC019091BD01892B61F07C
:100770002091BC013091BD0180912401909125010F
:1007800065E070E0F90109950E94500E0000DF91CC
:10079000CF91FF91EF91BF91AF919F918F917F91F9
:1007A0006F915F914F913F912F910F9000925F0059
:1007B0000F901F9018951F920F9200905F000F925C
:1007C00011242F933F934F935F936F937F938F9356
:1007D0009F93AF93BF93EF93FF93CF93DF93CDB7E7
:1007E000DEB78091180190911901092E000CAA0B17
:1007F000BB0BAC013327222784E890E0FC01808109
:100800009181CC01A0E0B0E0822B932BA42BB52BDF
:100810008093140190931501A0931601B0931701D2
:1008200086E390E0FC018081882F90E08170992719
:10083000892B01F180911801909119010196092EDF
:10084000000CAA0BBB0BAC013327222784E890E0F5
:10085000FC0180819181CC01A0E0B0E0822B932B40
:10086000A42BB52B8093140190931501A09316012E
:10087000B09317018091BE019091BF01892B61F067
:100880002091BE013091BF018091260190912701F6
:1008900066E070E0F90109950E94500E0000DF91BA
:1008A000CF91FF91EF91BF91AF919F918F917F91E8
:1008B0006F915F914F913F912F910F9000925F0048
:1008C0000F901F9018951F920F9200905F000F924B
:1008D00011242F933F934F935F936F937F938F9345
:1008E0009F93AF93BF93EF93FF93CF93DF93CDB7D6
:1008F000DEB78091180190911901092E000CAA0B06
:10090000BB0BAC013327222784E890E0FC018081F7
:100910009181CC01A0E0B0E0822B932BA42BB52BCE
:100920008093140190931501A0931601B0931701C1
:1009300086E390E0FC018081882F90E08170992708
:10094000892B01F180911801909119010196092ECE
:10095000000CAA0BBB0BAC013327222784E890E0E4
:10096000FC0180819181CC01A0E0B0E0822B932B2F
:10097000A42BB52B8093140190931501A09316011D
:10098000B09317018091C0019091C101892B61F052
:100990002091C0013091C1018091280190912901DD
:1009A00067E070E0F90109950E94500E0000DF91A8
:1009B000CF91FF91EF91BF91AF919F918F917F91D7
:1009C0006F915F914F913F912F910F9000925F0037
:1009D0000F901F9018951F920F9200905F000F923A
:1009E00011242F933F934F935F936F937F938F9334
:1009F0009F93AF93BF93EF93FF93CF93DF93CDB7C5
:100A0000DEB78091180190911901092E000CAA0BF4
:100A1000BB0BAC013327222784E890E0FC018081E6
:100A20009181CC01A0E0B0E0822B932BA42BB52BBD
:100A30008093140190931501A0931601B0931701B0
:100A400086E390E0FC018081882F90E081709927F7
:100A5000892B01F180911801909119010196092EBD
:100A6000000CAA0BBB0BAC013327222784E890E0D3
:100A7000FC0180819181CC01A0E0B0E0822B932B1E
:100A8000A42BB52B8093140190931501A09316010C
:100A9000B09317018091C2019091C301892B61F03D
:100AA0002091C2013091C30180912A0190912B01C4
:100AB00068E070E0F90109950E94500E0000DF9196
:100AC000CF91FF91EF91BF91AF919F918F917F91C6
:100AD0006F915F914F913F912F910F9000925F0026
:100AE0000F901F9018951F920F9200905F000F9229
:100AF00011242F933F934F935F936F937F938F9323
:100B00009F93AF93BF93EF93FF93CF93DF93CDB7B3
:100B1000DEB78091180190911901092E000CAA0BE3
:100B2000BB0BAC013327222784E890E0FC018081D5
:100B30009181CC01A0E0B0E0822B932BA42BB52BAC
:100B40008093140190931501A0931601B09317019F
:100B500086E390E0FC018081882F90E081709927E6
:100B6000892B01F180911801909119010196092EAC
:100B7000000CAA0BBB0BAC013327222784E890E0C2
:100B8000FC0180819181CC01A0E0B0E0822B932B0D
:100B9000A42BB52B8093140190931501A0931601FB
:100BA000B09317018091C4019091C501892B61F028
:100BB0002091C4013091C50180912C0190912D01AB
:100BC00069E070E0F90109950E94500E0000DF9184
:100BD000CF91FF91EF91BF91AF919F918F917F91B5
:100BE0006F915F914F913F912F910F9000925F0015
:100BF0000F901F9018951F920F9200905F000F9218
:100C000011242F933F934F935F936F937F938F9311
:100C10009F93AF93BF93EF93FF93CF93DF93CDB7A2
:100C2000DEB78091180190911901092E000CAA0BD2
:100C3000BB0BAC013327222784E890E0FC018081C4
:100C40009181CC01A0E0B0E0822B932BA42BB52B9B
:100C50008093140190931501A0931601B09317018E
:100C600086E390E0FC018081882F90E081709927D5
:100C7000892B01F180911801909119010196092E9B
:100C8000000CAA0BBB0BAC013327222784E890E0B1
:100C9000FC0180819181CC01A0E0B0E0822B932BFC
:100CA000A42BB52B8093140190931501A0931601EA
:100CB000B09317018091C6019091C701892B61F013
:100CC0002091C6013091C70180912E0190912F0192
:100CD0006AE070E0F90109950E94500E0000DF9172
:100CE000CF91FF91EF91BF91AF919F918F917F91A4
:100CF0006F915F914F913F912F910F9000925F0004
:100D00000F901F9018951F920F9200905F000F9206
:100D100011242F933F934F935F936F937F938F9300
:100D20009F93AF93BF93EF93FF93CF93DF93CDB791
:100D3000DEB78091180190911901092E000CAA0BC1
:100D4000BB0BAC013327222784E890E0FC018081B3
:100D50009181CC01A0E0B0E0822B932BA42BB52B8A
:100D60008093140190931501A0931601B09317017D
:100D700086E390E0FC018081882F90E081709927C4
:100D8000892B01F180911801909119010196092E8A
:100D9000000CAA0BBB0BAC013327222784E890E0A0
:100DA000FC0180819181CC01A0E0B0E0822B932BEB
:100DB000A42BB52B8093140190931501A0931601D9
:100DC000B09317018091C8019091C901892B61F0FE
:100DD0002091C8013091C901809130019091310179
:100DE0006BE070E0F90109950E94500E0000DF9160
:100DF000CF91FF91EF91BF91AF919F918F917F9193
:100E00006F915F914F913F912F910F9000925F00F2
:100E10000F901F9018951F920F9200905F000F92F5
:100E200011242F933F934F935F936F937F938F93EF
:100E30009F93AF93BF93EF93FF93CF93DF93CDB780
:100E4000DEB78091180190911901092E000CAA0BB0
:100E5000BB0BAC013327222784E890E0FC018081A2
:100E60009181CC01A0E0B0E0822B932BA42BB52B79
:100E70008093140190931501A0931601B09317016C
:100E800086E390E0FC018081882F90E081709927B3
:100E9000892B01F180911801909119010196092E79
:100EA000000CAA0BBB0BAC013327222784E890E08F
:100EB000FC0180819181CC01A0E0B0E0822B932BDA
:100EC000A42BB52B8093140190931501A0931601C8
:100ED000B09317018091CA019091CB01892B61F0E9
:100EE0002091CA013091CB01809132019091330160
:100EF0006CE070E0F90109950E94500E0000DF914E
:100F0000CF91FF91EF91BF91AF919F918F917F9181
:100F10006F915F914F913F912F910F9000925F00E1
:100F20000F901F9018951F920F9200905F000F92E4
:100F300011242F933F934F935F936F937F938F93DE
:100F40009F93AF93BF93EF93FF93CF93DF93CDB76F
:100F5000DEB78091180190911901092E000CAA0B9F
:100F6000BB0BAC013327222784E890E0FC01808191
:100F70009181CC01A0E0B0E0822B932BA42BB52B68
:100F80008093140190931501A0931601B09317015B
:100F900086E390E0FC018081882F90E081709927A2
:100FA000892B01F180911801909119010196092E68
:100FB000000CAA0BBB0BAC013327222784E890E07E
:100FC000FC0180819181CC01A0E0B0E0822B932BC9
:100FD000A42BB52B8093140190931501A0931601B7
:100FE000B09317018091CC019091CD01892B61F0D4
:100FF0002091CC013091CD01809134019091350147
:101000006DE070E0F90109950E94500E0000DF913B
:10101000CF91FF91EF91BF91AF919F918F917F9170
:101020006F915F914F913F912F910F9000925F00D0
:101030000F901F9018951F920F9200905F000F92D3
:1010400011242F933F934F935F936F937F938F93CD
:101050009F93AF93BF93EF93FF93CF93DF93CDB75E
:10106000DEB78091180190911901092E000CAA0B8E
:10107000BB0BAC013327222784E890E0FC01808180
:101080009181CC01A0E0B0E0822B932BA42BB52B57
:101090008093140190931501A0931601B09317014A
:1010A00086E390E0FC018081882F90E08170992791
:1010B000892B01F180911801909119010196092E57
:1010C000000CAA0BBB0BAC013327222784E890E06D
:1010D000FC0180819181CC01A0E0B0E0822B932BB8
:1010E000A42BB52B8093140190931501A0931601A6
:1010F000B09317018091CE019091CF01892B61F0BF
:101100002091CE013091CF0180913601909137012D
:101110006EE070E0F90109950E94500E0000DF9129
:10112000CF91FF91EF91BF91AF919F918F917F915F
:101130006F915F914F913F912F910F9000925F00BF
:101140000F901F9018951F920F9200905F000F92C2
:1011500011242F933F934F935F936F937F938F93BC
:101160009F93AF93BF93EF93FF93CF93DF93CDB74D
:10117000DEB78091180190911901092E000CAA0B7D
:10118000BB0BAC013327222784E890E0FC0180816F
:101190009181CC01A0E0B0E0822B932BA42BB52B46
:1011A0008093140190931501A0931601B093170139
:1011B00086E390E0FC018081882F90E08170992780
:1011C000892B01F180911801909119010196092E46
:1011D000000CAA0BBB0BAC013327222784E890E05C
:1011E000FC0180819181CC01A0E0B0E0822B932BA7
:1011F000A42BB52B8093140190931501A093160195
:10120000B09317018091D0019091D101892B61F0A9
:101210002091D0013091D101809138019091390114
:101220006FE070E0F90109950E94500E0000DF9117
:10123000CF91FF91EF91BF91AF919F918F917F914E
:101240006F915F914F913F912F910F9000925F00AE
:101250000F901F9018951F920F9200905F000F92B1
:1012600011242F933F934F935F936F937F938F93AB
:101270009F93AF93BF93EF93FF93CF93DF93CDB73C
:10128000DEB78091180190911901092E000CAA0B6C
:10129000BB0BAC013327222784E890E0FC0180815E
:1012A0009181CC01A0E0B0E0822B932BA42BB52B35
:1012B0008093140190931501A0931601B093170128
:1012C00086E390E0FC018081882F90E0817099276F
:1012D000892B01F180911801909119010196092E35
:1012E000000CAA0BBB0BAC013327222784E890E04B
:1012F000FC0180819181CC01A0E0B0E0822B932B96
:10130000A42BB52B8093140190931501A093160183
:10131000B09317018091D2019091D301892B61F094
:101320002091D2013091D30180913A0190913B01FB
:1013300060E170E0F90109950E94500E0000DF9114
:10134000CF91FF91EF91BF91AF919F918F917F913D
:101350006F915F914F913F912F910F9000925F009D
:101360000F901F9018951F920F9200905F000F92A0
:1013700011242F933F934F935F936F937F938F939A
:101380009F93AF93BF93EF93FF93CF93DF93CDB72B
:10139000DEB78091180190911901092E000CAA0B5B
:1013A000BB0BAC013327222784E890E0FC0180814D
:1013B0009181CC01A0E0B0E0822B932BA42BB52B24
:1013C0008093140190931501A0931601B093170117
:1013D00086E390E0FC018081882F90E0817099275E
:1013E000892B01F180911801909119010196092E24
:1013F000000CAA0BBB0BAC013327222784E890E03A
:10140000FC0180819181CC01A0E0B0E0822B932B84
:10141000A42BB52B8093140190931501A093160172
:10142000B09317018091D4019091D501892B61F07F
:101430002091D4013091D50180913C0190913D01E2
:1014400061E170E0F90109950E94500E0000DF9102
:10145000CF91FF91EF91BF91AF919F918F917F912C
:101460006F915F914F913F912F910F9000925F008C
:101470000F901F901895CF93DF93CDB7DEB72897C5
:101480000FB6F894DEBF0FBECDBF9E838D837887E5
:101490006F831A8219828F819885FC0180819181E6
:1014A0009C838B830BC08B819C819A8389838B81E6
:1014B0009C81FC01808191819C838B838B819C81A9
:1014C000892B99F08B819C81FC0126813781408595
:1014D00051858D819E81FC0186819781A085B18592
:1014E00082179307A407B507F4F68D819E812B819F
:1014F0003C81FC013183208389819A81892B41F4CD
:101500008F8198852D813E81FC013183208307C026
:1015100089819A812D813E81FC01318320830000E5
:1015200028960FB6F894DEBF0FBECDBFDF91CF91E6
:101530000895CF93DF93CDB7DEB728970FB6F89411
:10154000DEBF0FBECDBF9E838D8378876F831A82E7
:1015500019828F819885FC01808191819C838B8386
:101560000BC08B819C819A8389838B819C81FC0138
:10157000808191819C838B838B819C81892B99F0C5
:101580008B819C81FC0122813381448155818D8135
:101590009E81FC0182819381A481B581821793078A
:1015A000A407B507F4F68D819E812B813C81FC0157
:1015B0003183208389819A81892B41F48F81988599
:1015C0002D813E81FC013183208307C089819A816E
:1015D0002D813E81FC0131832083000028960FB6C7
:1015E000F894DEBF0FBECDBFDF91CF910895CF93AA
:1015F000DF9300D000D0CDB7DEB79C838B838B8187
:101600009C81FC01808191819A83898389819A815F
:10161000892B59F089819A81FC01208131818B814C
:101620009C81FC013183208316C08CEE90E02FEF6B
:10163000FC0120838DEE90E02FEFFC0120838EEEE5
:1016400090E02FEFFC01208383E590E021E0FC0196
:1016500020838895F9CF89819A810F900F900F9000
:101660000F90DF91CF910895CF93DF9300D000D0FA
:10167000CDB7DEB79A8389837C836B838B819C8112
:10168000FC012081318189819A81FC013183208391
:101690008B819C8129813A81FC0131832083000068
:1016A0000F900F900F900F90DF91CF910895CF93EF
:1016B000DF9300D000D0CDB7DEB79A8389837C83D7
:1016C0006B838B819C81FC012081318189819A818E
:1016D000FC01318320838B819C8129813A81FC012B
:1016E0003183208300000F900F900F900F90DF91B7
:1016F000CF910895CF93DF9300D000D0CDB7DEB760
:101700009C838B838B819C81FC01808191819A8356
:10171000898389819A81FC01208131818B819C811F
:10172000FC013183208389819A810F900F900F9063
:101730000F90DF91CF910895CF93DF93CDB7DEB7B0
:1017400028970FB6F894DEBF0FBECDBF9E838D8362
:1017500078876F831A8219828F819885FC01808136
:1017600091819C838B830BC08B819C819A8389831D
:101770008B819C81FC01808191819C838B838B81F7
:101780009C81892B39F02B813C818D819E8128178A
:10179000390751F78B819C81892BE1F089819A81EE
:1017A000892B59F08B819C81FC01208131818981B9
:1017B0009A81FC01318320830AC08B819C81FC01CA
:1017C000208131818F819885FC013183208381E0E4
:1017D00090E002C080E090E028960FB6F894DEBF5B
:1017E0000FBECDBFDF91CF9108951F920F92009051
:1017F0005F000F9211242F933F934F935F936F934A
:101800007F938F939F93AF93BF93EF93FF93CF9368
:10181000DF93CDB7DEB78091180190911901019641
:1018200090931901809318018091120190911301F6
:10183000892B09F44AC08091120190911301FC0197
:1018400082819381A481B581CD01BB2797FDB0959D
:10185000AB2F9C018091180190911901281739072D
:10186000A1F528E830E08091120190911301FC016C
:1018700082819381A481B581AC0184E890E0FC0170
:1018800080819181BA01681B790BCB01019739F4F2
:1018900084E890E0FC0180819181019609C08091EB
:1018A000120190911301FC0182819381A481B58181
:1018B000F901918380838FE690E02FE630E0F90113
:1018C00020812260FC01208309C08FE690E02FE692
:1018D00030E0F90120812D7FFC0120830000DF91A1
:1018E000CF91FF91EF91BF91AF919F918F917F9198
:1018F0006F915F914F913F912F910F9000925F00F8
:101900000F901F9018951F920F9200905F000F92FA
:101910001124EF92FF920F931F932F933F934F93B6
:101920005F936F937F938F939F93AF93BF93EF9347
:10193000FF93CF93DF9300D000D0CDB7DEB7809177
:10194000180190911901092E000CAA0BBB0BAC01D8
:101950003327222784E890E0FC0180819181CC012B
:10196000A0E0B0E0822B932BA42BB52B89839A8324
:10197000AB83BC8386E390E0FC018081882F90E0FC
:1019800081709927892B29F1809118019091190173
:101990000196092E000CAA0BBB0BAC0133272227A2
:1019A00084E890E0FC0180819181CC01A0E0B0E06E
:1019B000822B932BA42BB52B89839A83AB83BC8377
:1019C00008C082E191E00E94F70A60E171E00E94A4
:1019D0003B0A8091120190911301892BD1F08091E3
:1019E000120190911301FC012281338144815581C0
:1019F00089819A81AB81BC8179018A01E81AF90A4F
:101A00000A0B1B0BD801C701181619061A061B066C
:101A1000C4F68091120190911301892B09F44AC0F8
:101A20008091120190911301FC0182819381A48124
:101A3000B581CD01BB2797FDB095AB2F9C0180915F
:101A400018019091190128173907A1F528E830E00D
:101A50008091120190911301FC0182819381A481F4
:101A6000B581AC0184E890E0FC01808191817A012C
:101A7000E81AF90AC701019739F484E890E0FC01FB
:101A800080819181019609C080911201909113018A
:101A9000FC0182819381A481B581F90191838083C6
:101AA0008FE690E02FE630E0F90120812260FC0112
:101AB000208309C08FE690E02FE630E0F901208115
:101AC0002D7FFC0120830E94500E00000F900F908C
:101AD0000F900F90DF91CF91FF91EF91BF91AF9158
:101AE0009F918F917F916F915F914F913F912F9136
:101AF0001F910F91FF90EF900F9000925F000F9059
:101B00001F901895CF93DF9300D0CDB7DEB79A839F
:101B1000898380910D0190910E0106960E94E51730
:101B2000892B69F489819A8190930E0180930D012C
:101B300089819A81069661E070E00E940518000094
:101B40000F900F90DF91CF910895EF92FF920F9336
:101B50001F93CF93DF93CDB7DEB727970FB6F894D7
:101B6000DEBF0FBECDBF00910D0110910E0180E1CF
:101B700091E00E94F70AF80193838283F801828141
:101B800093819C838B8381E08D838D81882309F0F1
:101B900078948B819C81FC01468557858B819C8143
:101BA000FC01248535858B819C81FC018285938590
:101BB000B9010E943B108FE590E0FC0180818078A4
:101BC0008D83F8948B819C8167E071E00E94340BD7
:101BD00080910B0190910C01FC0180819181FC01AD
:101BE000828193819F838E83809110019091110156
:101BF000892B19F18E819F81892B09F4B4CF8091B3
:101C0000100190911101FC01268137814085518599
:101C10008E819F81FC0186819781A085B1857901A4
:101C20008A01E81AF90A0A0B1B0BD801C70118161A
:101C300019061A061B060CF096CF8BE091E00E9465
:101C40007A0B69E071E00E94570B80910B01909133
:101C50000C019A8389830AC089819A81FC0184815D
:101C60009581FC01808191819A83898389819A8100
:101C7000FC0184819581892B79F789819A810E9461
:101C8000820D71CFCF93DF93CDB7DEB70E94500E98
:101C9000789483E590E021E0FC0120838895F9CFDA
:101CA000EF92FF920F931F93CF93DF9300D0CDB7A6
:101CB000DEB780910B0190910C01FC018281938130
:101CC0009A8389838091100190911101892B91F160
:101CD0008091090190910A01892B61F189819A8192
:101CE000892BD1F08091100190911101FC01268186
:101CF00037814085518589819A81FC018681978150
:101D0000A085B18579018A01E81AF90A0A0B1B0B33
:101D1000D801C701BB2374F489E091E00E947A0BDB
:101D20006BE071E00E94570B80910B0190910C01C8
:101D30000E94820D00000F900F90DF91CF911F91B4
:101D40000F91FF90EF900895CF92DF92EF92FF9264
:101D50000F931F93CF93DF93CDB7DEB765970FB681
:101D6000F894DEBF0FBECDBF688779878A879B87CF
:101D70002C873D874E875F87198B088BFB8AEA8A01
:101D8000DD8ACC8A8FE590E0FC01808180788D83AC
:101D9000F89487E091E00E94F70A9F838E838E81FA
:101DA0009F8128893989FC01338722878E819F8111
:101DB0002A893B89FC01358724878E819F812C8964
:101DC0003D89FC01378726878D81882369F08091C2
:101DD0000D0190910E01FC0182819381FC018281B1
:101DE0009381A481B58108C080911401909115015F
:101DF000A0911601B0911701288539854A855B8528
:101E0000820F931FA41FB51F2E813F81F90182838A
:101E10009383A483B5838E819F81FC0122813381CA
:101E2000448155818C859D85AE85BF851816190620
:101E30001A061B062CF48C859D85AE85BF8504C0D3
:101E40008FEF9FEFAFEFBFE7820F931FA41FB51F68
:101E50002E813F81F90186839783A087B187809186
:101E6000180190911901092E000CAA0BBB0BAC01B3
:101E70003327222784E890E0FC0180819181CC0106
:101E8000A0E0B0E0822B932BA42BB52B89839A83FF
:101E9000AB83BC8386E390E0FC018081882F90E0D7
:101EA00081709927892BE1F0809118019091190197
:101EB0000196092E000CAA0BBB0BAC01332722277D
:101EC00084E890E0FC0180819181CC01A0E0B0E049
:101ED000822B932BA42BB52B89839A83AB83BC8352
:101EE0008E819F81FC0122813381448155818981CA
:101EF0009A81AB81BC8179018A01E81AF90A0A0B3F
:101F00001B0BD801C701181619061A061B060CF080
:101F100061C08E819F8162E171E00E94990A809187
:101F2000120190911301892B09F44AC0809112018A
:101F300090911301FC0182819381A481B581CD012F
:101F4000BB2797FDB095AB2F9C0180911801909114
:101F5000190128173907A1F528E830E0809112010E
:101F600090911301FC0182819381A481B581AC0120
:101F700084E890E0FC01808191817A01E81AF90AF5
:101F8000C701019739F484E890E0FC0180819181D8
:101F9000019609C08091120190911301FC01828188
:101FA0009381A481B581F901918380838FE690E0CC
:101FB0002FE630E0F90120812260FC01208346C039
:101FC0008FE690E02FE630E0F90120812D7FFC01C3
:101FD00020833CC08E819F8160E171E00E943B0ABA
:101FE0008D81882399F18091090190910A01892BB3
:101FF00069F18091100190911101FC0126813781D6
:102000004085518580910B0190910C01FC018281EA
:102010009381FC0186819781A085B18579018A0130
:10202000E81AF90A0A0B1B0BD801C701BB2374F489
:1020300089E091E00E947A0B6BE071E00E94570BFF
:1020400080910B0190910C010E94820D8D8188235B
:1020500009F078948E819F8165960FB6F894DEBF63
:102060000FBECDBFDF91CF911F910F91FF90EF90E9
:10207000DF90CF900895CF93DF93CDB7DEB72C9745
:102080000FB6F894DEBF0FBECDBF98878F837A87D7
:1020900069875C874B878FE590E0FC0180818078C1
:1020A0008B83F8948F819885FC01808191819A833C
:1020B000898389819A81892B09F45AC00AC0898150
:1020C0009A81FC0184819581FC01808191819A83B0
:1020D000898389819A81FC0184819581892B79F793
:1020E00080910D0190910E0129813A8128173907BD
:1020F00019F08B81882339F48B81882309F0789437
:102100008FEF9FEF83C08F819885FC01828193813F
:10211000892B41F08F819885FC0182819381FC019C
:102120001582148220910D0130910E018F819885C6
:10213000FC013383228380910D0190910E012F8148
:102140003885FC013583248389819A810E94820D20
:1021500080910D0190910E01FC0182819381892B68
:1021600039F48B81882309F0789480E090E04EC0A8
:1021700020910D0130910E018F819885FC013183F2
:1021800020838B81882341F08F819885FC01828197
:102190009381019709F078944B855C858F819885B0
:1021A00029853A85BA01F90109959D838C838FE5CC
:1021B00090E0FC01808180788E83F8948F819885EF
:1021C000FC01118210828F819885FC0182819381AC
:1021D0009A83898389819A81892B91F089819A8157
:1021E000019771F08F819885FC0113821282898199
:1021F0009A81FC011582148289819A810E94820D44
:102200008B81882309F078948C819D812C960FB660
:10221000F894DEBF0FBECDBFDF91CF910895CF936D
:10222000DF9300D000D01F92CDB7DEB79D838C83A3
:102230008FE590E0FC01808180788B83F8948C811D
:102240009D8162E171E00E949C0B892B41F48C819D
:102250009D8160E171E00E949C0B892B39F08C819B
:102260009D8167E071E00E94340B3EC080910B01BC
:1022700090910C019A83898333C080910D019091D4
:102280000E0129813A812817390719F189819A812C
:10229000FC01228133818C819D8128173907C9F483
:1022A00089819A81FC01248135818C819D81FC0189
:1022B000828593852817390761F489819A81FC0109
:1022C000138212828C819D8167E071E00E94340B41
:1022D0000BC089819A81FC01808191819A838983D5
:1022E00089819A81892B49F68B81882309F078941A
:1022F00000000F900F900F900F900F90DF91CF91F3
:102300000895CF93DF9300D0CDB7DEB79A8389834A
:102310008FE590E0FC01808188236CF480910D01B1
:1023200090910E01FC0182819381FC018281938155
:10233000A481B58108C08091140190911501A091EC
:102340001601B091170129813A81F90180839183A7
:10235000A283B38300000F900F90DF91CF91089577
:10236000CF93DF9300D0CDB7DEB79A8389838FE513
:1023700090E0FC01808188236CF480910D019091A4
:102380000E01FC0182819381FC0182819381A481F1
:10239000B58108C08091140190911501A09116019A
:1023A000B091170129813A81F9012081318142815F
:1023B0005381821B930BA40BB50BBC01CD010F9075
:1023C0000F90DF91CF910895EF92FF920F931F939B
:1023D000CF93DF9300D000D01F92CDB7DEB78FE54B
:1023E00090E0FC01808180788D83F89480911801C1
:1023F00090911901092E000CAA0BBB0BAC013327DD
:10240000222784E890E0FC0180819181CC01A0E04A
:10241000B0E0822B932BA42BB52B89839A83AB83BB
:10242000BC8386E390E0FC018081882F90E081707E
:102430009927892BE1F0809118019091190101965B
:10244000092E000CAA0BBB0BAC013327222784E812
:1024500090E0FC0180819181CC01A0E0B0E0822B72
:10246000932BA42BB52B89839A83AB83BC838D815B
:10247000882309F078948D81882369F080910D017B
:1024800090910E01FC0182819381FC0182819381F4
:10249000A481B58108C08091140190911501A0918B
:1024A0001601B091170129813A814B815C81790134
:1024B0008A01E81AF90A0A0B1B0BD801C701BC01F3
:1024C000CD010F900F900F900F900F90DF91CF9153
:1024D0001F910F91FF90EF900895CF93DF9300D05D
:1024E000CDB7DEB71A8219821EC089819A81019602
:1024F00082959295907F9827807F98279C012D50F8
:102500003E4F89819A8182959295907F9827807F0E
:1025100098278D509E4FFC013183208389819A81B9
:1025200001969A83898389819A810E97F4F2109299
:10253000D4021092D3021A82198220C089819A8112
:102540009C012F5F3F4F4DE1429FC001439F900D83
:1025500011249C01225C3E4F49815A816DE1649FA8
:10256000C001659F900D1124825C9E4FFC01318358
:10257000208389819A8101969A83898389819A81AE
:102580000397E4F210929601109295011A82198233
:1025900066C029813A814DE1429FC001439F900D61
:1025A00011240696825C9E4F0E94E51729813A818C
:1025B0004DE1429FC001439F900D11240696825C1D
:1025C0009E4F409649815A8160E6649F9001659FC5
:1025D000300D11242D513D4F245A3F4FFC013183C2
:1025E000208329813A814DE1429FC001439F900D94
:1025F00011240696825C9E4F429649815A8160E67C
:10260000649F9001659F300D11242D513D4F245A38
:102610003F4FFC013183208329813A814DE1429F64
:10262000C001439F900D11240696825C9E4F4596F3
:1026300025EA3DE0FC013183208329813A814DE187
:10264000429FC001439F900D11248E5B9E4FFC0161
:102650001182108289819A8101969A838983898166
:102660009A8104970CF495CF1092D7011092D6015D
:102670001092DB011092DA011092D9011092D80168
:1026800081E690E020E8FC01208381E690E0FC01F7
:10269000108284E890E0FC011182108281E890E0D1
:1026A00024E0FC0120838FE690E021E0FC01208300
:1026B00000000F900F90DF91CF910895CF93DF939B
:1026C00000D000D000D0CDB7DEB79B838A837D8356
:1026D0006C834E838E81823150F58FE590E0FC0152
:1026E000808180788983F8948E81882F90E0880F8C
:1026F000991F865E9E4F2A813B81FC013183208396
:102700008E81882F90E0880F991F8E549E4F2C81C8
:102710003D81FC01318320838A819B8121E030E06F
:10272000FC01338322838981882309F07894000097
:1027300026960FB6F894DEBF0FBECDBFDF91CF91C6
:102740000895CF92DF92EF92FF920F931F93CF9352
:10275000DF93CDB7DEB727970FB6F894DEBF0FBE75
:10276000CDBF9B838A837D836C835F834E838FE59C
:1027700090E0FC01808180788983F8940E946D123A
:1027800078948C819D81892B89F04E815F812C8189
:102790003D818A819B816A0179018C0120E030E0D2
:1027A000A90160E070E0CB010E94A40E8FE590E0EB
:1027B000FC01808180788983F8940E94420E80E039
:1027C00090E027960FB6F894DEBF0FBECDBFDF9125
:1027D000CF911F910F91FF90EF90DF90CF900895D0
:1027E000CF93DF93CDB7DEB767970FB6F894DEBF10
:1027F0000FBECDBF9E8B8D8B6F8B8F89803318F072
:102800008F898A3318F080E090E038C081E595E147
:102810009A83898380E191E09C838B8381EE91E1AF
:102820009E838D8381EB91E198878F8380EB95E088
:102830009A87898781EB94E19C878B8781EF94E16C
:102840009E878D8780E191E1988B8F8781EF95E15D
:102850009A8B898B80EB95E19C8B8B8B1E8A1D8AD2
:102860008F89882F90E0C097880F991F9E012F5F56
:102870003F4F820F931FFC018081918167960FB6B5
:10288000F894DEBF0FBECDBFDF91CF910895CF93F7
:10289000DF93CDB7DEB760970FB6F894DEBF0FBEFB
:1028A000CDBF9D878C876E87588B4F878F85988982
:1028B00099230CF4AFC08F85988906970CF0AAC0B5
:1028C0001F821E8219821A821B821C8218861D8218
:1028D00019868C859D856E850E94F0139F838E835B
:1028E0008F8598899595879589878F859889817037
:1028F0009927892BE9F48E819F81892F99278295C9
:102900008F7089838E819F81892F99278F708A8309
:102910008E819F81929582958F7089279F708927DC
:102920008F708B838E818F708C8380EF8D8319C025
:102930008E819F81892F9927807F89838E819F81B6
:10294000929582958F7089279F708927807F8A83CF
:102950008E81807F8B838E818295807F8C838FE0B8
:102960008D838CEE90E09B878A878985882F90E005
:102970002A853B85820F931F9B878A878A859B8543
:10298000FC0190818D818923888798858981292FF1
:10299000282B8A859B85FC0120838A859B8505964B
:1029A0009B878A878A859B85FC0190818D818923FD
:1029B000888798858A81292F282B8A859B85FC0109
:1029C00020838A859B8505969B878A878A859B8538
:1029D000FC0190818D818923888798858B81292F9F
:1029E000282B8A859B85FC0120838A859B850596FB
:1029F0009B878A878A859B85FC0190818D818923AD
:102A0000888798858C81292F282B8A859B85FC01B6
:102A1000208301C0000060960FB6F894DEBF0FBEA1
:102A2000CDBFDF91CF910895CF93DF93CDB7DEB7C0
:102A30002A970FB6F894DEBF0FBECDBF9C838B8361
:102A40004D835E836F8378873A87298789859A8546
:102A50009A8389838D819E81AF81B88524E630E099
:102A600040E050E0BC01CD010E94A417DC01CB0185
:102A70002AE030E040E050E0BC01CD010E94A41704
:102A8000DA01C90160E3680F29813A818B819C8159
:102A9000A9010E94471489819A8101969A838983AA
:102AA0008D819E81AF81B8852AE030E040E050E022
:102AB000BC01CD010E94A417DC01CB0160E3680FCB
:102AC00029813A818B819C81A9010E9447140000D1
:102AD0002A960FB6F894DEBF0FBECDBFDF91CF911F
:102AE0000895CF93DF9300D0CDB7DEB79A83898363
:102AF00089819A81FC018481882F90E0A0E0B0E078
:102B0000E981FA8124E030E0AC01BD01CF010E94EF
:102B1000141589819A81FC018581882F90E0A0E0BD
:102B2000B0E0E981FA8120E030E0AC01BD01CF01E5
:102B30000E94141500000F900F90DF91CF9108951F
:102B4000CF92DF92EF92FF920F931F93CF93DF9379
:102B500000D0CDB7DEB79A83898389819A81C12C51
:102B6000D12C0F2EF1E7EF2EF5E1FF2EF02D8C0189
:102B700020E030E0A90160E070E0CB010E94A40EEB
:102B80008CE290E0FC018081869586958695882F61
:102B900090E081709927892B29F489819A81FC0121
:102BA000168211C08CE290E0FC01808186958695AA
:102BB000882F90E081709927892B29F489819A8147
:102BC00021E0FC01268383E290E0FC018081829574
:102BD000869586958370882F90E081709927892B40
:102BE000D1F489819A81FC018681282F30E0898186
:102BF0009A8169010F2EFDE3EF2EF6E1FF2EF02DF5
:102C00008C0120E030E0A90165E37CE080E090E009
:102C10000E94A40E26C083E290E0FC018081881F00
:102C20008827881F882F90E081709927892BC9F405
:102C300089819A81FC018681282F30E089819A81DF
:102C400069010F2EF1EFEF2EF6E1FF2EF02D8C0132
:102C500020E030E0A90165E37CE080E090E00E94A4
:102C6000A40E00000F900F90DF91CF911F910F9154
:102C7000FF90EF90DF90CF900895CF92DF92EF9288
:102C8000FF920F931F93CF93DF9300D000D0CDB767
:102C9000DEB79A8389837C836B8383E290E0FC01B7
:102CA00080818295869586958370882F90E08170CB
:102CB0009927892BE1F52B813C8189819A816901D2
:102CC0000F2EF5EAEF2EF6E1FF2EF02D8C0120E01D
:102CD00030E0A90160E070E0CB010E94A40E898180
:102CE0009A81C12CD12C0F2EF1E7EF2EF5E1FF2EAA
:102CF000F02D8C0120E030E0A90160E070E0CB0114
:102D00000E94A40E2B813C8189819A8169010F2E3A
:102D1000FDE3EF2EF6E1FF2EF02D8C0120E030E0F8
:102D2000A90168EE73E080E090E00E94A40E00002C
:102D30000F900F900F900F90DF91CF911F910F91F7
:102D4000FF90EF90DF90CF900895CF93DF9300D066
:102D500000D000D0CDB7DEB79C838B837E836D839C
:102D60008D819E81892BC1F48B819C81FC018481A2
:102D7000882F90E09A83898389819A81833691058F
:102D80002CF489819A8101969A83898329818B8188
:102D90009C81FC0124831BC08D819E810197B9F425
:102DA0008B819C81FC018581882F90E09A838983A7
:102DB00089819A81833691052CF489819A810196C3
:102DC0009A83898329818B819C81FC012583000062
:102DD00026960FB6F894DEBF0FBECDBFDF91CF9120
:102DE0000895CF92DF92EF92FF920F931F93CF93AC
:102DF000DF9300D000D0CDB7DEB79A8389837C8380
:102E00006B8383E290E0FC018081881F8827881F04
:102E1000882F90E081709927892BE1F52B813C81E7
:102E200089819A8169010F2EF8E5EF2EF7E1FF2ED7
:102E3000F02D8C0120E030E0A90160E070E0CB01D2
:102E40000E94A40E89819A81C12CD12C0F2EF1E70A
:102E5000EF2EF5E1FF2EF02D8C0120E030E0A901EE
:102E600060E070E0CB010E94A40E2B813C8189813F
:102E70009A8169010F2EF1EFEF2EF6E1FF2EF02D72
:102E80008C0120E030E0A90168EE73E080E090E082
:102E90000E94A40E00000F900F900F900F90DF91F2
:102EA000CF911F910F91FF90EF90DF90CF900895F9
:102EB000CF93DF9300D000D000D0CDB7DEB79C8396
:102EC0008B837E836D838D819E81892BC1F48B8161
:102ED0009C81FC018481882F90E09A838983898179
:102EE0009A81181619062CF489819A8101979A8380
:102EF000898329818B819C81FC0124831BC08D8166
:102F00009E810197B9F48B819C81FC018581882F7A
:102F100090E09A83898389819A81181619062CF486
:102F200089819A8101979A83898329818B819C81E8
:102F3000FC012583000026960FB6F894DEBF0FBE75
:102F4000CDBFDF91CF910895052E97FB1EF400941D
:102F50000E94BB1757FD07D00E94C31707FC03D080
:102F60004EF40C94BB1750954095309521953F4FEA
:102F70004F4F5F4F089590958095709561957F4F65
:102F80008F4F9F4F0895A1E21A2EAA1BBB1BFD0174
:102F90000DC0AA1FBB1FEE1FFF1FA217B307E40738
:102FA000F50720F0A21BB30BE40BF50B661F771F90
:102FB000881F991F1A9469F7609570958095909570
:102FC0009B01AC01BD01CF010895DC012D923D9222
:102FD0004D925D926D927D928D929D92AD92BD9239
:102FE000CD92DD92ED92FD920D931D93CD93DD93E5
:102FF000FF91EF918DB78D938EB78D938FB78D9392
:10300000ED93FD93882799270994DC01CB0181304A
:103010009105811D2D903D904D905D906D907D901E
:103020008D909D90AD90BD90CD90DD90ED90FD90F8
:103030000D911D91CD91DD91ED91FD910D90F89443
:10304000FEBF0FBEEDBFED91FD910994F894FFCF47
:1030500000000000010000F3013E01D601D601008E
:00000001FF
