:100000000C942E000C9414010C949C010C9424026A
:100010000C94AC020C9434030C944B000C94EC0C38
:100020000C944B000C945E0C0C94BC030C94440494
:100030000C94CC040C9454050C94DC050C946406CC
:100040000C94EC060C9474070C94FC070C94840834
:100050000C940C090C9494090C941C0A11241FBED6
:10006000CFEFD4E0DEBFCDBF11E0A0E0B1E0ECE225
:10007000F4E302C005900D92A233B107D9F724E052
:10008000A2E3B1E001C01D92A938B207E1F70E94D6
:100090004D000C94141A0C940000CF93DF93CDB74D
:1000A000DEB781E690E020E8FC01208381E690E065
:1000B000FC0110820E947A000E94960041E069E5EE
:1000C00074E182E291E00E94C71342E069E574E1C5
:1000D00082E291E00E94C71381E080931F0140E01B
:1000E00050E068EB77E184E191E00E940A14DF912F
:1000F000CF910895CF93DF93CDB7DEB784EE90E034
:1001000020ECFC01208385EE90E027EBFC012083AE
:1001100086EE90E027E0FC01208387EE90E02FE060
:10012000FC0120830000DF91CF910895CF93DF93EE
:10013000CDB7DEB785E290E020EDFC0120838EE2B2
:1001400090E02CE0FC0120838CE690E020EDFC01A7
:1001500020838BE690E02CE0FC0120838DE390E08F
:1001600020ECFC0120830000DF91CF910895CF9314
:10017000DF9300D01F92CDB7DEB79A8389836B835C
:100180008B81882359F48FEE90E02FEE30E0F90157
:10019000308121E02327FC0120830AC08DEE90E00E
:1001A0002DEE30E0F901308122E02327FC0120838D
:1001B00000000F900F900F90DF91CF910895CF9393
:1001C000DF9300D000D01F92CDB7DEB79C838B8326
:1001D0006D8319821A828D81882379F48EEF8A8348
:1001E0008FEE90E0FC0190818A81892389838FEED4
:1001F00090E02981FC0120830EC08DEF8A838DEE73
:1002000090E0FC0190818A81892389838DEE90E0C2
:100210002981FC01208300000F900F900F900F9018
:100220000F90DF91CF9108951F920F9200905F0081
:100230000F9211242F933F934F935F936F937F936C
:100240008F939F93AF93BF93EF93FF93CF93DF93DE
:10025000CDB7DEB780913E0190913F01092E000C91
:10026000AA0BBB0BAC013327222784E890E0FC01EA
:1002700080819181CC01A0E0B0E0822B932BA42B54
:10028000B52B80933A0190933B01A0933C01B0932E
:100290003D0186E390E0FC018081882F90E0817031
:1002A0009927892B01F180913E0190913F010196A0
:1002B000092E000CAA0BBB0BAC013327222784E8C4
:1002C00090E0FC0180819181CC01A0E0B0E0822B24
:1002D000932BA42BB52B80933A0190933B01A093D1
:1002E0003C01B0933D018091D8019091D901892BB7
:1002F00061F02091D8013091D90180914001909115
:10030000410160E070E0F90109950E94B90E00001A
:10031000DF91CF91FF91EF91BF91AF919F918F911D
:100320007F916F915F914F913F912F910F9000922C
:100330005F000F901F9018951F920F9200905F0022
:100340000F9211242F933F934F935F936F937F935B
:100350008F939F93AF93BF93EF93FF93CF93DF93CD
:10036000CDB7DEB780913E0190913F01092E000C80
:10037000AA0BBB0BAC013327222784E890E0FC01D9
:1003800080819181CC01A0E0B0E0822B932BA42B43
:10039000B52B80933A0190933B01A0933C01B0931D
:1003A0003D0186E390E0FC018081882F90E0817020
:1003B0009927892B01F180913E0190913F0101968F
:1003C000092E000CAA0BBB0BAC013327222784E8B3
:1003D00090E0FC0180819181CC01A0E0B0E0822B13
:1003E000932BA42BB52B80933A0190933B01A093C0
:1003F0003C01B0933D018091DA019091DB01892BA2
:1004000061F02091DA013091DB01809142019091FD
:10041000430161E070E0F90109950E94B90E000006
:10042000DF91CF91FF91EF91BF91AF919F918F910C
:100430007F916F915F914F913F912F910F9000921B
:100440005F000F901F9018951F920F9200905F0011
:100450000F9211242F933F934F935F936F937F934A
:100460008F939F93AF93BF93EF93FF93CF93DF93BC
:10047000CDB7DEB780913E0190913F01092E000C6F
:10048000AA0BBB0BAC013327222784E890E0FC01C8
:1004900080819181CC01A0E0B0E0822B932BA42B32
:1004A000B52B80933A0190933B01A0933C01B0930C
:1004B0003D0186E390E0FC018081882F90E081700F
:1004C0009927892B01F180913E0190913F0101967E
:1004D000092E000CAA0BBB0BAC013327222784E8A2
:1004E00090E0FC0180819181CC01A0E0B0E0822B02
:1004F000932BA42BB52B80933A0190933B01A093AF
:100500003C01B0933D018091DC019091DD01892B8C
:1005100061F02091DC013091DD01809144019091E6
:10052000450162E070E0F90109950E94B90E0000F2
:10053000DF91CF91FF91EF91BF91AF919F918F91FB
:100540007F916F915F914F913F912F910F9000920A
:100550005F000F901F9018951F920F9200905F0000
:100560000F9211242F933F934F935F936F937F9339
:100570008F939F93AF93BF93EF93FF93CF93DF93AB
:10058000CDB7DEB780913E0190913F01092E000C5E
:10059000AA0BBB0BAC013327222784E890E0FC01B7
:1005A00080819181CC01A0E0B0E0822B932BA42B21
:1005B000B52B80933A0190933B01A0933C01B093FB
:1005C0003D0186E390E0FC018081882F90E08170FE
:1005D0009927892B01F180913E0190913F0101966D
:1005E000092E000CAA0BBB0BAC013327222784E891
:1005F00090E0FC0180819181CC01A0E0B0E0822BF1
:10060000932BA42BB52B80933A0190933B01A0939D
:100610003C01B0933D018091DE019091DF01892B77
:1006200061F02091DE013091DF01809146019091CF
:10063000470163E070E0F90109950E94B90E0000DE
:10064000DF91CF91FF91EF91BF91AF919F918F91EA
:100650007F916F915F914F913F912F910F900092F9
:100660005F000F901F9018951F920F9200905F00EF
:100670000F9211242F933F934F935F936F937F9328
:100680008F939F93AF93BF93EF93FF93CF93DF939A
:10069000CDB7DEB780913E0190913F01092E000C4D
:1006A000AA0BBB0BAC013327222784E890E0FC01A6
:1006B00080819181CC01A0E0B0E0822B932BA42B10
:1006C000B52B80933A0190933B01A0933C01B093EA
:1006D0003D0186E390E0FC018081882F90E08170ED
:1006E0009927892B01F180913E0190913F0101965C
:1006F000092E000CAA0BBB0BAC013327222784E880
:1007000090E0FC0180819181CC01A0E0B0E0822BDF
:10071000932BA42BB52B80933A0190933B01A0938C
:100720003C01B0933D018091E0019091E101892B62
:1007300061F02091E0013091E101809148019091B8
:10074000490164E070E0F90109950E94B90E0000CA
:10075000DF91CF91FF91EF91BF91AF919F918F91D9
:100760007F916F915F914F913F912F910F900092E8
:100770005F000F901F9018951F920F9200905F00DE
:100780000F9211242F933F934F935F936F937F9317
:100790008F939F93AF93BF93EF93FF93CF93DF9389
:1007A000CDB7DEB780913E0190913F01092E000C3C
:1007B000AA0BBB0BAC013327222784E890E0FC0195
:1007C00080819181CC01A0E0B0E0822B932BA42BFF
:1007D000B52B80933A0190933B01A0933C01B093D9
:1007E0003D0186E390E0FC018081882F90E08170DC
:1007F0009927892B01F180913E0190913F0101964B
:10080000092E000CAA0BBB0BAC013327222784E86E
:1008100090E0FC0180819181CC01A0E0B0E0822BCE
:10082000932BA42BB52B80933A0190933B01A0937B
:100830003C01B0933D018091E2019091E301892B4D
:1008400061F02091E2013091E30180914A019091A1
:100850004B0165E070E0F90109950E94B90E0000B6
:10086000DF91CF91FF91EF91BF91AF919F918F91C8
:100870007F916F915F914F913F912F910F900092D7
:100880005F000F901F9018951F920F9200905F00CD
:100890000F9211242F933F934F935F936F937F9306
:1008A0008F939F93AF93BF93EF93FF93CF93DF9378
:1008B000CDB7DEB780913E0190913F01092E000C2B
:1008C000AA0BBB0BAC013327222784E890E0FC0184
:1008D00080819181CC01A0E0B0E0822B932BA42BEE
:1008E000B52B80933A0190933B01A0933C01B093C8
:1008F0003D0186E390E0FC018081882F90E08170CB
:100900009927892B01F180913E0190913F01019639
:10091000092E000CAA0BBB0BAC013327222784E85D
:1009200090E0FC0180819181CC01A0E0B0E0822BBD
:10093000932BA42BB52B80933A0190933B01A0936A
:100940003C01B0933D018091E4019091E501892B38
:1009500061F02091E4013091E50180914C0190918A
:100960004D0166E070E0F90109950E94B90E0000A2
:10097000DF91CF91FF91EF91BF91AF919F918F91B7
:100980007F916F915F914F913F912F910F900092C6
:100990005F000F901F9018951F920F9200905F00BC
:1009A0000F9211242F933F934F935F936F937F93F5
:1009B0008F939F93AF93BF93EF93FF93CF93DF9367
:1009C000CDB7DEB780913E0190913F01092E000C1A
:1009D000AA0BBB0BAC013327222784E890E0FC0173
:1009E00080819181CC01A0E0B0E0822B932BA42BDD
:1009F000B52B80933A0190933B01A0933C01B093B7
:100A00003D0186E390E0FC018081882F90E08170B9
:100A10009927892B01F180913E0190913F01019628
:100A2000092E000CAA0BBB0BAC013327222784E84C
:100A300090E0FC0180819181CC01A0E0B0E0822BAC
:100A4000932BA42BB52B80933A0190933B01A09359
:100A50003C01B0933D018091E6019091E701892B23
:100A600061F02091E6013091E70180914E01909173
:100A70004F0167E070E0F90109950E94B90E00008E
:100A8000DF91CF91FF91EF91BF91AF919F918F91A6
:100A90007F916F915F914F913F912F910F900092B5
:100AA0005F000F901F9018951F920F9200905F00AB
:100AB0000F9211242F933F934F935F936F937F93E4
:100AC0008F939F93AF93BF93EF93FF93CF93DF9356
:100AD000CDB7DEB780913E0190913F01092E000C09
:100AE000AA0BBB0BAC013327222784E890E0FC0162
:100AF00080819181CC01A0E0B0E0822B932BA42BCC
:100B0000B52B80933A0190933B01A0933C01B093A5
:100B10003D0186E390E0FC018081882F90E08170A8
:100B20009927892B01F180913E0190913F01019617
:100B3000092E000CAA0BBB0BAC013327222784E83B
:100B400090E0FC0180819181CC01A0E0B0E0822B9B
:100B5000932BA42BB52B80933A0190933B01A09348
:100B60003C01B0933D018091E8019091E901892B0E
:100B700061F02091E8013091E9018091500190915C
:100B8000510168E070E0F90109950E94B90E00007A
:100B9000DF91CF91FF91EF91BF91AF919F918F9195
:100BA0007F916F915F914F913F912F910F900092A4
:100BB0005F000F901F9018951F920F9200905F009A
:100BC0000F9211242F933F934F935F936F937F93D3
:100BD0008F939F93AF93BF93EF93FF93CF93DF9345
:100BE000CDB7DEB780913E0190913F01092E000CF8
:100BF000AA0BBB0BAC013327222784E890E0FC0151
:100C000080819181CC01A0E0B0E0822B932BA42BBA
:100C1000B52B80933A0190933B01A0933C01B09394
:100C20003D0186E390E0FC018081882F90E0817097
:100C30009927892B01F180913E0190913F01019606
:100C4000092E000CAA0BBB0BAC013327222784E82A
:100C500090E0FC0180819181CC01A0E0B0E0822B8A
:100C6000932BA42BB52B80933A0190933B01A09337
:100C70003C01B0933D018091EA019091EB01892BF9
:100C800061F02091EA013091EB0180915201909145
:100C9000530169E070E0F90109950E94B90E000066
:100CA000DF91CF91FF91EF91BF91AF919F918F9184
:100CB0007F916F915F914F913F912F910F90009293
:100CC0005F000F901F9018951F920F9200905F0089
:100CD0000F9211242F933F934F935F936F937F93C2
:100CE0008F939F93AF93BF93EF93FF93CF93DF9334
:100CF000CDB7DEB780913E0190913F01092E000CE7
:100D0000AA0BBB0BAC013327222784E890E0FC013F
:100D100080819181CC01A0E0B0E0822B932BA42BA9
:100D2000B52B80933A0190933B01A0933C01B09383
:100D30003D0186E390E0FC018081882F90E0817086
:100D40009927892B01F180913E0190913F010196F5
:100D5000092E000CAA0BBB0BAC013327222784E819
:100D600090E0FC0180819181CC01A0E0B0E0822B79
:100D7000932BA42BB52B80933A0190933B01A09326
:100D80003C01B0933D018091EC019091ED01892BE4
:100D900061F02091EC013091ED018091540190912E
:100DA00055016AE070E0F90109950E94B90E000052
:100DB000DF91CF91FF91EF91BF91AF919F918F9173
:100DC0007F916F915F914F913F912F910F90009282
:100DD0005F000F901F9018951F920F9200905F0078
:100DE0000F9211242F933F934F935F936F937F93B1
:100DF0008F939F93AF93BF93EF93FF93CF93DF9323
:100E0000CDB7DEB780913E0190913F01092E000CD5
:100E1000AA0BBB0BAC013327222784E890E0FC012E
:100E200080819181CC01A0E0B0E0822B932BA42B98
:100E3000B52B80933A0190933B01A0933C01B09372
:100E40003D0186E390E0FC018081882F90E0817075
:100E50009927892B01F180913E0190913F010196E4
:100E6000092E000CAA0BBB0BAC013327222784E808
:100E700090E0FC0180819181CC01A0E0B0E0822B68
:100E8000932BA42BB52B80933A0190933B01A09315
:100E90003C01B0933D018091EE019091EF01892BCF
:100EA00061F02091EE013091EF0180915601909117
:100EB00057016BE070E0F90109950E94B90E00003E
:100EC000DF91CF91FF91EF91BF91AF919F918F9162
:100ED0007F916F915F914F913F912F910F90009271
:100EE0005F000F901F9018951F920F9200905F0067
:100EF0000F9211242F933F934F935F936F937F93A0
:100F00008F939F93AF93BF93EF93FF93CF93DF9311
:100F1000CDB7DEB780913E0190913F01092E000CC4
:100F2000AA0BBB0BAC013327222784E890E0FC011D
:100F300080819181CC01A0E0B0E0822B932BA42B87
:100F4000B52B80933A0190933B01A0933C01B09361
:100F50003D0186E390E0FC018081882F90E0817064
:100F60009927892B01F180913E0190913F010196D3
:100F7000092E000CAA0BBB0BAC013327222784E8F7
:100F800090E0FC0180819181CC01A0E0B0E0822B57
:100F9000932BA42BB52B80933A0190933B01A09304
:100FA0003C01B0933D018091F0019091F101892BBA
:100FB00061F02091F0013091F10180915801909100
:100FC00059016CE070E0F90109950E94B90E00002A
:100FD000DF91CF91FF91EF91BF91AF919F918F9151
:100FE0007F916F915F914F913F912F910F90009260
:100FF0005F000F901F9018951F920F9200905F0056
:101000000F9211242F933F934F935F936F937F938E
:101010008F939F93AF93BF93EF93FF93CF93DF9300
:10102000CDB7DEB780913E0190913F01092E000CB3
:10103000AA0BBB0BAC013327222784E890E0FC010C
:1010400080819181CC01A0E0B0E0822B932BA42B76
:10105000B52B80933A0190933B01A0933C01B09350
:101060003D0186E390E0FC018081882F90E0817053
:101070009927892B01F180913E0190913F010196C2
:10108000092E000CAA0BBB0BAC013327222784E8E6
:1010900090E0FC0180819181CC01A0E0B0E0822B46
:1010A000932BA42BB52B80933A0190933B01A093F3
:1010B0003C01B0933D018091F2019091F301892BA5
:1010C00061F02091F2013091F30180915A019091E9
:1010D0005B016DE070E0F90109950E94B90E000016
:1010E000DF91CF91FF91EF91BF91AF919F918F9140
:1010F0007F916F915F914F913F912F910F9000924F
:101100005F000F901F9018951F920F9200905F0044
:101110000F9211242F933F934F935F936F937F937D
:101120008F939F93AF93BF93EF93FF93CF93DF93EF
:10113000CDB7DEB780913E0190913F01092E000CA2
:10114000AA0BBB0BAC013327222784E890E0FC01FB
:1011500080819181CC01A0E0B0E0822B932BA42B65
:10116000B52B80933A0190933B01A0933C01B0933F
:101170003D0186E390E0FC018081882F90E0817042
:101180009927892B01F180913E0190913F010196B1
:10119000092E000CAA0BBB0BAC013327222784E8D5
:1011A00090E0FC0180819181CC01A0E0B0E0822B35
:1011B000932BA42BB52B80933A0190933B01A093E2
:1011C0003C01B0933D018091F4019091F501892B90
:1011D00061F02091F4013091F50180915C019091D2
:1011E0005D016EE070E0F90109950E94B90E000002
:1011F000DF91CF91FF91EF91BF91AF919F918F912F
:101200007F916F915F914F913F912F910F9000923D
:101210005F000F901F9018951F920F9200905F0033
:101220000F9211242F933F934F935F936F937F936C
:101230008F939F93AF93BF93EF93FF93CF93DF93DE
:10124000CDB7DEB780913E0190913F01092E000C91
:10125000AA0BBB0BAC013327222784E890E0FC01EA
:1012600080819181CC01A0E0B0E0822B932BA42B54
:10127000B52B80933A0190933B01A0933C01B0932E
:101280003D0186E390E0FC018081882F90E0817031
:101290009927892B01F180913E0190913F010196A0
:1012A000092E000CAA0BBB0BAC013327222784E8C4
:1012B00090E0FC0180819181CC01A0E0B0E0822B24
:1012C000932BA42BB52B80933A0190933B01A093D1
:1012D0003C01B0933D018091F6019091F701892B7B
:1012E00061F02091F6013091F70180915E019091BB
:1012F0005F016FE070E0F90109950E94B90E0000EE
:10130000DF91CF91FF91EF91BF91AF919F918F911D
:101310007F916F915F914F913F912F910F9000922C
:101320005F000F901F9018951F920F9200905F0022
:101330000F9211242F933F934F935F936F937F935B
:101340008F939F93AF93BF93EF93FF93CF93DF93CD
:10135000CDB7DEB780913E0190913F01092E000C80
:10136000AA0BBB0BAC013327222784E890E0FC01D9
:1013700080819181CC01A0E0B0E0822B932BA42B43
:10138000B52B80933A0190933B01A0933C01B0931D
:101390003D0186E390E0FC018081882F90E0817020
:1013A0009927892B01F180913E0190913F0101968F
:1013B000092E000CAA0BBB0BAC013327222784E8B3
:1013C00090E0FC0180819181CC01A0E0B0E0822B13
:1013D000932BA42BB52B80933A0190933B01A093C0
:1013E0003C01B0933D018091F8019091F901892B66
:1013F00061F02091F8013091F901809160019091A4
:10140000610160E170E0F90109950E94B90E0000E8
:10141000DF91CF91FF91EF91BF91AF919F918F910C
:101420007F916F915F914F913F912F910F9000921B
:101430005F000F901F9018951F920F9200905F0011
:101440000F9211242F933F934F935F936F937F934A
:101450008F939F93AF93BF93EF93FF93CF93DF93BC
:10146000CDB7DEB780913E0190913F01092E000C6F
:10147000AA0BBB0BAC013327222784E890E0FC01C8
:1014800080819181CC01A0E0B0E0822B932BA42B32
:10149000B52B80933A0190933B01A0933C01B0930C
:1014A0003D0186E390E0FC018081882F90E081700F
:1014B0009927892B01F180913E0190913F0101967E
:1014C000092E000CAA0BBB0BAC013327222784E8A2
:1014D00090E0FC0180819181CC01A0E0B0E0822B02
:1014E000932BA42BB52B80933A0190933B01A093AF
:1014F0003C01B0933D018091FA019091FB01892B51
:1015000061F02091FA013091FB018091620190918C
:10151000630161E170E0F90109950E94B90E0000D4
:10152000DF91CF91FF91EF91BF91AF919F918F91FB
:101530007F916F915F914F913F912F910F9000920A
:101540005F000F901F901895CF93DF93CDB7DEB754
:1015500028970FB6F894DEBF0FBECDBF9E838D8354
:1015600078876F831A8219828F819885FC01808128
:1015700091819C838B830BC08B819C819A8389830F
:101580008B819C81FC01808191819C838B838B81E9
:101590009C81892B99F08B819C81FC01268137816C
:1015A000408551858D819E81FC0186819781A08532
:1015B000B18582179307A407B507F4F68D819E8144
:1015C0002B813C81FC013183208389819A81892B85
:1015D00041F48F8198852D813E81FC0131832083E8
:1015E00007C089819A812D813E81FC01318320834E
:1015F000000028960FB6F894DEBF0FBECDBFDF9176
:10160000CF910895CF93DF93CDB7DEB728970FB66C
:10161000F894DEBF0FBECDBF9E838D8378876F8326
:101620001A8219828F819885FC01808191819C8327
:101630008B830BC08B819C819A8389838B819C8156
:10164000FC01808191819C838B838B819C81892B80
:1016500099F08B819C81FC012281338144815581E9
:101660008D819E81FC0182819381A481B581821745
:101670009307A407B507F4F68D819E812B813C81E9
:10168000FC013183208389819A81892B41F48F81E8
:1016900098852D813E81FC013183208307C089819B
:1016A0009A812D813E81FC013183208300002896A0
:1016B0000FB6F894DEBF0FBECDBFDF91CF91089576
:1016C000CF93DF9300D000D0CDB7DEB79C838B8360
:1016D0008B819C81FC01808191819A83898389819E
:1016E0009A81892B59F089819A81FC01208131816D
:1016F0008B819C81FC013183208316C08CEE90E0AD
:101700002FEFFC0120838DEE90E02FEFFC01208372
:101710008EEE90E02FEFFC01208383E590E021E046
:10172000FC0120838895F9CF89819A810F900F90D1
:101730000F900F90DF91CF910895CF93DF9300D05A
:1017400000D0CDB7DEB79A8389837C836B838B818E
:101750009C81FC012081318189819A81FC01318346
:1017600020838B819C8129813A81FC0131832083F4
:1017700000000F900F900F900F90DF91CF91089580
:10178000CF93DF9300D000D0CDB7DEB79A838983A3
:101790007C836B838B819C81FC01208131818981D9
:1017A0009A81FC01318320838B819C8129813A813C
:1017B000FC013183208300000F900F900F900F9059
:1017C000DF91CF910895CF93DF9300D000D0CDB7B4
:1017D000DEB79C838B838B819C81FC01808191810E
:1017E0009A83898389819A81FC01208131818B814F
:1017F0009C81FC013183208389819A810F900F9015
:101800000F900F90DF91CF910895CF93DF93CDB7D5
:10181000DEB728970FB6F894DEBF0FBECDBF9E830C
:101820008D8378876F831A8219828F819885FC0156
:10183000808191819C838B830BC08B819C819A8357
:1018400089838B819C81FC01808191819C838B8326
:101850008B819C81892B39F02B813C818D819E81EC
:101860002817390751F78B819C81892BE1F08981F9
:101870009A81892B59F08B819C81FC0120813181D7
:1018800089819A81FC01318320830AC08B819C81EC
:10189000FC01208131818F819885FC013183208377
:1018A00081E090E002C080E090E028960FB6F894C6
:1018B000DEBF0FBECDBFDF91CF9108951F920F9273
:1018C00000905F000F9211242F933F934F935F93EB
:1018D0006F937F938F939F93AF93BF93EF93FF93F8
:1018E000CF93DF93CDB7DEB780913E0190913F015A
:1018F000019690933F0180933E0180913801909131
:101900003901892B09F44AC080913801909139013D
:10191000FC0182819381A481B581CD01BB2797FD14
:10192000B095AB2F9C0180913E0190913F0128170B
:101930003907A1F528E830E080913801909139010C
:10194000FC0182819381A481B581AC0184E890E09F
:10195000FC0180819181BA01681B790BCB01019751
:1019600039F484E890E0FC0180819181019609C0FE
:101970008091380190913901FC0182819381A48189
:10198000B581F901918380838FE690E02FE630E006
:10199000F90120812260FC01208309C08FE690E0DC
:1019A0002FE630E0F90120812D7FFC01208300002B
:1019B000DF91CF91FF91EF91BF91AF919F918F9167
:1019C0007F916F915F914F913F912F910F90009276
:1019D0005F000F901F9018951F920F9200905F006C
:1019E0000F921124EF92FF920F931F932F933F9327
:1019F0004F935F936F937F938F939F93AF93BF9317
:101A0000EF93FF93CF93DF9300D000D0CDB7DEB735
:101A100080913E0190913F01092E000CAA0BBB0B57
:101A2000AC013327222784E890E0FC01808191817A
:101A3000CC01A0E0B0E0822B932BA42BB52B8983A3
:101A40009A83AB83BC8386E390E0FC018081882F7E
:101A500090E081709927892B29F180913E01909126
:101A60003F010196092E000CAA0BBB0BAC013327DA
:101A7000222784E890E0FC0180819181CC01A0E0E4
:101A8000B0E0822B932BA42BB52B89839A83AB8355
:101A9000BC8308C088E391E00E94600B66E371E0BC
:101AA0000E94A40A8091380190913901892BD1F0CC
:101AB0008091380190913901FC0122813381448168
:101AC000558189819A81AB81BC8179018A01E81AAB
:101AD000F90A0A0B1B0BD801C701181619061A06BA
:101AE0001B06C4F68091380190913901892B09F4C5
:101AF0004AC08091380190913901FC018281938123
:101B0000A481B581CD01BB2797FDB095AB2F9C017A
:101B100080913E0190913F0128173907A1F528E8EF
:101B200030E08091380190913901FC0182819381EC
:101B3000A481B581AC0184E890E0FC0180819181B1
:101B40007A01E81AF90AC701019739F484E890E0AC
:101B5000FC0180819181019609C0809138019091AA
:101B60003901FC0182819381A481B581F9019183BE
:101B700080838FE690E02FE630E0F901208122603B
:101B8000FC01208309C08FE690E02FE630E0F901E8
:101B900020812D7FFC0120830E94B90E00000F9050
:101BA0000F900F900F90DF91CF91FF91EF91BF9128
:101BB000AF919F918F917F916F915F914F913F91E5
:101BC0002F911F910F91FF90EF900F9000925F0067
:101BD0000F901F901895CF93DF9300D0CDB7DEB74D
:101BE0009A83898380912F019091300106960E94FB
:101BF000D319892B69F489819A819093300180935C
:101C00002F0189819A81069661E070E00E94F319A4
:101C100000000F900F90DF91CF910895EF92FF9207
:101C20000F931F93CF93DF93CDB7DEB727970FB6F0
:101C3000F894DEBF0FBECDBF00912F01109130018F
:101C400086E391E00E94600BF80193838283F801A0
:101C5000828193819C838B8381E08D838D81882316
:101C600009F078948B819C81FC01468557858B8196
:101C70009C81FC01248535858B819C81FC018285BA
:101C80009385B9010E94A4108FE590E0FC0180814A
:101C900080788D83F8948B819C8169E271E00E9449
:101CA0009D0B80912D0190912E01FC0180819181ED
:101CB000FC01828193819F838E8380913601909174
:101CC0003701892B19F18E819F81892B09F4B4CFBB
:101CD0008091360190913701FC0126813781408542
:101CE00051858E819F81FC0186819781A085B18578
:101CF00079018A01E81AF90A0A0B1B0BD801C701FE
:101D0000181619061A061B060CF096CF8DE291E004
:101D10000E94E30B6BE271E00E94C00B80912D01E9
:101D200090912E019A8389830AC089819A81FC014E
:101D300084819581FC01808191819A838983898145
:101D40009A81FC0184819581892B79F789819A8117
:101D50000E94EB0D71CFCF93DF93CDB7DEB70E941A
:101D6000B90E789483E590E021E0FC01208388950A
:101D7000F9CFEF92FF920F931F93CF93DF9300D091
:101D8000CDB7DEB780912D0190912E01FC018281AB
:101D900093819A8389838091360190913701892BB1
:101DA00091F180912B0190912C01892B61F1898116
:101DB0009A81892BD1F08091360190913701FC01F5
:101DC000268137814085518589819A81FC018681F0
:101DD0009781A085B18579018A01E81AF90A0A0B71
:101DE0001B0BD801C701BB2374F48BE291E00E9466
:101DF000E30B6DE271E00E94C00B80912D01909188
:101E00002E010E94EB0D00000F900F90DF91CF91FB
:101E10001F910F91FF90EF900895CF92DF92EF9274
:101E2000FF920F931F93CF93DF93CDB7DEB76597E4
:101E30000FB6F894DEBF0FBECDBF688779878A875B
:101E40009B872C873D874E875F87198B088BFB8A82
:101E5000EA8ADD8ACC8A8FE590E0FC018081807877
:101E60008D83F89489E291E00E94600B9F838E83BA
:101E70008E819F8128893989FC01338722878E8151
:101E80009F812A893B89FC01358724878E819F8128
:101E90002C893D89FC01378726878D81882369F04D
:101EA00080912F0190913001FC0182819381FC018E
:101EB00082819381A481B58108C080913A0190917B
:101EC0003B01A0913C01B0913D01288539854A85AF
:101ED0005B85820F931FA41FB51F2E813F81F901DF
:101EE00082839383A483B5838E819F81FC012281A9
:101EF0003381448155818C859D85AE85BF851816BB
:101F000019061A061B062CF48C859D85AE85BF85A7
:101F100004C08FEF9FEFAFEFBFE7820F931FA41FA7
:101F2000B51F2E813F81F90186839783A087B187F2
:101F300080913E0190913F01092E000CAA0BBB0B32
:101F4000AC013327222784E890E0FC018081918155
:101F5000CC01A0E0B0E0822B932BA42BB52B89837E
:101F60009A83AB83BC8386E390E0FC018081882F59
:101F700090E081709927892BE1F080913E0190914A
:101F80003F010196092E000CAA0BBB0BAC013327B5
:101F9000222784E890E0FC0180819181CC01A0E0BF
:101FA000B0E0822B932BA42BB52B89839A83AB8330
:101FB000BC838E819F81FC012281338144815581C4
:101FC00089819A81AB81BC8179018A01E81AF90A79
:101FD0000A0B1B0BD801C701181619061A061B0697
:101FE0000CF061C08E819F8168E371E00E94020B5A
:101FF0008091380190913901892B09F44AC0809170
:10200000380190913901FC0182819381A481B581CD
:10201000CD01BB2797FDB095AB2F9C0180913E0170
:1020200090913F0128173907A1F528E830E0809109
:10203000380190913901FC0182819381A481B5819D
:10204000AC0184E890E0FC01808191817A01E81A7A
:10205000F90AC701019739F484E890E0FC01808116
:102060009181019609C08091380190913901FC015C
:1020700082819381A481B581F901918380838FE668
:1020800090E02FE630E0F90120812260FC012083FE
:1020900046C08FE690E02FE630E0F90120812D7FE9
:1020A000FC0120833CC08E819F8166E371E00E9429
:1020B000A40A8D81882399F180912B0190912C01A4
:1020C000892B69F18091360190913701FC012681BD
:1020D00037814085518580912D0190912E01FC0121
:1020E00082819381FC0186819781A085B1857901E8
:1020F0008A01E81AF90A0A0B1B0BD801C701BB2396
:1021000074F48BE291E00E94E30B6DE271E00E94B7
:10211000C00B80912D0190912E010E94EB0D8D81BD
:10212000882309F078948E819F8165960FB6F89484
:10213000DEBF0FBECDBFDF91CF911F910F91FF90FA
:10214000EF90DF90CF900895CF93DF93CDB7DEB7B8
:102150002C970FB6F894DEBF0FBECDBF98878F8344
:102160007A8769875C874B878FE590E0FC018081E7
:1021700080788B83F8948F819885FC018081918190
:102180009A83898389819A81892B09F45AC00AC06C
:1021900089819A81FC0184819581FC0180819181F2
:1021A0009A83898389819A81FC0184819581892B15
:1021B00079F780912F019091300129813A81281778
:1021C000390719F08B81882339F48B81882309F032
:1021D00078948FEF9FEF83C08F819885FC01828177
:1021E0009381892B41F08F819885FC0182819381B5
:1021F000FC011582148220912F01309130018F81D2
:102200009885FC013383228380912F0190913001C6
:102210002F813885FC013583248389819A810E942E
:10222000EB0D80912F0190913001FC01828193810F
:10223000892B39F48B81882309F0789480E090E031
:102240004EC020912F01309130018F819885FC0183
:10225000318320838B81882341F08F819885FC0115
:1022600082819381019709F078944B855C858F81F9
:10227000988529853A85BA01F90109959D838C8352
:102280008FE590E0FC01808180788E83F8948F81C7
:102290009885FC01118210828F819885FC018281D2
:1022A00093819A83898389819A81892B91F089818D
:1022B0009A81019771F08F819885FC0113821282B7
:1022C00089819A81FC011582148289819A810E94F8
:1022D000EB0D8B81882309F078948C819D812C965D
:1022E0000FB6F894DEBF0FBECDBFDF91CF9108953A
:1022F000CF93DF9300D000D01F92CDB7DEB79D8380
:102300008C838FE590E0FC01808180788B83F8944A
:102310008C819D8168E371E00E94050C892B41F45A
:102320008C819D8166E371E00E94050C892B39F058
:102330008C819D8169E271E00E949D0B3EC080917D
:102340002D0190912E019A83898333C080912F01B2
:102350009091300129813A812817390719F1898133
:102360009A81FC01228133818C819D812817390754
:10237000C9F489819A81FC01248135818C819D81F8
:10238000FC01828593852817390761F489819A8138
:10239000FC01138212828C819D8169E271E00E94AE
:1023A0009D0B0BC089819A81FC01808191819A8368
:1023B000898389819A81892B49F68B81882309F049
:1023C000789400000F900F900F900F900F90DF9176
:1023D000CF910895CF93DF9300D0CDB7DEB79A8326
:1023E00089838FE590E0FC01808188236CF48091E3
:1023F0002F0190913001FC0182819381FC01828147
:102400009381A481B58108C080913A0190913B01EC
:10241000A0913C01B0913D0129813A81F90180836D
:102420009183A283B38300000F900F90DF91CF912F
:102430000895CF93DF9300D0CDB7DEB79A83898319
:102440008FE590E0FC01808188236CF480912F015E
:1024500090913001FC0182819381FC018281938102
:10246000A481B58108C080913A0190913B01A0916F
:102470003C01B0913D0129813A81F90120813181EE
:1024800042815381821B930BA40BB50BBC01CD0180
:102490000F900F90DF91CF910895EF92FF920F93DD
:1024A0001F93CF93DF9300D000D01F92CDB7DEB73C
:1024B0008FE590E0FC01808180788D83F894809195
:1024C0003E0190913F01092E000CAA0BBB0BAC0101
:1024D0003327222784E890E0FC0180819181CC01A0
:1024E000A0E0B0E0822B932BA42BB52B89839A8399
:1024F000AB83BC8386E390E0FC018081882F90E071
:1025000081709927892BE1F080913E0190913F01E4
:102510000196092E000CAA0BBB0BAC013327222716
:1025200084E890E0FC0180819181CC01A0E0B0E0E2
:10253000822B932BA42BB52B89839A83AB83BC83EB
:102540008D81882309F078948D81882369F08091AA
:102550002F0190913001FC0182819381FC018281E5
:102560009381A481B58108C080913A0190913B018B
:10257000A0913C01B0913D0129813A814B815C8160
:1025800079018A01E81AF90A0A0B1B0BD801C70165
:10259000BC01CD010F900F900F900F900F90DF9125
:1025A000CF911F910F91FF90EF900895CF93DF93FC
:1025B00000D0CDB7DEB71A8219821EC089819A81F8
:1025C000019682959295907F9827807F98279C010D
:1025D000275E3D4F89819A8182959295907F9827B9
:1025E000807F9827875E9D4FFC01318320838981FE
:1025F0009A8101969A83898389819A810E97F4F250
:102600001092FA021092F9021A82198220C089816E
:102610009A819C012F5F3F4F4DE1429FC001439F34
:10262000900D11249C012C593E4F49815A816DE136
:10263000649FC001659F900D11248C599E4FFC0131
:102640003183208389819A8101969A838983898144
:102650009A810397E4F21092BC011092BB011A8296
:10266000198266C029813A814DE1429FC001439F92
:10267000900D112406968C599E4F0E94D3192981E2
:102680003A814DE1429FC001439F900D112406966F
:102690008C599E4F409649815A8160E6649F900113
:1026A000659F300D1124275F3C4F245A3F4FFC019A
:1026B0003183208329813A814DE1429FC001439FAC
:1026C000900D112406968C599E4F429649815A814D
:1026D00060E6649F9001659F300D1124275F3C4F99
:1026E000245A3F4FFC013183208329813A814DE1F7
:1026F000429FC001439F900D112406968C599E4F16
:1027000045962EE03EE0FC013183208329813A8109
:102710004DE1429FC001439F900D112488599E4F67
:10272000FC011182108289819A8101969A838983A2
:1027300089819A8104970CF495CF1092FD01109233
:10274000FC0110920102109200021092FF011092FF
:10275000FE0181E690E020E8FC01208381E690E024
:10276000FC01108284E890E0FC011182108281E873
:1027700090E024E0FC0120838FE690E021E0FC0162
:10278000208300000F900F90DF91CF910895CF9399
:10279000DF9300D000D000D0CDB7DEB79B838A8313
:1027A0007D836C834E838E81823150F58FE590E07E
:1027B000FC01808180788983F8948E81882F90E055
:1027C000880F991F805C9E4F2A813B81FC013183D9
:1027D00020838E81882F90E0880F991F88529E4F0A
:1027E0002C813D81FC01318320838A819B8121E002
:1027F00030E0FC01338322838981882309F07894B7
:10280000000026960FB6F894DEBF0FBECDBFDF9155
:10281000CF910895CF92DF92EF92FF920F931F9383
:10282000CF93DF93CDB7DEB727970FB6F894DEBF0F
:102830000FBECDBF9B838A837D836C835F834E8372
:102840008FE590E0FC01808180788983F8940E9474
:10285000D61278948C819D81892B89F04E815F817D
:102860002C813D818A819B816A0179018C0120E064
:1028700030E0A90160E070E0CB010E940D0F8FE510
:1028800090E0FC01808180788983F8940E94AB0EEF
:1028900080E090E027960FB6F894DEBF0FBECDBF64
:1028A000DF91CF911F910F91FF90EF90DF90CF902C
:1028B0000895CF92DF92EF92FF920F931F93CF93E1
:1028C000DF9300D0CDB7DEB79A83898389819A815F
:1028D000FC0184819581C12CD12C0F2EF8EBEF2EB9
:1028E000F7E1FF2EF02D8C0120E030E0A90160E03F
:1028F00070E0CB010E940D0F83E290E0FC0180812B
:102900008295869586958370882F90E081709927AF
:10291000892BA1F489819A81FC0184819581FC0134
:102920008681282F30E089819A81FC0184819581FC
:10293000A90165E278E10E94A41020C083E290E042
:10294000FC018081881F8827881F882F90E0817074
:102950009927892B99F489819A81FC018481958139
:10296000FC018681282F30E089819A81FC018481D5
:102970009581A9016CED78E10E94A41083E290E0BA
:10298000FC01808182958F70882F90E0817099275B
:10299000892BE1F589819A81FC0184819581FC0173
:1029A00086818823D1F489819A81FC018481958173
:1029B000FC0187819085C12CD12C0F2EFBE3EF2EDB
:1029C000F5E1FF2EF02D8C0120E030E0A90160E060
:1029D00070E0CB010E940D0F19C089819A81FC0122
:1029E00084819581FC0181859285C12CD12C0F2E8B
:1029F000FBE3EF2EF5E1FF2EF02D8C0120E030E01F
:102A0000A90160E070E0CB010E940D0F8CE290E024
:102A1000FC01808186958695882F90E081709927AA
:102A2000892B41F489819A81FC0184819581FC0183
:102A3000168215C08CE290E0FC0180818695869517
:102A40008695882F90E081709927892B41F48981A0
:102A50009A81FC018481958121E0FC01268300009C
:102A60000F900F90DF91CF911F910F91FF90EF90FA
:102A7000DF90CF900895CF93DF9300D01F92CDB712
:102A8000DEB79B838A838A819B81FC0181858823B1
:102A9000A1F48A819B81FC01868189838A819B8143
:102AA0002981FC0127838A819B81FC0116828A810E
:102AB0009B8121E0FC01218714C08A819B81FC015C
:102AC00027818A819B81FC0126838A819B81FC016D
:102AD00017828A819B81FC0111868A819B810E94D9
:102AE000C91500000F900F900F90DF91CF910895BE
:102AF000CF93DF9300D01F92CDB7DEB79B838A833D
:102B00008A819B81FC018681898389818336D8F4FF
:102B10008A819B81FC018681882369F489818F5F8A
:102B200089838A819B812981FC0126838A819B81FB
:102B30000E94C91508C089818F5F89838A819B8122
:102B40002981FC01268300000F900F900F90DF91E8
:102B5000CF910895CF93DF9300D01F92CDB7DEB70A
:102B60009B838A838A819B81FC01868189838981F9
:102B7000882341F08981815089838A819B812981C1
:102B8000FC01268300000F900F900F90DF91CF91F2
:102B900008958F929F92AF92BF92CF92DF92EF9261
:102BA000FF920F931F93CF93DF9300D0CDB7DEB783
:102BB0009A83898389819A81FC0186818823B9F16E
:102BC00089819A81FC018085282F30E089819A8152
:102BD000FC0184819581A90167EB70E00E94A4103B
:102BE00089819A81FC018681282F30E040E050E005
:102BF00089E09DE3A0E0B0E0BC01CD010E94921904
:102C0000DA01C9014C015D0189819A81C12CD12C65
:102C10000F2EF9ECEF2EF5E1FF2EF02D8C0120E0C8
:102C200030E0A901C501B4010E940D0F10C08981D7
:102C30009A81FC018085282F30E089819A81FC01EE
:102C400084819581A9016FED70E00E94A4100000BD
:102C50000F900F90DF91CF911F910F91FF90EF9008
:102C6000DF90CF90BF90AF909F908F900895CF93BB
:102C7000DF93CDB7DEB767970FB6F894DEBF0FBE10
:102C8000CDBF9E8B8D8B6F8B8F89803318F08F8992
:102C90008A3318F080E090E038C081E595E19A83AE
:102CA000898380E191E09C838B8381EE91E19E8317
:102CB0008D8381EB91E198878F8380EB95E09A87F4
:102CC000898781EB94E19C878B8781EF94E19E87D4
:102CD0008D8780E191E1988B8F8781EF95E19A8BC9
:102CE000898B80EB95E19C8B8B8B1E8A1D8A8F894B
:102CF000882F90E0C097880F991F9E012F5F3F4F4C
:102D0000820F931FFC018081918167960FB6F89422
:102D1000DEBF0FBECDBFDF91CF910895CF93DF937C
:102D2000CDB7DEB760970FB6F894DEBF0FBECDBF4C
:102D30009D878C876E87588B4F878F8598899923BD
:102D40000CF4AFC08F85988906970CF0AAC01F823B
:102D50001E8219821A821B821C8218861D82198685
:102D60008C859D856E850E9437169F838E838F8507
:102D700098899595879589878F85988981709927F6
:102D8000892BE9F48E819F81892F992782958F70F5
:102D900089838E819F81892F99278F708A838E8165
:102DA0009F81929582958F7089279F7089278F7058
:102DB0008B838E818F708C8380EF8D8319C08E8181
:102DC0009F81892F9927807F89838E819F8192950A
:102DD00082958F7089279F708927807F8A838E8153
:102DE000807F8B838E818295807F8C838FE08D8323
:102DF0008CEE90E09B878A878985882F90E02A85D2
:102E00003B85820F931F9B878A878A859B85FC0160
:102E100090818D818923888798858981292F282B06
:102E20008A859B85FC0120838A859B8505969B87E7
:102E30008A878A859B85FC0190818D81892388877B
:102E400098858A81292F282B8A859B85FC012083E0
:102E50008A859B8505969B878A878A859B85FC0149
:102E600090818D818923888798858B81292F282BB4
:102E70008A859B85FC0120838A859B8505969B8797
:102E80008A878A859B85FC0190818D81892388872B
:102E900098858C81292F282B8A859B85FC0120838E
:102EA00001C0000060960FB6F894DEBF0FBECDBF24
:102EB000DF91CF910895CF93DF93CDB7DEB72A97F7
:102EC0000FB6F894DEBF0FBECDBF9C838B834D83BE
:102ED0005E836F8378873A87298789859A859A8365
:102EE00089838D819E81AF81B88524E630E040E002
:102EF00050E0BC01CD010E949219DC01CB012AE017
:102F000030E040E050E0BC01CD010E949219DA01AE
:102F1000C90160E3680F29813A818B819C81A901F5
:102F20000E948E1689819A8101969A8389838D8168
:102F30009E81AF81B8852AE030E040E050E0BC01DE
:102F4000CD010E949219DC01CB0160E3680F298159
:102F50003A818B819C81A9010E948E1600002A96DD
:102F60000FB6F894DEBF0FBECDBFDF91CF910895AD
:102F7000CF93DF9300D000D0CDB7DEB79C838B8397
:102F80008B819C81FC0187819085FC018681882F43
:102F900090E0A0E0B0E0EB81FC8120E030E0AC010B
:102FA000BD01CF010E945B178B819C81FC01818553
:102FB0009285FC018681882F90E0A0E0B0E0EB8153
:102FC000FC8124E030E0AC01BD01CF010E945B1721
:102FD0008B819C81FC0186818823C1F48CEE90E07A
:102FE0002CEE30E0F90120812460FC0120838FEB7E
:102FF00089838CEE90E0FC019081898189238A830A
:103000008CEE90E02A81FC01208317C08CEE90E0CA
:103010002CEE30E0F90120812064FC0120838BEF4D
:1030200089838CEE90E0FC019081898189238A83D9
:103030008CEE90E02A81FC01208300000F900F901D
:103040000F900F90DF91CF910895CF92DF92EF9282
:10305000FF920F931F93CF93DF9300D000D0CDB793
:10306000DEB79A8389837C836B8383E290E0FC01E3
:1030700080818295869586958370882F90E08170F7
:103080009927892BE1F52B813C8189819A816901FE
:103090000F2EFDE8EF2EF8E1FF2EF02D8C0120E041
:1030A00030E0A90160E070E0CB010E940D0F898142
:1030B0009A81C12CD12C0F2EF8EBEF2EF7E1FF2EC9
:1030C000F02D8C0120E030E0A90160E070E0CB0140
:1030D0000E940D0F2B813C8189819A8169010F2EFD
:1030E000F5E2EF2EF8E1FF2EF02D8C0120E030E02C
:1030F000A90165E37CE080E090E00E940D0F0000F4
:103100000F900F900F900F90DF91CF911F910F9123
:10311000FF90EF90DF90CF900895CF92DF92EF92E3
:10312000FF920F931F93CF93DF9300D000D0CDB7C2
:10313000DEB79A8389837C836B838B819C81892B07
:10314000B9F489819A81FC0187819085C12CD12CA9
:103150000F2EF8E7EF2EF5E1FF2EF02D8C0120E089
:1031600030E0A90160E070E0CB010E940D0F16C0B5
:1031700089819A81FC0181859285C12CD12C0F2EE9
:10318000F8E7EF2EF5E1FF2EF02D8C0120E030E086
:10319000A90160E070E0CB010E940D0F00000F90CC
:1031A0000F900F900F90DF91CF911F910F91FF9093
:1031B000EF90DF90CF900895CF92DF92EF92FF9241
:1031C0000F931F93CF93DF9300D000D0CDB7DEB71E
:1031D0009A8389837C836B8383E290E0FC01808106
:1031E000881F8827881F882F90E081709927892B56
:1031F000E1F52B813C8189819A8169010F2EF3E4ED
:10320000EF2EF9E1FF2EF02D8C0120E030E0A90136
:1032100060E070E0CB010E940D0F89819A81C12C82
:10322000D12C0F2EF8EBEF2EF7E1FF2EF02D8C01B5
:1032300020E030E0A90160E070E0CB010E940D0FBA
:103240002B813C8189819A8169010F2EFCEDEF2E43
:10325000F8E1FF2EF02D8C0120E030E0A90165E3BC
:103260007CE080E090E00E940D0F00000F900F9036
:103270000F900F90DF91CF911F910F91FF90EF90E2
:10328000DF90CF900895CF92DF92EF92FF920F934D
:103290001F93CF93DF9300D000D0CDB7DEB79A83D2
:1032A00089837C836B838B819C81892BB9F4898191
:1032B0009A81FC0187819085C12CD12C0F2EFAEACE
:1032C000EF2EF5E1FF2EF02D8C0120E030E0A9017A
:1032D00060E070E0CB010E940D0F16C089819A81D9
:1032E000FC0181859285C12CD12C0F2EFAEAEF2E9C
:1032F000F5E1FF2EF02D8C0120E030E0A90160E027
:1033000070E0CB010E940D0F00000F900F900F9006
:103310000F90DF91CF911F910F91FF90EF90DF9071
:10332000CF900895052E97FB1EF400940E94A919D2
:1033300057FD07D00E94B11907FC03D04EF40C943E
:10334000A91950954095309521953F4F4F4F5F4FAC
:10335000089590958095709561957F4F8F4F9F4F01
:103360000895A1E21A2EAA1BBB1BFD010DC0AA1FC6
:10337000BB1FEE1FFF1FA217B307E407F50720F0DE
:10338000A21BB30BE40BF50B661F771F881F991F59
:103390001A9469F760957095809590959B01AC01A2
:1033A000BD01CF010895DC012D923D924D925D92B9
:1033B0006D927D928D929D92AD92BD92CD92DD9255
:1033C000ED92FD920D931D93CD93DD93FF91EF91BF
:1033D0008DB78D938EB78D938FB78D93ED93FD93AE
:1033E000882799270994DC01CB0181309105811D43
:1033F0002D903D904D905D906D907D908D909D9025
:10340000AD90BD90CD90DD90ED90FD900D911D9112
:10341000CD91DD91ED91FD910D90F894FEBF0FBE21
:0C342000EDBFED91FD910994F894FFCFF1
:10342C00000000003201000000000000000032012A
:10343C00000001000000000001000000010A010072
:10344C0000010000000014010119026401FC01FCE0
:02345C0001006D
:00000001FF
