:100000000C942E000C946D040C94D9040C944505AA
:100010000C94B1050C941D060C944B000C94F40C3C
:100020000C944B000C94A20C0C9489060C94F506CD
:100030000C9461070C94CD070C9439080C94A50816
:100040000C9411090C947D090C94E9090C94550A3F
:100050000C94C10A0C942D0B0C94990B11241FBE07
:10006000CFEFD4E0DEBFCDBF11E0A0E0B1E0E2E031
:10007000F1E202C005900D92A033B107D9F724E058
:10008000A0E3B1E001C01D92A738B207E1F70E94DA
:1000900087030C947F100C940000CF92DF92EF92B4
:1000A000FF920F931F93CF93DF93EC018E818823F0
:1000B00069F1C884D12C0C811D810F2EFBEEEF2E2F
:1000C000FFE0FF2EF02D20E030E0A90160E070E0BD
:1000D000CB010E94A90D2E8130E040E050E069E0A4
:1000E0007DE380E090E00E94FD0FCA01B901C12CC0
:1000F000D12C0F2EFDE4EF2EF0E0FF2EF02D8E011F
:1001000020E030E0A9010E94A90D12C0C884D12CC2
:100110000C811D810F2EF7EFEF2EFFE0FF2EF02D4B
:1001200020E030E0A90160E070E0CB010E94A90D61
:10013000DF91CF911F910F91FF90EF90DF90CF90C3
:100140000895FC018185811108C08681882341F0D2
:100150008783168281E0818708958681811106C098
:1001600087818683CF010E944D0008958781868311
:1001700017821186CF010E944D000895FC019681DF
:10018000933650F4911106C0CF0121E026830E94DE
:100190004D0008959F5F96830895FC0196819923F1
:1001A00011F0915096830895CF92DF92EF92FF92D3
:1001B0000F931F93672BA1F4FC0107811085C12CBD
:1001C000D12C0F2EFEEBEF2EF0E0FF2EF02D20E0D5
:1001D00030E0A90160E070E0CB010E94A90D13C0DE
:1001E000FC0101851285C12CD12C0F2EFEEBEF2EC8
:1001F000F0E0FF2EF02D20E030E0A90160E070E09B
:10020000CB010E94A90D1F910F91FF90EF90DF90FD
:10021000CF900895AF92BF92CF92DF92EF92FF926C
:100220000F931F93CF93DF931E9936C0FC01238554
:10023000211132C05B016B010F2EF4EDEF2EF0E0C7
:10024000FF2EF02D8C0120E030E0A90160E070E08D
:10025000CB010E94A90DC12CD12C0F2EF1EBEF2E5A
:10026000F2E0FF2EF02D20E030E0A90160E070E028
:10027000CB010E94A90D65010F2EFAE0EF2EF1E0EF
:10028000FF2EF02D20E030E0A90164ED70E380E066
:1002900090E00E94A90D03C021E0FC012387DF91BB
:1002A000CF911F910F91FF90EF90DF90CF90BF9073
:1002B000AF900895CF92DF92EF92FF920F931F932A
:1002C000672BA1F4FC0107811085C12CD12C0F2EC6
:1002D000FDECEF2EF0E0FF2EF02D20E030E0A90144
:1002E00060E070E0CB010E94A90D13C0FC01018504
:1002F0001285C12CD12C0F2EFDECEF2EF0E0FF2E3D
:10030000F02D20E030E0A90160E070E0CB010E9418
:10031000A90D1F910F91FF90EF90DF90CF9008955E
:10032000AF92BF92CF92DF92EF92FF920F931F9303
:10033000CF93DF931F9936C0FC012385211132C072
:100340005B016B010F2EFAE5EF2EF1E0FF2EF02D91
:100350008C0120E030E0A90160E070E0CB010E9458
:10036000A90DC12CD12C0F2EF1EBEF2EF2E0FF2EB8
:10037000F02D20E030E0A90160E070E0CB010E94A8
:10038000A90D65010F2EF0E9EF2EF1E0FF2EF02D03
:1003900020E030E0A90164ED70E380E090E00E948D
:1003A000A90D03C021E0FC012387DF91CF911F91AC
:1003B0000F91FF90EF90DF90CF90BF90AF90089596
:1003C000CF93DF93CDB7DEB764970FB6F894DEBF57
:1003D0000FBECDBF80ED860F8A3090F581E595E1A7
:1003E0009A83898380E191E09C838B8381EE91E104
:1003F0009E838D8381EB91E198878F8380EB95E0DD
:100400009A87898781EB94E19C878B8781EF94E1C0
:100410009E878D8780E191E1988B8F8781EF95E1B1
:100420009A8B898B80EB95E19C8B8B8BE62FF0E090
:10043000F097EE0FFF1FEC0FFD1F8181928102C02C
:1004400080E090E064960FB6F894DEBF0FBECDBF9B
:10045000DF91CF910895CF93DF9346305105E0F5BA
:10046000EA010E94E001FE01F595E795C0FD11C08B
:10047000592F52955F70492F4F709C0132952295EC
:100480002F7023273F702327322F3F708F7090EFFC
:1004900010C0592F507F9C01329522952F70232731
:1004A0003F702327422F407F382F307F8295807FF7
:1004B0009FE0FF27E451FF4F20812923252B208334
:1004C00025812923242B258322852923232B228759
:1004D00027859223892B8787DF91CF9108958F926B
:1004E0009F92AF92BF92CF92DF92EF92FF920F93C3
:1004F0001F93CF93DF938C014A015B01E901CB018C
:10050000BA0124E630E040E050E00E94FD0F0F2EDB
:10051000FAE0CF2ED12CE12CF12CF02DA701960181
:100520000E94FD0F60E3620FAE01C8010E942B0222
:100530002196C501B401A70196010E94FD0F605DDF
:10054000AE01C8010E942B02DF91CF911F910F9144
:10055000FF90EF90DF90CF90BF90AF909F908F90E3
:100560000895CF93DF93EC01EF81F885468150E049
:1005700060E070E020E030E00E946F02E985FA85DB
:10058000468150E060E070E024E030E0CE010E945F
:100590006F028E81811109C0ECEEF0E080818460F1
:1005A000808380818F7B808308C0ECEEF0E08081C7
:1005B0008064808380818B7F8083DF91CF910895D9
:1005C00090ED95B98CE08EB920E52DB990936C0033
:1005D00080936B0080EC8DBB089580EC8093E400E9
:1005E00087EB8093E50087E08093E6008FE08093BF
:1005F000E7000895CF92DF92EF92FF920F931F933F
:10060000CF93DF93EC010C811D81C12CD12C0F2ED7
:10061000F1EBEF2EF2E0FF2EF02D20E030E0A9010B
:1006200060E070E0CB010E94A90D1E9917C0EC811B
:10063000FD8113860C811D81F801C680D12C0F2EFF
:10064000FAE0EF2EF1E0FF2EF02D20E030E0A901DE
:1006500060E070E0CB010E94A90D18C01F9916C080
:10066000EC81FD8113860C811D81F801C680D12C9F
:100670000F2EF0E9EF2EF1E0FF2EF02D20E030E01C
:10068000A90160E070E0CB010E94A90D1C992AC06D
:10069000EC81FD818681811113C007811085C12CF9
:1006A000D12C0F2EF1EAEF2EF0E0FF2EF02D20E0FE
:1006B00030E0A90160E070E0CB010E94A90D12C0FA
:1006C00001851285C12CD12C0F2EF1EAEF2EF0E01E
:1006D000FF2EF02D20E030E0A90160E070E0CB01BA
:1006E0000E94A90D629904C0EC81FD81168206C0AA
:1006F000639904C0EC81FD8181E08683DF91CF9115
:100700001F910F91FF90EF90DF90CF900895E1E659
:10071000F0E080E8808310820E94ED020E94E002F7
:1007200041E06AEF72E080E091E00E94B50F42E0A4
:100730006AEF72E080E091E00E94B50F40E050E087
:1007400061EB72E087E091E00E94CF0F0895CF93B4
:10075000DF9300D000D0CDB7DEB787E292E027E08C
:1007600033E0FC0170979183808340968217930752
:10077000C1F71092F8021092F702E2E6F1E08FE77B
:1007800091E0918380838CE991E0968F858FA9EB2E
:10079000B1E0B3AFA2AF1D921C92FA83E983E3E606
:1007A000F3E0FC83EB8389819A8106960E943E10D8
:1007B0008B819C81E981FA81978B868B918F808FC9
:1007C00087E49FE0948F838F158214827D96FA834D
:1007D000E983EB81FC81E05AFF4FFC83EB83898145
:1007E0009A81865D9140F9F6EAEFF1E0118210827C
:1007F0001582148213821282E1E6F0E080E88083A1
:100800001082109285001092840084E08093810011
:1008100081E080936F000F900F900F900F90DF9109
:10082000CF910895CF93DF9300D0CDB7DEB79A83F1
:100830008983809127019091280106960E943E109D
:10084000892B59F489819A819093280180932701FB
:1008500061E070E006960E945E100F900F90DF91AD
:10086000CF9108950F931F93CF93DF93E0913C01B5
:10087000F0913D01309761F180912B0190912C0115
:10088000009731F1C0912901D0912A01AA81BB8141
:10089000109779F0468157816085718516960D9184
:1008A0001D912D913C911997401B510B620B730BBD
:1008B0007AF4FC012081318130932C0120932B01AB
:1008C000D183C08390932A01809329010E9412044E
:1008D000DF91CF911F910F9108951F920F920FB644
:1008E0000F9211242F933F934F935F936F937F93B6
:1008F0008F939F93AF93BF93EF93FF932091340116
:10090000309135014091840050918500C901032E3A
:10091000000CAA0BBB0BDC019927882760E070E074
:10092000842B952BA62BB72B809336019093370100
:10093000A0933801B0933901B09B1BC04091840053
:1009400050918500C9010196092E000CAA0BBB0B22
:10095000DC019927882760E070E0842B952BA62B7B
:10096000B72B8093360190933701A0933801B09351
:100970003901E091D601F091D701309739F060E06C
:1009800070E080913E0190913F0109950E943204F0
:10099000FF91EF91BF91AF919F918F917F916F9157
:1009A0005F914F913F912F910F900FBE0F901F902D
:1009B00018951F920F920FB60F9211242F933F9309
:1009C0004F935F936F937F938F939F93AF93BF9357
:1009D000EF93FF93209134013091350140918400D1
:1009E00050918500C901032E000CAA0BBB0BDC0142
:1009F0009927882760E070E0842B952BA62BB72BD6
:100A00008093360190933701A0933801B093390158
:100A1000B09B1BC04091840050918500C901019694
:100A2000092E000CAA0BBB0BDC019927882760E07C
:100A300070E0842B952BA62BB72B809336019093D7
:100A40003701A0933801B0933901E091D801F091BA
:100A5000D901309739F061E070E0809140019091C8
:100A6000410109950E943204FF91EF91BF91AF912E
:100A70009F918F917F916F915F914F913F912F91B6
:100A80000F900FBE0F901F9018951F920F920FB6E8
:100A90000F9211242F933F934F935F936F937F9304
:100AA0008F939F93AF93BF93EF93FF932091340164
:100AB000309135014091840050918500C901032E89
:100AC000000CAA0BBB0BDC019927882760E070E0C3
:100AD000842B952BA62BB72B80933601909337014F
:100AE000A0933801B0933901B09B1BC040918400A2
:100AF00050918500C9010196092E000CAA0BBB0B71
:100B0000DC019927882760E070E0842B952BA62BC9
:100B1000B72B8093360190933701A0933801B0939F
:100B20003901E091DA01F091DB01309739F062E0B0
:100B300070E0809142019091430109950E94320436
:100B4000FF91EF91BF91AF919F918F917F916F91A5
:100B50005F914F913F912F910F900FBE0F901F907B
:100B600018951F920F920FB60F9211242F933F9357
:100B70004F935F936F937F938F939F93AF93BF93A5
:100B8000EF93FF932091340130913501409184001F
:100B900050918500C901032E000CAA0BBB0BDC0190
:100BA0009927882760E070E0842B952BA62BB72B24
:100BB0008093360190933701A0933801B0933901A7
:100BC000B09B1BC04091840050918500C9010196E3
:100BD000092E000CAA0BBB0BDC019927882760E0CB
:100BE00070E0842B952BA62BB72B80933601909326
:100BF0003701A0933801B0933901E091DC01F09105
:100C0000DD01309739F063E070E08091440190910C
:100C1000450109950E943204FF91EF91BF91AF9178
:100C20009F918F917F916F915F914F913F912F9104
:100C30000F900FBE0F901F9018951F920F920FB636
:100C40000F9211242F933F934F935F936F937F9352
:100C50008F939F93AF93BF93EF93FF9320913401B2
:100C6000309135014091840050918500C901032ED7
:100C7000000CAA0BBB0BDC019927882760E070E011
:100C8000842B952BA62BB72B80933601909337019D
:100C9000A0933801B0933901B09B1BC040918400F0
:100CA00050918500C9010196092E000CAA0BBB0BBF
:100CB000DC019927882760E070E0842B952BA62B18
:100CC000B72B8093360190933701A0933801B093EE
:100CD0003901E091DE01F091DF01309739F064E0F5
:100CE00070E0809146019091470109950E9432047D
:100CF000FF91EF91BF91AF919F918F917F916F91F4
:100D00005F914F913F912F910F900FBE0F901F90C9
:100D100018951F920F920FB60F9211242F933F93A5
:100D20004F935F936F937F938F939F93AF93BF93F3
:100D3000EF93FF932091340130913501409184006D
:100D400050918500C901032E000CAA0BBB0BDC01DE
:100D50009927882760E070E0842B952BA62BB72B72
:100D60008093360190933701A0933801B0933901F5
:100D7000B09B1BC04091840050918500C901019631
:100D8000092E000CAA0BBB0BDC019927882760E019
:100D900070E0842B952BA62BB72B80933601909374
:100DA0003701A0933801B0933901E091E001F0914F
:100DB000E101309739F065E070E080914801909151
:100DC000490109950E943204FF91EF91BF91AF91C3
:100DD0009F918F917F916F915F914F913F912F9153
:100DE0000F900FBE0F901F9018951F920F920FB685
:100DF0000F9211242F933F934F935F936F937F93A1
:100E00008F939F93AF93BF93EF93FF932091340100
:100E1000309135014091840050918500C901032E25
:100E2000000CAA0BBB0BDC019927882760E070E05F
:100E3000842B952BA62BB72B8093360190933701EB
:100E4000A0933801B0933901B09B1BC0409184003E
:100E500050918500C9010196092E000CAA0BBB0B0D
:100E6000DC019927882760E070E0842B952BA62B66
:100E7000B72B8093360190933701A0933801B0933C
:100E80003901E091E201F091E301309739F066E039
:100E900070E080914A0190914B0109950E943204C3
:100EA000FF91EF91BF91AF919F918F917F916F9142
:100EB0005F914F913F912F910F900FBE0F901F9018
:100EC00018951F920F920FB60F9211242F933F93F4
:100ED0004F935F936F937F938F939F93AF93BF9342
:100EE000EF93FF93209134013091350140918400BC
:100EF00050918500C901032E000CAA0BBB0BDC012D
:100F00009927882760E070E0842B952BA62BB72BC0
:100F10008093360190933701A0933801B093390143
:100F2000B09B1BC04091840050918500C90101967F
:100F3000092E000CAA0BBB0BDC019927882760E067
:100F400070E0842B952BA62BB72B809336019093C2
:100F50003701A0933801B0933901E091E401F09199
:100F6000E501309739F067E070E080914C01909195
:100F70004D0109950E943204FF91EF91BF91AF910D
:100F80009F918F917F916F915F914F913F912F91A1
:100F90000F900FBE0F901F9018951F920F920FB6D3
:100FA0000F9211242F933F934F935F936F937F93EF
:100FB0008F939F93AF93BF93EF93FF93209134014F
:100FC000309135014091840050918500C901032E74
:100FD000000CAA0BBB0BDC019927882760E070E0AE
:100FE000842B952BA62BB72B80933601909337013A
:100FF000A0933801B0933901B09B1BC0409184008D
:1010000050918500C9010196092E000CAA0BBB0B5B
:10101000DC019927882760E070E0842B952BA62BB4
:10102000B72B8093360190933701A0933801B0938A
:101030003901E091E601F091E701309739F068E07D
:1010400070E080914E0190914F0109950E94320409
:10105000FF91EF91BF91AF919F918F917F916F9190
:101060005F914F913F912F910F900FBE0F901F9066
:1010700018951F920F920FB60F9211242F933F9342
:101080004F935F936F937F938F939F93AF93BF9390
:10109000EF93FF932091340130913501409184000A
:1010A00050918500C901032E000CAA0BBB0BDC017B
:1010B0009927882760E070E0842B952BA62BB72B0F
:1010C0008093360190933701A0933801B093390192
:1010D000B09B1BC04091840050918500C9010196CE
:1010E000092E000CAA0BBB0BDC019927882760E0B6
:1010F00070E0842B952BA62BB72B80933601909311
:101100003701A0933801B0933901E091E801F091E3
:10111000E901309739F069E070E0809150019091D9
:10112000510109950E943204FF91EF91BF91AF9157
:101130009F918F917F916F915F914F913F912F91EF
:101140000F900FBE0F901F9018951F920F920FB621
:101150000F9211242F933F934F935F936F937F933D
:101160008F939F93AF93BF93EF93FF93209134019D
:10117000309135014091840050918500C901032EC2
:10118000000CAA0BBB0BDC019927882760E070E0FC
:10119000842B952BA62BB72B809336019093370188
:1011A000A0933801B0933901B09B1BC040918400DB
:1011B00050918500C9010196092E000CAA0BBB0BAA
:1011C000DC019927882760E070E0842B952BA62B03
:1011D000B72B8093360190933701A0933801B093D9
:1011E0003901E091EA01F091EB01309739F06AE0C2
:1011F00070E0809152019091530109950E94320450
:10120000FF91EF91BF91AF919F918F917F916F91DE
:101210005F914F913F912F910F900FBE0F901F90B4
:1012200018951F920F920FB60F9211242F933F9390
:101230004F935F936F937F938F939F93AF93BF93DE
:10124000EF93FF9320913401309135014091840058
:1012500050918500C901032E000CAA0BBB0BDC01C9
:101260009927882760E070E0842B952BA62BB72B5D
:101270008093360190933701A0933801B0933901E0
:10128000B09B1BC04091840050918500C90101961C
:10129000092E000CAA0BBB0BDC019927882760E004
:1012A00070E0842B952BA62BB72B8093360190935F
:1012B0003701A0933801B0933901E091EC01F0912E
:1012C000ED01309739F06BE070E08091540190911E
:1012D000550109950E943204FF91EF91BF91AF91A2
:1012E0009F918F917F916F915F914F913F912F913E
:1012F0000F900FBE0F901F9018951F920F920FB670
:101300000F9211242F933F934F935F936F937F938B
:101310008F939F93AF93BF93EF93FF9320913401EB
:10132000309135014091840050918500C901032E10
:10133000000CAA0BBB0BDC019927882760E070E04A
:10134000842B952BA62BB72B8093360190933701D6
:10135000A0933801B0933901B09B1BC04091840029
:1013600050918500C9010196092E000CAA0BBB0BF8
:10137000DC019927882760E070E0842B952BA62B51
:10138000B72B8093360190933701A0933801B09327
:101390003901E091EE01F091EF01309739F06CE006
:1013A00070E0809156019091570109950E94320496
:1013B000FF91EF91BF91AF919F918F917F916F912D
:1013C0005F914F913F912F910F900FBE0F901F9003
:1013D00018951F920F920FB60F9211242F933F93DF
:1013E0004F935F936F937F938F939F93AF93BF932D
:1013F000EF93FF93209134013091350140918400A7
:1014000050918500C901032E000CAA0BBB0BDC0117
:101410009927882760E070E0842B952BA62BB72BAB
:101420008093360190933701A0933801B09339012E
:10143000B09B1BC04091840050918500C90101966A
:10144000092E000CAA0BBB0BDC019927882760E052
:1014500070E0842B952BA62BB72B809336019093AD
:101460003701A0933801B0933901E091F001F09178
:10147000F101309739F06DE070E080915801909162
:10148000590109950E943204FF91EF91BF91AF91EC
:101490009F918F917F916F915F914F913F912F918C
:1014A0000F900FBE0F901F9018951F920F920FB6BE
:1014B0000F9211242F933F934F935F936F937F93DA
:1014C0008F939F93AF93BF93EF93FF93209134013A
:1014D000309135014091840050918500C901032E5F
:1014E000000CAA0BBB0BDC019927882760E070E099
:1014F000842B952BA62BB72B809336019093370125
:10150000A0933801B0933901B09B1BC04091840077
:1015100050918500C9010196092E000CAA0BBB0B46
:10152000DC019927882760E070E0842B952BA62B9F
:10153000B72B8093360190933701A0933801B09375
:101540003901E091F201F091F301309739F06EE04A
:1015500070E080915A0190915B0109950E943204DC
:10156000FF91EF91BF91AF919F918F917F916F917B
:101570005F914F913F912F910F900FBE0F901F9051
:1015800018951F920F920FB60F9211242F933F932D
:101590004F935F936F937F938F939F93AF93BF937B
:1015A000EF93FF93209134013091350140918400F5
:1015B00050918500C901032E000CAA0BBB0BDC0166
:1015C0009927882760E070E0842B952BA62BB72BFA
:1015D0008093360190933701A0933801B09339017D
:1015E000B09B1BC04091840050918500C9010196B9
:1015F000092E000CAA0BBB0BDC019927882760E0A1
:1016000070E0842B952BA62BB72B809336019093FB
:101610003701A0933801B0933901E091F401F091C2
:10162000F501309739F06FE070E080915C019091A6
:101630005D0109950E943204FF91EF91BF91AF9136
:101640009F918F917F916F915F914F913F912F91DA
:101650000F900FBE0F901F9018951F920F920FB60C
:101660000F9211242F933F934F935F936F937F9328
:101670008F939F93AF93BF93EF93FF932091340188
:10168000309135014091840050918500C901032EAD
:10169000000CAA0BBB0BDC019927882760E070E0E7
:1016A000842B952BA62BB72B809336019093370173
:1016B000A0933801B0933901B09B1BC040918400C6
:1016C00050918500C9010196092E000CAA0BBB0B95
:1016D000DC019927882760E070E0842B952BA62BEE
:1016E000B72B8093360190933701A0933801B093C4
:1016F0003901E091F601F091F701309739F060E19E
:1017000070E080915E0190915F0109950E94320422
:10171000FF91EF91BF91AF919F918F917F916F91C9
:101720005F914F913F912F910F900FBE0F901F909F
:1017300018951F920F920FB60F9211242F933F937B
:101740004F935F936F937F938F939F93AF93BF93C9
:10175000EF93FF9320913401309135014091840043
:1017600050918500C901032E000CAA0BBB0BDC01B4
:101770009927882760E070E0842B952BA62BB72B48
:101780008093360190933701A0933801B0933901CB
:10179000B09B1BC04091840050918500C901019607
:1017A000092E000CAA0BBB0BDC019927882760E0EF
:1017B00070E0842B952BA62BB72B8093360190934A
:1017C0003701A0933801B0933901E091F801F0910D
:1017D000F901309739F061E170E0809160019091FA
:1017E000610109950E943204FF91EF91BF91AF9181
:1017F0009F918F917F916F915F914F913F912F9129
:101800000F900FBE0F901F901895EF92FF920F93BD
:101810001F93CF93DF937B01EB01A881B9811097D0
:1018200061F1FC01068117812085318516964D9165
:101830005D916D917C91199704171507260737075D
:1018400014F41BC0DF01ED91FC911197309749F022
:10185000468157816085718504171507260737076C
:101860008CF7EC01F983E883109721F4F701918359
:10187000808307C08D939C9304C0EC01B983A88337
:10188000F5CFDF91CF911F910F91FF90EF900895C9
:10189000EF92FF920F931F93CF93DF937B01EB01A6
:1018A000A881B981109761F1FC0102811381248123
:1018B000358112964D915D916D917C91159704172C
:1018C00015072607370714F41BC0DF01ED91FC91C3
:1018D0001197309749F042815381648175810417D3
:1018E0001507260737078CF7EC01F983E883109773
:1018F00021F4F7019183808307C08D939C9304C0EA
:10190000EC01B983A883F5CFDF91CF911F910F919F
:10191000FF90EF900895DC01ED91FC9111973097C5
:1019200059F48FEF8093EC008093ED008093EE00EC
:1019300081E083BF8895FDCF208131812D933C9339
:10194000CF0108951F920F920FB60F9211242F937B
:101950003F934F935F936F937F938F939F93EF93F7
:10196000FF93809134019091350101969093350158
:1019700080933401E0913A01F0913B01309701F1FD
:10198000428153816481758186179707C9F4CA0122
:101990002091840030918500421B530B413051054A
:1019A00029F480918400909185000196909389009C
:1019B00080938800EFE6F0E080818260808305C03C
:1019C000EFE6F0E080818D7F8083FF91EF919F9122
:1019D0008F917F916F915F914F913F912F910F90D8
:1019E0000FBE0F901F9018951F920F920FB60F9277
:1019F0001124CF92DF92EF92FF922F933F934F9358
:101A00005F936F937F938F939F93AF93BF93EF9366
:101A1000FF93C0903401D090350120918400309123
:101A20008500B0990FC00D2C000CEE08FF08D60100
:101A3000992788276901E12CF12CC82AD92AEA2A9A
:101A4000FB2A15C020918400309185008FEFC81AC1
:101A5000D80A0D2C000CEE08FF08D601992788271C
:101A60006901E12CF12CC82AD92AEA2AFB2AE09143
:101A70003A01F0913B01309709F442C08281938191
:101A8000A481B5818C199D09AE09BF0918161906E4
:101A90001A061B06ECF18AE391E00E948B0C6CE3C2
:101AA00071E00E94050CE0913A01F0913B01309702
:101AB00039F182819381A481B5818C199D09AE0988
:101AC000BF09181619061A061B062CF721C09C011F
:101AD0004091840050918500841B950B019731F44F
:101AE00020918400309185002F5F3F4F3093890013
:101AF00020938800EFE6F0E080818260808305C05B
:101B0000EFE6F0E080818D7F80830E9432040CC07C
:101B100082819381A481B581209134013091350176
:101B20002A173B0769F7D3CFFF91EF91BF91AF9190
:101B30009F918F917F916F915F914F913F912F91E5
:101B4000FF90EF90DF90CF900F900FBE0F901F90FF
:101B500018953F924F925F926F927F928F929F92D1
:101B6000AF92BF92CF92DF92EF92FF920F931F93AB
:101B7000CF93DF932B013C0149015A018FB7807845
:101B8000382EF8948DE291E00E948B0CEC011B87BB
:101B90000A87FD86EC86DF86CE86332061F0E091F1
:101BA0002701F09128010280F381E02D8281938149
:101BB000A481B58108C08091360190913701A09130
:101BC0003801B0913901480E591E6A1E7B1E4A82A7
:101BD0005B826C827D82181419041A041B0444F081
:101BE0000F2E88248A94982CA82CFFE7BF2EF02D66
:101BF000840C951CA61CB71C8E829F82A886B98671
:101C0000809134019091350140918400509185007C
:101C1000B0990EC0092E000CAA0BBB0BDC01992752
:101C2000882760E070E0842B952BA62BB72B13C080
:101C300020918400309185000196092E000CAA0B9A
:101C4000BB0BDC0199278827A90160E070E0842B99
:101C5000952BA62BB72B481A590A6A0A7B0A14142B
:101C6000150416041704ACF56AE371E0CE010E9476
:101C7000480CE0913A01F0913B01309721F18281CB
:101C80009381A481B58120913401309135012A17C7
:101C90003B07C9F49C014091840050918500841B4E
:101CA000950B019731F420918400309185002F5FCE
:101CB0003F4F3093890020938800EFE6F0E0808169
:101CC0008260808341C0EFE6F0E080818D7F808379
:101CD0003BC06CE371E0CE010E94050C3320B9F1EA
:101CE00080912B0190912C01009781F1E0912901C5
:101CF000F0912A0120913C0130913D010281138134
:101D0000D90116964D915D916D917C911997D801ED
:101D100016960D911D912D913C911997401B510BD9
:101D2000620B730B9AF4DC012D913C911197309367
:101D30002C0120932B01ED93FC9390932A01809327
:101D400029010E94120402C0332009F07894CE01C8
:101D5000DF91CF911F910F91FF90EF90DF90CF9087
:101D6000BF90AF909F908F907F906F905F904F90BB
:101D70003F900895CF92DF92EF92FF920F931F93BF
:101D8000CF93DF93EC017B016A011FB71078F894C1
:101D9000A881B981109761F11496ED91FC91159786
:101DA000309741F0A081B1811496ED91FC91159787
:101DB0003097C1F720912701309128012A173B075E
:101DC00021F0112309F43DC007C0112309F43CC0E0
:101DD00078948FEF9FEF52C08A819B810097D1F159
:101DE000FC011582148236C0789480E090E046C0F1
:101DF000809127019091280199838883112329F0EC
:101E00008A819B81019709F07894B601CE01F70190
:101E10000995F82E092F8FB7F894198218828A81B4
:101E20009B818230910538F01B821A82FC01158259
:101E300014820E941204112351F078948F2D902F58
:101E40001DC08FEF9FEF1AC08FEF9FEF17C08F2D30
:101E5000902F14C03B832A83F901D583C483CD011D
:101E60000E941204E0912701F09128018281938160
:101E7000892B09F4B9CFF983E883C2CFDF91CF91E1
:101E80001F910F91FF90EF90DF90CF9008950091F8
:101E90002701109128018CE391E00E948B0CEC014A
:101EA000D80113969C938E93129778944E855F85F4
:101EB0006C857D858A859B850E94BA0E8FB7F894C4
:101EC00080912D0190912E0199838883D0932E01CA
:101ED000C0932D01E0912901F0912A010081118127
:101EE000E8012A813B81A0913C01B0913D0110970E
:101EF000C1F02115310559F216968D919D910D90E5
:101F0000BC91A02DE9014E815F8168857985841B94
:101F1000950BA60BB70B181619061A061B060CF024
:101F2000B6CF10932A010093290180912B01909143
:101F30002C0191838083F0932C01E0932B01A091DD
:101F40002901B0912A011496ED91FC9115973097D3
:101F500041F0A081B1811496ED91FC9115973097D5
:101F6000C1F7CD010E94120492CF4231B8F42FB7CD
:101F7000F89450E0440F551FFA01E25CFE4F918344
:101F80008083FA01EA52FE4F7183608341E050E0A2
:101F9000FC015383428322230CF4789408958C012E
:101FA0007B016A018FB7F8940E94A7037894E1142B
:101FB000F10441F020E030E0A90160E070E0CB01E5
:101FC0000E94A90D8FB7F8940E943204789481E0A2
:101FD00083BF8895FDCF611105C09EB180E489273C
:101FE0008EB908959EB180E189278EB90895611157
:101FF00002C07698089574980895052E97FB1EF4F4
:1020000000940E94141057FD07D00E941C1007FC7A
:1020100003D04EF40C9414105095409530952195B2
:102020003F4F4F4F5F4F0895909580957095619504
:102030007F4F8F4F9F4F0895A1E21A2EAA1BBB1B03
:10204000FD010DC0AA1FBB1FEE1FFF1FA217B30784
:10205000E407F50720F0A21BB30BE40BF50B661F9A
:10206000771F881F991F1A9469F76095709580955E
:1020700090959B01AC01BD01CF010895DC012D922B
:102080003D924D925D926D927D928D929D92AD9218
:10209000BD92CD92DD92ED92FD920D931D93CD9365
:1020A000DD93FF91EF918DB78D938EB78D938FB7A1
:1020B0008D93ED93FD93882799270994DC01CB013B
:1020C00081309105811D2D903D904D905D906D90DA
:1020D0007D908D909D90AD90BD90CD90DD90ED90D8
:1020E000FD900D911D91CD91DD91ED91FD910D90A2
:1020F000F894FEBF0FBEEDBFED91FD910994F894E9
:02210000FFCF0F
:1021020000000000070101000000000100001D01A5
:102112001301010000000030010000010000000076
:1021220000300100000000FA01FA0162011702000A
:00000001FF
