:100000000C942E000C94D3000C945B010C94E3012F
:100010000C946B020C94F3020C944B000C94AB0CFC
:100020000C944B000C941D0C0C947B030C94030457
:100030000C948B040C9413050C949B050C942306D0
:100040000C94AB060C9433070C94BB070C94430838
:100050000C94CB080C9453090C94DB0911241FBE9B
:10006000CFEFD4E0DEBFCDBF11E0A0E0B1E0EEEA1B
:10007000F3E302C005900D92AA32B107D9F724E04C
:10008000AAE2B1E001C01D92A138B207E1F70E94D7
:100090004D000C94D5190C940000CF93DF93CDB78D
:1000A000DEB70E946E000E948A0041E06EED76E1AC
:1000B00084E191E00E94861342E06DE277E184E101
:1000C00091E00E94861340E050E061E776E184E130
:1000D00091E00E94C913DF91CF910895CF93DF93F0
:1000E000CDB7DEB784EE90E020ECFC01208385EEF6
:1000F00090E027EBFC01208386EE90E027E0FC01F6
:10010000208387EE90E02FE0FC0120830000DF9148
:10011000CF910895CF93DF93CDB7DEB785E290E01E
:1001200020EDFC0120838EE290E02CE0FC01208396
:100130008CE690E020EDFC0120838BE690E02CE043
:10014000FC0120838DE390E020ECFC012083000083
:10015000DF91CF910895CF93DF9300D01F92CDB759
:10016000DEB79A8389836B838B81882359F48FEE62
:1001700090E02FEE30E0F901308121E02327FC01EF
:1001800020830AC08DEE90E02DEE30E0F901308141
:1001900022E02327FC01208300000F900F900F9096
:1001A000DF91CF9108951F920F9200905F000F9200
:1001B00011242F933F934F935F936F937F938F936C
:1001C0009F93AF93BF93EF93FF93CF93DF93CDB7FD
:1001D000DEB78091360190913701092E000CAA0BF1
:1001E000BB0BAC013327222784E890E0FC0180811F
:1001F0009181CC01A0E0B0E0822B932BA42BB52BF6
:100200008093320190933301A0933401B093350170
:1002100086E390E0FC018081882F90E0817099272F
:10022000892B01F180913601909137010196092EB9
:10023000000CAA0BBB0BAC013327222784E890E00B
:10024000FC0180819181CC01A0E0B0E0822B932B56
:10025000A42BB52B8093320190933301A0933401EA
:10026000B09335018091D0019091D101892B61F03B
:100270002091D0013091D1018091380190913901C4
:1002800060E070E0F90109950E94780E0000DF91AE
:10029000CF91FF91EF91BF91AF919F918F917F91FE
:1002A0006F915F914F913F912F910F9000925F005E
:1002B0000F901F9018951F920F9200905F000F9261
:1002C00011242F933F934F935F936F937F938F935B
:1002D0009F93AF93BF93EF93FF93CF93DF93CDB7EC
:1002E000DEB78091360190913701092E000CAA0BE0
:1002F000BB0BAC013327222784E890E0FC0180810E
:100300009181CC01A0E0B0E0822B932BA42BB52BE4
:100310008093320190933301A0933401B09335015F
:1003200086E390E0FC018081882F90E0817099271E
:10033000892B01F180913601909137010196092EA8
:10034000000CAA0BBB0BAC013327222784E890E0FA
:10035000FC0180819181CC01A0E0B0E0822B932B45
:10036000A42BB52B8093320190933301A0933401D9
:10037000B09335018091D2019091D301892B61F026
:100380002091D2013091D30180913A0190913B01AB
:1003900061E070E0F90109950E94780E0000DF919C
:1003A000CF91FF91EF91BF91AF919F918F917F91ED
:1003B0006F915F914F913F912F910F9000925F004D
:1003C0000F901F9018951F920F9200905F000F9250
:1003D00011242F933F934F935F936F937F938F934A
:1003E0009F93AF93BF93EF93FF93CF93DF93CDB7DB
:1003F000DEB78091360190913701092E000CAA0BCF
:10040000BB0BAC013327222784E890E0FC018081FC
:100410009181CC01A0E0B0E0822B932BA42BB52BD3
:100420008093320190933301A0933401B09335014E
:1004300086E390E0FC018081882F90E0817099270D
:10044000892B01F180913601909137010196092E97
:10045000000CAA0BBB0BAC013327222784E890E0E9
:10046000FC0180819181CC01A0E0B0E0822B932B34
:10047000A42BB52B8093320190933301A0933401C8
:10048000B09335018091D4019091D501892B61F011
:100490002091D4013091D50180913C0190913D0192
:1004A00062E070E0F90109950E94780E0000DF918A
:1004B000CF91FF91EF91BF91AF919F918F917F91DC
:1004C0006F915F914F913F912F910F9000925F003C
:1004D0000F901F9018951F920F9200905F000F923F
:1004E00011242F933F934F935F936F937F938F9339
:1004F0009F93AF93BF93EF93FF93CF93DF93CDB7CA
:10050000DEB78091360190913701092E000CAA0BBD
:10051000BB0BAC013327222784E890E0FC018081EB
:100520009181CC01A0E0B0E0822B932BA42BB52BC2
:100530008093320190933301A0933401B09335013D
:1005400086E390E0FC018081882F90E081709927FC
:10055000892B01F180913601909137010196092E86
:10056000000CAA0BBB0BAC013327222784E890E0D8
:10057000FC0180819181CC01A0E0B0E0822B932B23
:10058000A42BB52B8093320190933301A0933401B7
:10059000B09335018091D6019091D701892B61F0FC
:1005A0002091D6013091D70180913E0190913F0179
:1005B00063E070E0F90109950E94780E0000DF9178
:1005C000CF91FF91EF91BF91AF919F918F917F91CB
:1005D0006F915F914F913F912F910F9000925F002B
:1005E0000F901F9018951F920F9200905F000F922E
:1005F00011242F933F934F935F936F937F938F9328
:100600009F93AF93BF93EF93FF93CF93DF93CDB7B8
:10061000DEB78091360190913701092E000CAA0BAC
:10062000BB0BAC013327222784E890E0FC018081DA
:100630009181CC01A0E0B0E0822B932BA42BB52BB1
:100640008093320190933301A0933401B09335012C
:1006500086E390E0FC018081882F90E081709927EB
:10066000892B01F180913601909137010196092E75
:10067000000CAA0BBB0BAC013327222784E890E0C7
:10068000FC0180819181CC01A0E0B0E0822B932B12
:10069000A42BB52B8093320190933301A0933401A6
:1006A000B09335018091D8019091D901892B61F0E7
:1006B0002091D8013091D901809140019091410160
:1006C00064E070E0F90109950E94780E0000DF9166
:1006D000CF91FF91EF91BF91AF919F918F917F91BA
:1006E0006F915F914F913F912F910F9000925F001A
:1006F0000F901F9018951F920F9200905F000F921D
:1007000011242F933F934F935F936F937F938F9316
:100710009F93AF93BF93EF93FF93CF93DF93CDB7A7
:10072000DEB78091360190913701092E000CAA0B9B
:10073000BB0BAC013327222784E890E0FC018081C9
:100740009181CC01A0E0B0E0822B932BA42BB52BA0
:100750008093320190933301A0933401B09335011B
:1007600086E390E0FC018081882F90E081709927DA
:10077000892B01F180913601909137010196092E64
:10078000000CAA0BBB0BAC013327222784E890E0B6
:10079000FC0180819181CC01A0E0B0E0822B932B01
:1007A000A42BB52B8093320190933301A093340195
:1007B000B09335018091DA019091DB01892B61F0D2
:1007C0002091DA013091DB01809142019091430147
:1007D00065E070E0F90109950E94780E0000DF9154
:1007E000CF91FF91EF91BF91AF919F918F917F91A9
:1007F0006F915F914F913F912F910F9000925F0009
:100800000F901F9018951F920F9200905F000F920B
:1008100011242F933F934F935F936F937F938F9305
:100820009F93AF93BF93EF93FF93CF93DF93CDB796
:10083000DEB78091360190913701092E000CAA0B8A
:10084000BB0BAC013327222784E890E0FC018081B8
:100850009181CC01A0E0B0E0822B932BA42BB52B8F
:100860008093320190933301A0933401B09335010A
:1008700086E390E0FC018081882F90E081709927C9
:10088000892B01F180913601909137010196092E53
:10089000000CAA0BBB0BAC013327222784E890E0A5
:1008A000FC0180819181CC01A0E0B0E0822B932BF0
:1008B000A42BB52B8093320190933301A093340184
:1008C000B09335018091DC019091DD01892B61F0BD
:1008D0002091DC013091DD0180914401909145012E
:1008E00066E070E0F90109950E94780E0000DF9142
:1008F000CF91FF91EF91BF91AF919F918F917F9198
:100900006F915F914F913F912F910F9000925F00F7
:100910000F901F9018951F920F9200905F000F92FA
:1009200011242F933F934F935F936F937F938F93F4
:100930009F93AF93BF93EF93FF93CF93DF93CDB785
:10094000DEB78091360190913701092E000CAA0B79
:10095000BB0BAC013327222784E890E0FC018081A7
:100960009181CC01A0E0B0E0822B932BA42BB52B7E
:100970008093320190933301A0933401B0933501F9
:1009800086E390E0FC018081882F90E081709927B8
:10099000892B01F180913601909137010196092E42
:1009A000000CAA0BBB0BAC013327222784E890E094
:1009B000FC0180819181CC01A0E0B0E0822B932BDF
:1009C000A42BB52B8093320190933301A093340173
:1009D000B09335018091DE019091DF01892B61F0A8
:1009E0002091DE013091DF01809146019091470115
:1009F00067E070E0F90109950E94780E0000DF9130
:100A0000CF91FF91EF91BF91AF919F918F917F9186
:100A10006F915F914F913F912F910F9000925F00E6
:100A20000F901F9018951F920F9200905F000F92E9
:100A300011242F933F934F935F936F937F938F93E3
:100A40009F93AF93BF93EF93FF93CF93DF93CDB774
:100A5000DEB78091360190913701092E000CAA0B68
:100A6000BB0BAC013327222784E890E0FC01808196
:100A70009181CC01A0E0B0E0822B932BA42BB52B6D
:100A80008093320190933301A0933401B0933501E8
:100A900086E390E0FC018081882F90E081709927A7
:100AA000892B01F180913601909137010196092E31
:100AB000000CAA0BBB0BAC013327222784E890E083
:100AC000FC0180819181CC01A0E0B0E0822B932BCE
:100AD000A42BB52B8093320190933301A093340162
:100AE000B09335018091E0019091E101892B61F093
:100AF0002091E0013091E1018091480190914901FC
:100B000068E070E0F90109950E94780E0000DF911D
:100B1000CF91FF91EF91BF91AF919F918F917F9175
:100B20006F915F914F913F912F910F9000925F00D5
:100B30000F901F9018951F920F9200905F000F92D8
:100B400011242F933F934F935F936F937F938F93D2
:100B50009F93AF93BF93EF93FF93CF93DF93CDB763
:100B6000DEB78091360190913701092E000CAA0B57
:100B7000BB0BAC013327222784E890E0FC01808185
:100B80009181CC01A0E0B0E0822B932BA42BB52B5C
:100B90008093320190933301A0933401B0933501D7
:100BA00086E390E0FC018081882F90E08170992796
:100BB000892B01F180913601909137010196092E20
:100BC000000CAA0BBB0BAC013327222784E890E072
:100BD000FC0180819181CC01A0E0B0E0822B932BBD
:100BE000A42BB52B8093320190933301A093340151
:100BF000B09335018091E2019091E301892B61F07E
:100C00002091E2013091E30180914A0190914B01E2
:100C100069E070E0F90109950E94780E0000DF910B
:100C2000CF91FF91EF91BF91AF919F918F917F9164
:100C30006F915F914F913F912F910F9000925F00C4
:100C40000F901F9018951F920F9200905F000F92C7
:100C500011242F933F934F935F936F937F938F93C1
:100C60009F93AF93BF93EF93FF93CF93DF93CDB752
:100C7000DEB78091360190913701092E000CAA0B46
:100C8000BB0BAC013327222784E890E0FC01808174
:100C90009181CC01A0E0B0E0822B932BA42BB52B4B
:100CA0008093320190933301A0933401B0933501C6
:100CB00086E390E0FC018081882F90E08170992785
:100CC000892B01F180913601909137010196092E0F
:100CD000000CAA0BBB0BAC013327222784E890E061
:100CE000FC0180819181CC01A0E0B0E0822B932BAC
:100CF000A42BB52B8093320190933301A093340140
:100D0000B09335018091E4019091E501892B61F068
:100D10002091E4013091E50180914C0190914D01C9
:100D20006AE070E0F90109950E94780E0000DF91F9
:100D3000CF91FF91EF91BF91AF919F918F917F9153
:100D40006F915F914F913F912F910F9000925F00B3
:100D50000F901F9018951F920F9200905F000F92B6
:100D600011242F933F934F935F936F937F938F93B0
:100D70009F93AF93BF93EF93FF93CF93DF93CDB741
:100D8000DEB78091360190913701092E000CAA0B35
:100D9000BB0BAC013327222784E890E0FC01808163
:100DA0009181CC01A0E0B0E0822B932BA42BB52B3A
:100DB0008093320190933301A0933401B0933501B5
:100DC00086E390E0FC018081882F90E08170992774
:100DD000892B01F180913601909137010196092EFE
:100DE000000CAA0BBB0BAC013327222784E890E050
:100DF000FC0180819181CC01A0E0B0E0822B932B9B
:100E0000A42BB52B8093320190933301A09334012E
:100E1000B09335018091E6019091E701892B61F053
:100E20002091E6013091E70180914E0190914F01B0
:100E30006BE070E0F90109950E94780E0000DF91E7
:100E4000CF91FF91EF91BF91AF919F918F917F9142
:100E50006F915F914F913F912F910F9000925F00A2
:100E60000F901F9018951F920F9200905F000F92A5
:100E700011242F933F934F935F936F937F938F939F
:100E80009F93AF93BF93EF93FF93CF93DF93CDB730
:100E9000DEB78091360190913701092E000CAA0B24
:100EA000BB0BAC013327222784E890E0FC01808152
:100EB0009181CC01A0E0B0E0822B932BA42BB52B29
:100EC0008093320190933301A0933401B0933501A4
:100ED00086E390E0FC018081882F90E08170992763
:100EE000892B01F180913601909137010196092EED
:100EF000000CAA0BBB0BAC013327222784E890E03F
:100F0000FC0180819181CC01A0E0B0E0822B932B89
:100F1000A42BB52B8093320190933301A09334011D
:100F2000B09335018091E8019091E901892B61F03E
:100F30002091E8013091E901809150019091510197
:100F40006CE070E0F90109950E94780E0000DF91D5
:100F5000CF91FF91EF91BF91AF919F918F917F9131
:100F60006F915F914F913F912F910F9000925F0091
:100F70000F901F9018951F920F9200905F000F9294
:100F800011242F933F934F935F936F937F938F938E
:100F90009F93AF93BF93EF93FF93CF93DF93CDB71F
:100FA000DEB78091360190913701092E000CAA0B13
:100FB000BB0BAC013327222784E890E0FC01808141
:100FC0009181CC01A0E0B0E0822B932BA42BB52B18
:100FD0008093320190933301A0933401B093350193
:100FE00086E390E0FC018081882F90E08170992752
:100FF000892B01F180913601909137010196092EDC
:10100000000CAA0BBB0BAC013327222784E890E02D
:10101000FC0180819181CC01A0E0B0E0822B932B78
:10102000A42BB52B8093320190933301A09334010C
:10103000B09335018091EA019091EB01892B61F029
:101040002091EA013091EB0180915201909153017E
:101050006DE070E0F90109950E94780E0000DF91C3
:10106000CF91FF91EF91BF91AF919F918F917F9120
:101070006F915F914F913F912F910F9000925F0080
:101080000F901F9018951F920F9200905F000F9283
:1010900011242F933F934F935F936F937F938F937D
:1010A0009F93AF93BF93EF93FF93CF93DF93CDB70E
:1010B000DEB78091360190913701092E000CAA0B02
:1010C000BB0BAC013327222784E890E0FC01808130
:1010D0009181CC01A0E0B0E0822B932BA42BB52B07
:1010E0008093320190933301A0933401B093350182
:1010F00086E390E0FC018081882F90E08170992741
:10110000892B01F180913601909137010196092ECA
:10111000000CAA0BBB0BAC013327222784E890E01C
:10112000FC0180819181CC01A0E0B0E0822B932B67
:10113000A42BB52B8093320190933301A0933401FB
:10114000B09335018091EC019091ED01892B61F014
:101150002091EC013091ED01809154019091550165
:101160006EE070E0F90109950E94780E0000DF91B1
:10117000CF91FF91EF91BF91AF919F918F917F910F
:101180006F915F914F913F912F910F9000925F006F
:101190000F901F9018951F920F9200905F000F9272
:1011A00011242F933F934F935F936F937F938F936C
:1011B0009F93AF93BF93EF93FF93CF93DF93CDB7FD
:1011C000DEB78091360190913701092E000CAA0BF1
:1011D000BB0BAC013327222784E890E0FC0180811F
:1011E0009181CC01A0E0B0E0822B932BA42BB52BF6
:1011F0008093320190933301A0933401B093350171
:1012000086E390E0FC018081882F90E0817099272F
:10121000892B01F180913601909137010196092EB9
:10122000000CAA0BBB0BAC013327222784E890E00B
:10123000FC0180819181CC01A0E0B0E0822B932B56
:10124000A42BB52B8093320190933301A0933401EA
:10125000B09335018091EE019091EF01892B61F0FF
:101260002091EE013091EF0180915601909157014C
:101270006FE070E0F90109950E94780E0000DF919F
:10128000CF91FF91EF91BF91AF919F918F917F91FE
:101290006F915F914F913F912F910F9000925F005E
:1012A0000F901F9018951F920F9200905F000F9261
:1012B00011242F933F934F935F936F937F938F935B
:1012C0009F93AF93BF93EF93FF93CF93DF93CDB7EC
:1012D000DEB78091360190913701092E000CAA0BE0
:1012E000BB0BAC013327222784E890E0FC0180810E
:1012F0009181CC01A0E0B0E0822B932BA42BB52BE5
:101300008093320190933301A0933401B09335015F
:1013100086E390E0FC018081882F90E0817099271E
:10132000892B01F180913601909137010196092EA8
:10133000000CAA0BBB0BAC013327222784E890E0FA
:10134000FC0180819181CC01A0E0B0E0822B932B45
:10135000A42BB52B8093320190933301A0933401D9
:10136000B09335018091F0019091F101892B61F0EA
:101370002091F0013091F101809158019091590133
:1013800060E170E0F90109950E94780E0000DF919C
:10139000CF91FF91EF91BF91AF919F918F917F91ED
:1013A0006F915F914F913F912F910F9000925F004D
:1013B0000F901F9018951F920F9200905F000F9250
:1013C00011242F933F934F935F936F937F938F934A
:1013D0009F93AF93BF93EF93FF93CF93DF93CDB7DB
:1013E000DEB78091360190913701092E000CAA0BCF
:1013F000BB0BAC013327222784E890E0FC018081FD
:101400009181CC01A0E0B0E0822B932BA42BB52BD3
:101410008093320190933301A0933401B09335014E
:1014200086E390E0FC018081882F90E0817099270D
:10143000892B01F180913601909137010196092E97
:10144000000CAA0BBB0BAC013327222784E890E0E9
:10145000FC0180819181CC01A0E0B0E0822B932B34
:10146000A42BB52B8093320190933301A0933401C8
:10147000B09335018091F2019091F301892B61F0D5
:101480002091F2013091F30180915A0190915B011A
:1014900061E170E0F90109950E94780E0000DF918A
:1014A000CF91FF91EF91BF91AF919F918F917F91DC
:1014B0006F915F914F913F912F910F9000925F003C
:1014C0000F901F901895CF93DF93CDB7DEB7289775
:1014D0000FB6F894DEBF0FBECDBF9E838D83788795
:1014E0006F831A8219828F819885FC018081918196
:1014F0009C838B830BC08B819C819A8389838B8196
:101500009C81FC01808191819C838B838B819C8158
:10151000892B99F08B819C81FC0126813781408544
:1015200051858D819E81FC0186819781A085B18541
:1015300082179307A407B507F4F68D819E812B814E
:101540003C81FC013183208389819A81892B41F47C
:101550008F8198852D813E81FC013183208307C0D6
:1015600089819A812D813E81FC0131832083000095
:1015700028960FB6F894DEBF0FBECDBFDF91CF9196
:101580000895CF93DF93CDB7DEB728970FB6F894C1
:10159000DEBF0FBECDBF9E838D8378876F831A8297
:1015A00019828F819885FC01808191819C838B8336
:1015B0000BC08B819C819A8389838B819C81FC01E8
:1015C000808191819C838B838B819C81892B99F075
:1015D0008B819C81FC0122813381448155818D81E5
:1015E0009E81FC0182819381A481B581821793073A
:1015F000A407B507F4F68D819E812B813C81FC0107
:101600003183208389819A81892B41F48F81988548
:101610002D813E81FC013183208307C089819A811D
:101620002D813E81FC0131832083000028960FB676
:10163000F894DEBF0FBECDBFDF91CF910895CF9359
:10164000DF9300D000D0CDB7DEB79C838B838B8136
:101650009C81FC01808191819A83898389819A810F
:10166000892B59F089819A81FC01208131818B81FC
:101670009C81FC013183208316C08CEE90E02FEF1B
:10168000FC0120838DEE90E02FEFFC0120838EEE95
:1016900090E02FEFFC01208383E590E021E0FC0146
:1016A00020838895F9CF89819A810F900F900F90B0
:1016B0000F90DF91CF910895CF93DF9300D000D0AA
:1016C000CDB7DEB79A8389837C836B838B819C81C2
:1016D000FC012081318189819A81FC013183208341
:1016E0008B819C8129813A81FC0131832083000018
:1016F0000F900F900F900F90DF91CF910895CF939F
:10170000DF9300D000D0CDB7DEB79A8389837C8386
:101710006B838B819C81FC012081318189819A813D
:10172000FC01318320838B819C8129813A81FC01DA
:101730003183208300000F900F900F900F90DF9166
:10174000CF910895CF93DF9300D000D0CDB7DEB70F
:101750009C838B838B819C81FC01808191819A8306
:10176000898389819A81FC01208131818B819C81CF
:10177000FC013183208389819A810F900F900F9013
:101780000F90DF91CF910895CF93DF93CDB7DEB760
:1017900028970FB6F894DEBF0FBECDBF9E838D8312
:1017A00078876F831A8219828F819885FC018081E6
:1017B00091819C838B830BC08B819C819A838983CD
:1017C0008B819C81FC01808191819C838B838B81A7
:1017D0009C81892B39F02B813C818D819E8128173A
:1017E000390751F78B819C81892BE1F089819A819E
:1017F000892B59F08B819C81FC0120813181898169
:101800009A81FC01318320830AC08B819C81FC0179
:10181000208131818F819885FC013183208381E093
:1018200090E002C080E090E028960FB6F894DEBF0A
:101830000FBECDBFDF91CF9108951F920F92009000
:101840005F000F9211242F933F934F935F936F93F9
:101850007F938F939F93AF93BF93EF93FF93CF9318
:10186000DF93CDB7DEB780913601909137010196B5
:10187000909337018093360180913001909131012E
:10188000892B09F44AC08091300190913101FC010B
:1018900082819381A481B581CD01BB2797FDB0954D
:1018A000AB2F9C01809136019091370128173907A1
:1018B000A1F528E830E08091300190913101FC01E0
:1018C00082819381A481B581AC0184E890E0FC0120
:1018D00080819181BA01681B790BCB01019739F4A2
:1018E00084E890E0FC0180819181019609C080919B
:1018F000300190913101FC0182819381A481B581F5
:10190000F901918380838FE690E02FE630E0F901C2
:1019100020812260FC01208309C08FE690E02FE641
:1019200030E0F90120812D7FFC0120830000DF9150
:10193000CF91FF91EF91BF91AF919F918F917F9147
:101940006F915F914F913F912F910F9000925F00A7
:101950000F901F9018951F920F9200905F000F92AA
:101960001124EF92FF920F931F932F933F934F9366
:101970005F936F937F938F939F93AF93BF93EF93F7
:10198000FF93CF93DF9300D000D0CDB7DEB7809127
:10199000360190913701092E000CAA0BBB0BAC014C
:1019A0003327222784E890E0FC0180819181CC01DB
:1019B000A0E0B0E0822B932BA42BB52B89839A83D4
:1019C000AB83BC8386E390E0FC018081882F90E0AC
:1019D00081709927892B29F18091360190913701E7
:1019E0000196092E000CAA0BBB0BAC013327222752
:1019F00084E890E0FC0180819181CC01A0E0B0E01E
:101A0000822B932BA42BB52B89839A83AB83BC8326
:101A100008C080E391E00E941F0B6EE271E00E941B
:101A2000630A8091300190913101892BD1F080912E
:101A3000300190913101FC01228133814481558133
:101A400089819A81AB81BC8179018A01E81AF90AFE
:101A50000A0B1B0BD801C701181619061A061B061C
:101A6000C4F68091300190913101892B09F44AC06C
:101A70008091300190913101FC0182819381A48198
:101A8000B581CD01BB2797FDB095AB2F9C0180910F
:101A900036019091370128173907A1F528E830E081
:101AA0008091300190913101FC0182819381A48168
:101AB000B581AC0184E890E0FC01808191817A01DC
:101AC000E81AF90AC701019739F484E890E0FC01AB
:101AD00080819181019609C08091300190913101FE
:101AE000FC0182819381A481B581F9019183808376
:101AF0008FE690E02FE630E0F90120812260FC01C2
:101B0000208309C08FE690E02FE630E0F9012081C4
:101B10002D7FFC0120830E94780E00000F900F9013
:101B20000F900F90DF91CF91FF91EF91BF91AF9107
:101B30009F918F917F916F915F914F913F912F91E5
:101B40001F910F91FF90EF900F9000925F000F9008
:101B50001F901895CF93DF9300D0CDB7DEB79A834F
:101B60008983809127019091280106960E949419FB
:101B7000892B69F489819A819093280180932701A8
:101B800089819A81069661E070E00E94B419000094
:101B90000F900F90DF91CF910895EF92FF920F93E6
:101BA0001F93CF93DF93CDB7DEB727970FB6F89487
:101BB000DEBF0FBECDBF00912701109128018EE23C
:101BC00091E00E941F0BF80193838283F8018281C8
:101BD00093819C838B8381E08D838D81882309F0A1
:101BE00078948B819C81FC01468557858B819C81F3
:101BF000FC01248535858B819C81FC018285938540
:101C0000B9010E9463108FE590E0FC01808180782B
:101C10008D83F8948B819C8161E271E00E945C0B62
:101C20008091250190912601FC0180819181FC0128
:101C3000828193819F838E8380912E0190912F01C9
:101C4000892B19F18E819F81892B09F4B4CF809162
:101C50002E0190912F01FC0126813781408551850D
:101C60008E819F81FC0186819781A085B185790154
:101C70008A01E81AF90A0A0B1B0BD801C7011816CA
:101C800019061A061B060CF096CF85E291E00E9419
:101C9000A20B63E271E00E947F0B8091250190917D
:101CA00026019A8389830AC089819A81FC018481F3
:101CB0009581FC01808191819A83898389819A81B0
:101CC000FC0184819581892B79F789819A810E9411
:101CD000AA0D71CFCF93DF93CDB7DEB70E94780EF8
:101CE000789483E590E021E0FC0120838895F9CF8A
:101CF000EF92FF920F931F93CF93DF9300D0CDB756
:101D0000DEB78091250190912601FC0182819381AB
:101D10009A83898380912E0190912F01892B91F1D3
:101D20008091230190912401892B61F189819A810D
:101D3000892BD1F080912E0190912F01FC012681F9
:101D400037814085518589819A81FC0186819781FF
:101D5000A085B18579018A01E81AF90A0A0B1B0BE3
:101D6000D801C701BB2374F483E291E00E94A20B67
:101D700065E271E00E947F0B809125019091260120
:101D80000E94AA0D00000F900F90DF91CF911F913C
:101D90000F91FF90EF900895CF92DF92EF92FF9214
:101DA0000F931F93CF93DF93CDB7DEB765970FB631
:101DB000F894DEBF0FBECDBF688779878A879B877F
:101DC0002C873D874E875F87198B088BFB8AEA8AB1
:101DD000DD8ACC8A8FE590E0FC01808180788D835C
:101DE000F89481E291E00E941F0B9F838E838E8185
:101DF0009F8128893989FC01338722878E819F81C1
:101E00002A893B89FC01358724878E819F812C8913
:101E10003D89FC01378726878D81882369F0809171
:101E2000270190912801FC0182819381FC0182812C
:101E30009381A481B58108C08091320190913301D2
:101E4000A0913401B0913501288539854A855B859B
:101E5000820F931FA41FB51F2E813F81F90182833A
:101E60009383A483B5838E819F81FC01228133817A
:101E7000448155818C859D85AE85BF8518161906D0
:101E80001A061B062CF48C859D85AE85BF8504C083
:101E90008FEF9FEFAFEFBFE7820F931FA41FB51F18
:101EA0002E813F81F90186839783A087B187809136
:101EB000360190913701092E000CAA0BBB0BAC0127
:101EC0003327222784E890E0FC0180819181CC01B6
:101ED000A0E0B0E0822B932BA42BB52B89839A83AF
:101EE000AB83BC8386E390E0FC018081882F90E087
:101EF00081709927892BE1F080913601909137010B
:101F00000196092E000CAA0BBB0BAC01332722272C
:101F100084E890E0FC0180819181CC01A0E0B0E0F8
:101F2000822B932BA42BB52B89839A83AB83BC8301
:101F30008E819F81FC012281338144815581898179
:101F40009A81AB81BC8179018A01E81AF90A0A0BEE
:101F50001B0BD801C701181619061A061B060CF030
:101F600061C08E819F8160E371E00E94C10A80910F
:101F7000300190913101892B09F44AC080913001E0
:101F800090913101FC0182819381A481B581CD01C1
:101F9000BB2797FDB095AB2F9C01809136019091A6
:101FA000370128173907A1F528E830E08091300182
:101FB00090913101FC0182819381A481B581AC01B2
:101FC00084E890E0FC01808191817A01E81AF90AA5
:101FD000C701019739F484E890E0FC018081918188
:101FE000019609C08091300190913101FC018281FC
:101FF0009381A481B581F901918380838FE690E07C
:102000002FE630E0F90120812260FC01208346C0E8
:102010008FE690E02FE630E0F90120812D7FFC0172
:1020200020833CC08E819F816EE271E00E94630A32
:102030008D81882399F18091230190912401892B2E
:1020400069F180912E0190912F01FC012681378149
:10205000408551858091250190912601FC01828166
:102060009381FC0186819781A085B18579018A01E0
:10207000E81AF90A0A0B1B0BD801C701BB2374F439
:1020800083E291E00E94A20B65E271E00E947F0B67
:1020900080912501909126010E94AA0D8D818823AF
:1020A00009F078948E819F8165960FB6F894DEBF13
:1020B0000FBECDBFDF91CF911F910F91FF90EF9099
:1020C000DF90CF900895CF93DF93CDB7DEB72C97F5
:1020D0000FB6F894DEBF0FBECDBF98878F837A8787
:1020E00069875C874B878FE590E0FC018081807871
:1020F0008B83F8948F819885FC01808191819A83EC
:10210000898389819A81892B09F45AC00AC08981FF
:102110009A81FC0184819581FC01808191819A835F
:10212000898389819A81FC0184819581892B79F742
:10213000809127019091280129813A812817390738
:1021400019F08B81882339F48B81882309F07894E6
:102150008FEF9FEF83C08F819885FC0182819381EF
:10216000892B41F08F819885FC0182819381FC014C
:102170001582148220912701309128018F81988542
:10218000FC013383228380912701909128012F81C4
:102190003885FC013583248389819A810E94AA0DA8
:1021A0008091270190912801FC0182819381892BE4
:1021B00039F48B81882309F0789480E090E04EC058
:1021C00020912701309128018F819885FC0131836E
:1021D00020838B81882341F08F819885FC01828147
:1021E0009381019709F078944B855C858F81988560
:1021F00029853A85BA01F90109959D838C838FE57C
:1022000090E0FC01808180788E83F8948F8198859E
:10221000FC01118210828F819885FC01828193815B
:102220009A83898389819A81892B91F089819A8106
:10223000019771F08F819885FC0113821282898148
:102240009A81FC011582148289819A810E94AA0DCB
:102250008B81882309F078948C819D812C960FB610
:10226000F894DEBF0FBECDBFDF91CF910895CF931D
:10227000DF9300D000D01F92CDB7DEB79D838C8353
:102280008FE590E0FC01808180788B83F8948C81CD
:102290009D8160E371E00E94C40B892B41F48C8125
:1022A0009D816EE271E00E94C40B892B39F08C8114
:1022B0009D8161E271E00E945C0B3EC0809125012E
:1022C000909126019A83898333C080912701909150
:1022D000280129813A812817390719F189819A81C2
:1022E000FC01228133818C819D8128173907C9F433
:1022F00089819A81FC01248135818C819D81FC0139
:10230000828593852817390761F489819A81FC01B8
:10231000138212828C819D8161E271E00E945C0BCC
:102320000BC089819A81FC01808191819A83898384
:1023300089819A81892B49F68B81882309F07894C9
:1023400000000F900F900F900F900F90DF91CF91A2
:102350000895CF93DF9300D0CDB7DEB79A838983FA
:102360008FE590E0FC01808188236CF48091270147
:1023700090912801FC0182819381FC0182819381EB
:10238000A481B58108C08091320190913301A09160
:102390003401B091350129813A81F901808391831B
:1023A000A283B38300000F900F90DF91CF91089527
:1023B000CF93DF9300D0CDB7DEB79A8389838FE5C3
:1023C00090E0FC01808188236CF48091270190913A
:1023D0002801FC0182819381FC0182819381A48187
:1023E000B58108C08091320190913301A0913401F0
:1023F000B091350129813A81F901208131814281F1
:102400005381821B930BA40BB50BBC01CD010F9024
:102410000F90DF91CF910895EF92FF920F931F934A
:10242000CF93DF9300D000D01F92CDB7DEB78FE5FA
:1024300090E0FC01808180788D83F8948091360152
:1024400090913701092E000CAA0BBB0BAC0133276E
:10245000222784E890E0FC0180819181CC01A0E0FA
:10246000B0E0822B932BA42BB52B89839A83AB836B
:10247000BC8386E390E0FC018081882F90E081702E
:102480009927892BE1F080913601909137010196CF
:10249000092E000CAA0BBB0BAC013327222784E8C2
:1024A00090E0FC0180819181CC01A0E0B0E0822B22
:1024B000932BA42BB52B89839A83AB83BC838D810B
:1024C000882309F078948D81882369F08091270111
:1024D00090912801FC0182819381FC01828193818A
:1024E000A481B58108C08091320190913301A091FF
:1024F0003401B091350129813A814B815C817901A8
:102500008A01E81AF90A0A0B1B0BD801C701BC01A2
:10251000CD010F900F900F900F900F90DF91CF9102
:102520001F910F91FF90EF900895CF93DF9300D00C
:10253000CDB7DEB71A8219821EC089819A810196B1
:1025400082959295907F9827807F98279C012F5E97
:102550003D4F89819A8182959295907F9827807FBF
:1025600098278F5E9D4FFC013183208389819A815A
:1025700001969A83898389819A810E97F4F2109249
:10258000F2021092F1021A82198220C089819A8186
:102590009C012F5F3F4F4DE1429FC001439F900D33
:1025A00011249C01245A3E4F49815A816DE1649F58
:1025B000C001659F900D1124845A9E4FFC01318308
:1025C000208389819A8101969A83898389819A815E
:1025D0000397E4F21092B4011092B3011A821982A7
:1025E00066C029813A814DE1429FC001439F900D11
:1025F00011240696845A9E4F0E94941929813A818B
:102600004DE1429FC001439F900D11240696845ACC
:102610009E4F409649815A8160E6649F9001659F74
:10262000300D11242F5F3C4F245A3F4FFC01318362
:10263000208329813A814DE1429FC001439F900D43
:1026400011240696845A9E4F429649815A8160E62B
:10265000649F9001659F300D11242F5F3C4F245AD9
:102660003F4FFC013183208329813A814DE1429F14
:10267000C001439F900D11240696845A9E4F4596A3
:102680002DEC3DE0FC013183208329813A814DE12D
:10269000429FC001439F900D1124805A9E4FFC0120
:1026A0001182108289819A8101969A838983898116
:1026B0009A8104970CF495CF1092F5011092F401D1
:1026C0001092F9011092F8011092F7011092F601A0
:1026D00081E690E020E8FC01208381E690E0FC01A7
:1026E000108284E890E0FC011182108281E890E081
:1026F00024E0FC0120838FE690E021E0FC012083B0
:1027000000000F900F90DF91CF910895CF93DF934A
:1027100000D000D000D0CDB7DEB79B838A837D8305
:102720006C834E838E81823150F58FE590E0FC0101
:10273000808180788983F8948E81882F90E0880F3B
:10274000991F885C9E4F2A813B81FC013183208345
:102750008E81882F90E0880F991F80539E4F2C8187
:102760003D81FC01318320838A819B8121E030E01F
:10277000FC01338322838981882309F07894000047
:1027800026960FB6F894DEBF0FBECDBFDF91CF9176
:102790000895CF92DF92EF92FF920F931F93CF9302
:1027A000DF93CDB7DEB727970FB6F894DEBF0FBE25
:1027B000CDBF9B838A837D836C835F834E838FE54C
:1027C00090E0FC01808180788983F8940E949512C2
:1027D00078948C819D81892B89F04E815F812C8139
:1027E0003D818A819B816A0179018C0120E030E082
:1027F000A90160E070E0CB010E94CC0E8FE590E073
:10280000FC01808180788983F8940E946A0E80E0C0
:1028100090E027960FB6F894DEBF0FBECDBFDF91D4
:10282000CF911F910F91FF90EF90DF90CF9008957F
:10283000CF93DF9300D01F92CDB7DEB79B838A83FF
:102840008A819B81FC0181858823A1F48A819B81F7
:10285000FC01868189838A819B812981FC012783F0
:102860008A819B81FC0116828A819B8121E0FC0187
:10287000218710C08A819B81FC0127818A819B81ED
:10288000FC0126838A819B81FC0117828A819B81BE
:10289000FC01118600000F900F900F90DF91CF91F7
:1028A0000895CF93DF9300D01F92CDB7DEB79B83FF
:1028B0008A838A819B81FC018681882321F48A8115
:1028C0009B810E9499148A819B81FC018681898366
:1028D0008981833640F489818F5F89838A819B81D6
:1028E0002981FC01268300000F900F900F90DF914B
:1028F000CF910895CF93DF9300D01F92CDB7DEB76D
:102900009B838A838A819B81FC018681898389815B
:10291000882341F08981815089838A819B81298123
:10292000FC01268300000F900F900F90DF91CF9154
:1029300008958F929F92AF92BF92CF92DF92EF92C3
:10294000FF920F931F93CF93DF9300D0CDB7DEB7E5
:102950009A83898389819A81FC018085282F30E0C0
:1029600089819A81FC0184819581A9016BEA70E0DB
:102970000E94631089819A81FC018681282F30E0B2
:1029800040E050E084E294EFA0E0B0E0BC01CD0173
:102990000E945319DA01C9014C015D0189819A81B4
:1029A000C12CD12C0F2EF9E9EF2EF4E1FF2EF02DE2
:1029B0008C0120E030E0A901C501B4010E94CC0ED9
:1029C00000000F900F90DF91CF911F910F91FF901A
:1029D000EF90DF90CF90BF90AF909F908F90089531
:1029E000CF93DF93CDB7DEB767970FB6F894DEBF0E
:1029F0000FBECDBF9E8B8D8B6F8B8F89803318F070
:102A00008F898A3318F080E090E038C081E595E145
:102A10009A83898380E191E09C838B8381EE91E1AD
:102A20009E838D8381EB91E198878F8380EB95E086
:102A30009A87898781EB94E19C878B8781EF94E16A
:102A40009E878D8780E191E1988B8F8781EF95E15B
:102A50009A8B898B80EB95E19C8B8B8B1E8A1D8AD0
:102A60008F89882F90E0C097880F991F9E012F5F54
:102A70003F4F820F931FFC018081918167960FB6B3
:102A8000F894DEBF0FBECDBFDF91CF910895CF93F5
:102A9000DF93CDB7DEB760970FB6F894DEBF0FBEF9
:102AA000CDBF9D878C876E87588B4F878F85988980
:102AB00099230CF4AFC08F85988906970CF0AAC0B3
:102AC0001F821E8219821A821B821C8218861D8216
:102AD00019868C859D856E850E94F0149F838E8358
:102AE0008F8598899595879589878F859889817035
:102AF0009927892BE9F48E819F81892F99278295C7
:102B00008F7089838E819F81892F99278F708A8307
:102B10008E819F81929582958F7089279F708927DA
:102B20008F708B838E818F708C8380EF8D8319C023
:102B30008E819F81892F9927807F89838E819F81B4
:102B4000929582958F7089279F708927807F8A83CD
:102B50008E81807F8B838E818295807F8C838FE0B6
:102B60008D838CEE90E09B878A878985882F90E003
:102B70002A853B85820F931F9B878A878A859B8541
:102B8000FC0190818D818923888798858981292FEF
:102B9000282B8A859B85FC0120838A859B85059649
:102BA0009B878A878A859B85FC0190818D818923FB
:102BB000888798858A81292F282B8A859B85FC0107
:102BC00020838A859B8505969B878A878A859B8536
:102BD000FC0190818D818923888798858B81292F9D
:102BE000282B8A859B85FC0120838A859B850596F9
:102BF0009B878A878A859B85FC0190818D818923AB
:102C0000888798858C81292F282B8A859B85FC01B4
:102C1000208301C0000060960FB6F894DEBF0FBE9F
:102C2000CDBFDF91CF910895CF93DF93CDB7DEB7BE
:102C30002A970FB6F894DEBF0FBECDBF9C838B835F
:102C40004D835E836F8378873A87298789859A8544
:102C50009A8389838D819E81AF81B88524E630E097
:102C600040E050E0BC01CD010E945319DC01CB01D2
:102C70002AE030E040E050E0BC01CD010E94531951
:102C8000DA01C90160E3680F29813A818B819C8157
:102C9000A9010E94471589819A8101969A838983A7
:102CA0008D819E81AF81B8852AE030E040E050E020
:102CB000BC01CD010E945319DC01CB0160E3680F18
:102CC00029813A818B819C81A9010E9447150000CE
:102CD0002A960FB6F894DEBF0FBECDBFDF91CF911D
:102CE0000895CF93DF9300D000D0CDB7DEB79C839B
:102CF0008B838B819C81FC0187819085FC0186817F
:102D0000882F90E0A0E0B0E0EB81FC8120E030E093
:102D1000AC01BD01CF010E9414168B819C81FC0186
:102D200081859285FC018681882F90E0A0E0B0E04B
:102D3000EB81FC8124E030E0AC01BD01CF010E94B9
:102D400014168B819C81FC0186818823C1F48CEE52
:102D500090E02CEE30E0F90120812460FC0120831A
:102D60008FEB89838CEE90E0FC019081898189232F
:102D70008A838CEE90E02A81FC01208317C08CEEC0
:102D800090E02CEE30E0F90120812064FC012083EA
:102D90008BEF89838CEE90E0FC01908189818923FF
:102DA0008A838CEE90E02A81FC01208300000F9042
:102DB0000F900F900F90DF91CF910895CF92DF92F7
:102DC000EF92FF920F931F93CF93DF9300D0CDB775
:102DD000DEB79A83898389819A81C12CD12C0F2EE9
:102DE000F1E7EF2EF6E1FF2EF02D8C0120E030E030
:102DF000A90160E070E0CB010E94CC0E8CE290E073
:102E0000FC01808186958695882F90E081709927B6
:102E1000892B29F489819A81FC01168212C08CE2E7
:102E200090E0FC018081869586958695882F90E0BC
:102E300081709927892B29F489819A8121E0FC01ED
:102E4000268300000F900F90DF91CF911F910F917B
:102E5000FF90EF90DF90CF900895CF92DF92EF92A6
:102E6000FF920F931F93CF93DF9300D0CDB7DEB7C0
:102E70009A83898389819A81C12CD12C0F2EF1E705
:102E8000EF2EF6E1FF2EF02D8C0120E030E0A901BD
:102E900060E070E0CB010E94CC0E83E290E0FC0188
:102EA00080818295869586958370882F90E08170C9
:102EB0009927892BD1F489819A81FC018681282F59
:102EC00030E089819A8169010F2EF6EEEF2EF7E14D
:102ED000FF2EF02D8C0120E030E0A90165E37CE0BD
:102EE00080E090E00E94CC0E26C083E290E0FC01DE
:102EF0008081881F8827881F882F90E081709927FC
:102F0000892BC9F489819A81FC018681282F30E0C0
:102F100089819A8169010F2EFDE9EF2EF8E1FF2EDC
:102F2000F02D8C0120E030E0A90165E37CE080E039
:102F300090E00E94CC0E83E290E0FC0180818295BB
:102F40008F70882F90E081709927892B99F589815E
:102F50009A81FC0186818823B9F489819A81FC01D8
:102F600087819085C12CD12C0F2EF8E1EF2EF4E152
:102F7000FF2EF02D8C0120E030E0A90160E070E030
:102F8000CB010E94CC0E16C089819A81FC018185FB
:102F90009285C12CD12C0F2EF8E1EF2EF4E1FF2EFB
:102FA000F02D8C0120E030E0A90160E070E0CB0161
:102FB0000E94CC0E00000F900F90DF91CF911F91D7
:102FC0000F91FF90EF90DF90CF900895CF92DF9216
:102FD000EF92FF920F931F93CF93DF9300D000D017
:102FE000CDB7DEB79A8389837C836B8383E290E0DD
:102FF000FC0180818295869586958370882F90E06C
:1030000081709927892BE1F52B813C8189819A81F7
:1030100069010F2EFEE4EF2EF8E1FF2EF02D8C015A
:1030200020E030E0A90160E070E0CB010E94CC0E0E
:1030300089819A81C12CD12C0F2EF1E7EF2EF6E178
:10304000FF2EF02D8C0120E030E0A90160E070E05F
:10305000CB010E94CC0E2B813C8189819A81690130
:103060000F2EF6EEEF2EF7E1FF2EF02D8C0120E073
:1030700030E0A9016BE177EB80E090E00E94CC0E9C
:1030800000000F900F900F900F90DF91CF911F9144
:103090000F91FF90EF90DF90CF900895CF92DF9245
:1030A000EF92FF920F931F93CF93DF9300D000D046
:1030B000CDB7DEB79A8389837C836B838B819C81B8
:1030C000892BB9F489819A81FC0187819085C12C73
:1030D000D12C0F2EF1E5EF2EF4E1FF2EF02D8C0117
:1030E00020E030E0A90160E070E0CB010E94CC0E4E
:1030F00016C089819A81FC0181859285C12CD12CD1
:103100000F2EF1E5EF2EF4E1FF2EF02D8C0120E0E3
:1031100030E0A90160E070E0CB010E94CC0E00001D
:103120000F900F900F900F90DF91CF911F910F9103
:10313000FF90EF90DF90CF900895CF92DF92EF92C3
:10314000FF920F931F93CF93DF9300D000D0CDB7A2
:10315000DEB79A8389837C836B8383E290E0FC01F2
:103160008081881F8827881F882F90E08170992789
:10317000892BE1F52B813C8189819A8169010F2E90
:10318000F4E0EF2EF9E1FF2EF02D8C0120E030E08D
:10319000A90160E070E0CB010E94CC0E89819A8188
:1031A000C12CD12C0F2EF1E7EF2EF6E1FF2EF02DE2
:1031B0008C0120E030E0A90160E070E0CB010E94CA
:1031C000CC0E2B813C8189819A8169010F2EFDE90A
:1031D000EF2EF8E1FF2EF02D8C0120E030E0A90168
:1031E0006BE177EB80E090E00E94CC0E00000F9046
:1031F0000F900F900F90DF91CF911F910F91FF9043
:10320000EF90DF90CF900895CF92DF92EF92FF92F0
:103210000F931F93CF93DF9300D000D0CDB7DEB7CD
:103220009A8389837C836B838B819C81892BB9F4FE
:1032300089819A81FC0187819085C12CD12C0F2E28
:10324000FAE7EF2EF4E1FF2EF02D8C0120E030E0C4
:10325000A90160E070E0CB010E94CC0E16C089810C
:103260009A81FC0181859285C12CD12C0F2EFAE721
:10327000EF2EF4E1FF2EF02D8C0120E030E0A901CB
:1032800060E070E0CB010E94CC0E00000F900F9028
:103290000F900F90DF91CF911F910F91FF90EF90C2
:1032A000DF90CF900895052E97FB1EF400940E94A6
:1032B0006A1957FD07D00E94721907FC03D04EF41B
:1032C0000C946A1950954095309521953F4F4F4F7A
:1032D0005F4F089590958095709561957F4F8F4FC2
:1032E0009F4F0895A1E21A2EAA1BBB1BFD010DC022
:1032F000AA1FBB1FEE1FFF1FA217B307E407F507A6
:1033000020F0A21BB30BE40BF50B661F771F881F81
:10331000991F1A9469F760957095809590959B0117
:10332000AC01BD01CF010895DC012D923D924D927B
:103330005D926D927D928D929D92AD92BD92CD9255
:10334000DD92ED92FD920D931D93CD93DD93FF9150
:10335000EF918DB78D938EB78D938FB78D93ED933E
:10336000FD93882799270994DC01CB0181309105D1
:10337000811D2D903D904D905D906D907D908D9034
:103380009D90AD90BD90CD90DD90ED90FD900D9114
:103390001D91CD91DD91ED91FD910D90F894FEBFC1
:0E33A0000FBEEDBFED91FD910994F894FFCFA3
:1033AE00000000002A0100000000000000002A01B9
:1033BE00000001000000000001000000010A0100F1
:0A33CE000011025C01F401F401009B
:00000001FF
