S01400004430303033455F4C61625F342E73726563C3
S11300000C942E000C94BB040C9427050C949305BB
S11300100C94FF050C946B060C944B000C94420D4D
S11300200C944B000C94F00C0C94D7060C944307DE
S11300300C94AF070C941B080C9487080C94F308D9
S11300400C945F090C94CB090C94370A0C94A30A02
S11300500C940F0B0C947B0B0C94E70B11241FBE18
S1130060CFEFD4E0DEBFCDBF11E0A0E0B1E0EEE918
S1130070F1E202C005900D92A233B107D9F724E052
S1130080A2E3B1E001C01D92A938B207E1F70E94D2
S1130090D5030C94CD100C940000CF92DF92EF9214
S11300A0FF920F931F93CF93DF93EC018E818823EC
S11300B069F1C884D12C0C811D810F2EF9E3EF2E38
S11300C0F0E1FF2EF02D20E030E0A90160E070E0C7
S11300D0CB010E94F70D2E8130E040E050E069E052
S11300E07DE380E090E00E944B10CA01B901C12C6D
S11300F0D12C0F2EFDE4EF2EF0E0FF2EF02D8E011B
S113010020E030E0A9010E94F70D12C0C884D12C70
S11301100C811D810F2EF5E4EF2EF0E1FF2EF02D62
S113012020E030E0A90160E070E0CB010E94F70D0F
S1130130DF91CF911F910F91FF90EF90DF90CF90BF
S11301400895FC018185811108C08681882341F0CE
S11301508783168281E0818708958681811107C093
S1130160878186831186CF010E944D00089587817F
S113017086831186CF010E944D000895FC0196816B
S1130180933650F4911106C0CF0121E026830E94DA
S11301904D0008959F5F96830895FC0196819923ED
S11301A011F0915096830895CF92DF92EF92FF92CF
S11301B00F931F93672BA1F4FC0107811085C12CB9
S11301C0D12C0F2EFEEBEF2EF0E0FF2EF02D20E0D1
S11301D030E0A90160E070E0CB010E94F70D13C08C
S11301E0FC0101851285C12CD12C0F2EFEEBEF2EC4
S11301F0F0E0FF2EF02D20E030E0A90160E070E097
S1130200CB010E94F70D1F910F91FF90EF90DF90AB
S1130210CF900895AF92BF92CF92DF92EF92FF9268
S11302200F931F93CF93DF93FC0185858130A9F54C
S11302308385811132C05B016B010F2EF4EDEF2E2B
S1130240F0E0FF2EF02D8F0120E030E0A90160E006
S113025070E0CB010E94F70DC12CD12C0F2EF1EBD5
S1130260EF2EF2E0FF2EF02D20E030E0A90160E057
S113027070E0CB010E94F70D65010F2EFAE0EF2E1E
S1130280F1E0FF2EF02D20E030E0A90164ED70E3F1
S113029080E090E00E94F70D02C081E08387DF9147
S11302A0CF911F910F91FF90EF90DF90CF90BF906F
S11302B0AF900895CF92DF92EF92FF920F931F9326
S11302C0672BA1F4FC0107811085C12CD12C0F2EC2
S11302D0FDECEF2EF0E0FF2EF02D20E030E0A90140
S11302E060E070E0CB010E94F70D13C0FC010185B2
S11302F01285C12CD12C0F2EFDECEF2EF0E0FF2E39
S1130300F02D20E030E0A90160E070E0CB010E9414
S1130310F70D1F910F91FF90EF90DF90CF9008950C
S1130320AF92BF92CF92DF92EF92FF920F931F93FF
S1130330CF93DF93FC0185858230A9F583858111F4
S113034032C05B016B010F2EFAE5EF2EF1E0FF2EB8
S1130350F02D8F0120E030E0A90160E070E0CB01D6
S11303600E94F70DC12CD12C0F2EF1EBEF2EF2E0F1
S1130370FF2EF02D20E030E0A90160E070E0CB0119
S11303800E94F70D65010F2EF0E9EF2EF1E0FF2E2C
S1130390F02D20E030E0A90164ED70E380E090E00E
S11303A00E94F70D02C081E08387DF91CF911F91F6
S11303B00F91FF90EF90DF90CF90BF90AF90089592
S11303C0CF93DF93CDB7DEB764970FB6F894DEBF53
S11303D00FBECDBF80ED860F8A3090F581E595E1A3
S11303E09A83898380E191E09C838B8381EE91E100
S11303F09E838D8381EB91E198878F8380EB95E0D9
S11304009A87898781EB94E19C878B8781EF94E1BC
S11304109E878D8780E191E1988B8F8781EF95E1AD
S11304209A8B898B80EB95E19C8B8B8BE62FF0E08C
S1130430F097EE0FFF1FEC0FFD1F8181928102C028
S113044080E090E064960FB6F894DEBF0FBECDBF97
S1130450DF91CF910895CF93DF9346305105E0F5B6
S1130460EA010E94E001FE01F595E795C0FD11C087
S1130470592F52955F70492F4F709C0132952295E8
S11304802F7023273F702327322F3F708F7090EFF8
S113049010C0592F507F9C01329522952F7023272D
S11304A03F702327422F407F382F307F8295807FF3
S11304B09FE0FF27E451FF4F20812923252B208330
S11304C025812923242B258322852923232B228755
S11304D027859223892B8787DF91CF9108958F9267
S11304E09F92AF92BF92CF92DF92EF92FF920F93BF
S11304F01F93CF93DF938C014A015B01E901CB0188
S1130500BA0124E630E040E050E00E944B100F2E88
S1130510FAE0CF2ED12CE12CF12CF02DA70196017D
S11305200E944B1060E3620FAE01C8010E942B02CF
S11305302196C501B401A70196010E944B10605D8C
S1130540AE01C8010E942B02DF91CF911F910F9140
S1130550FF90EF90DF90CF90BF90AF909F908F90DF
S11305600895CF93DF93EC01EF81F885468150E045
S113057060E070E020E030E00E946F02E985FA85D7
S1130580468150E060E070E024E030E0CE010E945B
S11305906F028E81811109C0ECEEF0E080818460ED
S11305A0808380818F7B808308C0ECEEF0E08081C3
S11305B08064808380818B7F8083DF91CF910895D5
S11305C0FC0165870895FC016387089590ED95B952
S11305D08CE08EB920E52DB990936C0080936B006C
S11305E080EC8DBB089580EC8093E40087EB8093CE
S11305F0E50087E08093E6008FE08093E7000895AC
S1130600CF92DF92EF92FF920F931F93CF93DF93DA
S1130610EC010C811D81C12CD12C0F2EF1EBEF2E9E
S1130620F2E0FF2EF02D20E030E0A90160E070E060
S1130630CB010E94F70D1E992CC041E050E060EE02
S113064072E08C819D810E94080F0C811D810F2E08
S1130650F3EEEF2EF2E0FF2EF02D20E030E0A901C2
S113066060E070E0CB010E94F70D0C811D81F80160
S1130670C680D12C0F2EFAE0EF2EF1E0FF2EF02DE4
S113068020E030E0A90160E070E0CB010E94F70DAA
S11306904BC01F992EC042E050E060EE72E08C81A6
S11306A09D810E94080F0C811D81C12CD12C0F2E1D
S11306B0F3EEEF2EF2E0FF2EF02D20E030E0A90162
S11306C060E070E0CB010E94F70D0C811D81F80100
S11306D0C680D12C0F2EF0E9EF2EF1E0FF2EF02D85
S11306E020E030E0A90160E070E0CB010E94F70D4A
S11306F01BC040E050E060EE72E08C819D810E945E
S1130700080F0C811D81CC24C394D12C0F2EF3EE41
S1130710EF2EF2E0FF2EF02D20E030E0A90160E0A2
S113072070E0CB010E94F70D1C992AC0EC81FD8179
S11307308681811113C007811085C12CD12C0F2E05
S1130740F1EAEF2EF0E0FF2EF02D20E030E0A901D9
S113075060E070E0CB010E94F70D12C001851285A4
S1130760C12CD12C0F2EF1EAEF2EF0E0FF2EF02D4C
S113077020E030E0A90160E070E0CB010E94F70DB9
S1130780629904C0EC81FD81168206C0639904C09D
S1130790EC81FD8181E08683DF91CF911F910F91E0
S11307A0FF90EF90DF90CF900895E1E6F0E080E8CD
S11307B0808310820E94F3020E94E60241E060E01E
S11307C073E080E091E00E94031042E060E073E097
S11307D080E091E00E94031040E050E061EB72E0A1
S11307E087E091E00E941D100895CF93DF9300D01D
S11307F000D0CDB7DEB789E292E029E033E0FC0116
S1130800709791838083409682179307C1F7109263
S1130810FA021092F902E4E6F1E081E891E09183B2
S113082080838EE991E0968F858FABEBB1E0B3AF17
S1130830A2AF1D921C92FA83E983E5E6F3E0FC8300
S1130840EB8389819A8106960E948C108B819C810E
S1130850E981FA81978B868B918F808F85E99FE060
S1130860948F838F158214827D96FA83E983EB81BA
S1130870FC81E05AFF4FFC83EB8389819A81885D78
S11308809140F9F6ECEFF1E01182108215821482A6
S113089013821282E1E6F0E080E8808310821092F5
S11308A085001092840084E08093810081E080932D
S11308B06F000F900F900F900F90DF91CF910895DC
S11308C0CF93DF9300D0CDB7DEB79A83898380912D
S11308D0290190912A0106960E948C10892B59F4C3
S11308E089819A8190932A018093290161E070E0C3
S11308F006960E94AC100F900F90DF91CF9108954F
S11309000F931F93CF93DF93E0913E01F0913F014A
S1130910309761F180912D0190912E01009731F172
S1130920C0912B01D0912C01AA81BB81109779F041
S1130930468157816085718516960D911D912D9183
S11309403C911997401B510B620B730B7AF4FC0119
S11309502081318130932E0120932D01D183C083D6
S113096090932C0180932B010E946004DF91CF911E
S11309701F910F9108951F920F920FB60F92112499
S11309802F933F934F935F936F937F938F939F9393
S1130990AF93BF93EF93FF932091360130913701CA
S11309A04091840050918500C901032E000CAA0BCC
S11309B0BB0BDC019927882760E070E0842B952B22
S11309C0A62BB72B8093380190933901A0933A0159
S11309D0B0933B01B09B1BC04091840050918500B3
S11309E0C9010196092E000CAA0BBB0BDC01992747
S11309F0882760E070E0842B952BA62BB72B80937F
S1130A00380190933901A0933A01B0933B01E091EE
S1130A10D801F091D901309739F060E070E080910D
S1130A2040019091410109950E948004FF91EF914A
S1130A30BF91AF919F918F917F916F915F914F91F2
S1130A403F912F910F900FBE0F901F9018951F92FA
S1130A500F920FB60F9211242F933F934F935F93EE
S1130A606F937F938F939F93AF93BF93EF93FF9372
S1130A7020913601309137014091840050918500D6
S1130A80C901032E000CAA0BBB0BDC019927882794
S1130A9060E070E0842B952BA62BB72B8093380154
S1130AA090933901A0933A01B0933B01B09B1BC0D2
S1130AB04091840050918500C9010196092E000CD3
S1130AC0AA0BBB0BDC019927882760E070E0842B1C
S1130AD0952BA62BB72B8093380190933901A093C3
S1130AE03A01B0933B01E091DA01F091DB013097D8
S1130AF039F061E070E080914201909143010995E1
S1130B000E948004FF91EF91BF91AF919F918F91CB
S1130B107F916F915F914F913F912F910F900FBEF5
S1130B200F901F9018951F920F920FB60F921124D9
S1130B302F933F934F935F936F937F938F939F93E1
S1130B40AF93BF93EF93FF93209136013091370118
S1130B504091840050918500C901032E000CAA0B1A
S1130B60BB0BDC019927882760E070E0842B952B70
S1130B70A62BB72B8093380190933901A0933A01A7
S1130B80B0933B01B09B1BC0409184005091850001
S1130B90C9010196092E000CAA0BBB0BDC01992795
S1130BA0882760E070E0842B952BA62BB72B8093CD
S1130BB0380190933901A0933A01B0933B01E0913D
S1130BC0DC01F091DD01309739F062E070E0809152
S1130BD044019091450109950E948004FF91EF9191
S1130BE0BF91AF919F918F917F916F915F914F9141
S1130BF03F912F910F900FBE0F901F9018951F9249
S1130C000F920FB60F9211242F933F934F935F933C
S1130C106F937F938F939F93AF93BF93EF93FF93C0
S1130C202091360130913701409184005091850024
S1130C30C901032E000CAA0BBB0BDC0199278827E2
S1130C4060E070E0842B952BA62BB72B80933801A2
S1130C5090933901A0933A01B0933B01B09B1BC020
S1130C604091840050918500C9010196092E000C21
S1130C70AA0BBB0BDC019927882760E070E0842B6A
S1130C80952BA62BB72B8093380190933901A09311
S1130C903A01B0933B01E091DE01F091DF0130971E
S1130CA039F063E070E08091460190914701099525
S1130CB00E948004FF91EF91BF91AF919F918F911A
S1130CC07F916F915F914F913F912F910F900FBE44
S1130CD00F901F9018951F920F920FB60F92112428
S1130CE02F933F934F935F936F937F938F939F9330
S1130CF0AF93BF93EF93FF93209136013091370167
S1130D004091840050918500C901032E000CAA0B68
S1130D10BB0BDC019927882760E070E0842B952BBE
S1130D20A62BB72B8093380190933901A0933A01F5
S1130D30B0933B01B09B1BC040918400509185004F
S1130D40C9010196092E000CAA0BBB0BDC019927E3
S1130D50882760E070E0842B952BA62BB72B80931B
S1130D60380190933901A0933A01B0933B01E0918B
S1130D70E001F091E101309739F064E070E0809196
S1130D8048019091490109950E948004FF91EF91D7
S1130D90BF91AF919F918F917F916F915F914F918F
S1130DA03F912F910F900FBE0F901F9018951F9297
S1130DB00F920FB60F9211242F933F934F935F938B
S1130DC06F937F938F939F93AF93BF93EF93FF930F
S1130DD02091360130913701409184005091850073
S1130DE0C901032E000CAA0BBB0BDC019927882731
S1130DF060E070E0842B952BA62BB72B80933801F1
S1130E0090933901A0933A01B0933B01B09B1BC06E
S1130E104091840050918500C9010196092E000C6F
S1130E20AA0BBB0BDC019927882760E070E0842BB8
S1130E30952BA62BB72B8093380190933901A0935F
S1130E403A01B0933B01E091E201F091E301309764
S1130E5039F065E070E080914A0190914B01099569
S1130E600E948004FF91EF91BF91AF919F918F9168
S1130E707F916F915F914F913F912F910F900FBE92
S1130E800F901F9018951F920F920FB60F92112476
S1130E902F933F934F935F936F937F938F939F937E
S1130EA0AF93BF93EF93FF932091360130913701B5
S1130EB04091840050918500C901032E000CAA0BB7
S1130EC0BB0BDC019927882760E070E0842B952B0D
S1130ED0A62BB72B8093380190933901A0933A0144
S1130EE0B0933B01B09B1BC040918400509185009E
S1130EF0C9010196092E000CAA0BBB0BDC01992732
S1130F00882760E070E0842B952BA62BB72B809369
S1130F10380190933901A0933A01B0933B01E091D9
S1130F20E401F091E501309739F066E070E08091DA
S1130F304C0190914D0109950E948004FF91EF911D
S1130F40BF91AF919F918F917F916F915F914F91DD
S1130F503F912F910F900FBE0F901F9018951F92E5
S1130F600F920FB60F9211242F933F934F935F93D9
S1130F706F937F938F939F93AF93BF93EF93FF935D
S1130F8020913601309137014091840050918500C1
S1130F90C901032E000CAA0BBB0BDC01992788277F
S1130FA060E070E0842B952BA62BB72B809338013F
S1130FB090933901A0933A01B0933B01B09B1BC0BD
S1130FC04091840050918500C9010196092E000CBE
S1130FD0AA0BBB0BDC019927882760E070E0842B07
S1130FE0952BA62BB72B8093380190933901A093AE
S1130FF03A01B0933B01E091E601F091E7013097AB
S113100039F067E070E080914E0190914F010995AD
S11310100E948004FF91EF91BF91AF919F918F91B6
S11310207F916F915F914F913F912F910F900FBEE0
S11310300F901F9018951F920F920FB60F921124C4
S11310402F933F934F935F936F937F938F939F93CC
S1131050AF93BF93EF93FF93209136013091370103
S11310604091840050918500C901032E000CAA0B05
S1131070BB0BDC019927882760E070E0842B952B5B
S1131080A62BB72B8093380190933901A0933A0192
S1131090B0933B01B09B1BC04091840050918500EC
S11310A0C9010196092E000CAA0BBB0BDC01992780
S11310B0882760E070E0842B952BA62BB72B8093B8
S11310C0380190933901A0933A01B0933B01E09128
S11310D0E801F091E901309739F068E070E080911F
S11310E050019091510109950E948004FF91EF9164
S11310F0BF91AF919F918F917F916F915F914F912C
S11311003F912F910F900FBE0F901F9018951F9233
S11311100F920FB60F9211242F933F934F935F9327
S11311206F937F938F939F93AF93BF93EF93FF93AB
S1131130209136013091370140918400509185000F
S1131140C901032E000CAA0BBB0BDC0199278827CD
S113115060E070E0842B952BA62BB72B809338018D
S113116090933901A0933A01B0933B01B09B1BC00B
S11311704091840050918500C9010196092E000C0C
S1131180AA0BBB0BDC019927882760E070E0842B55
S1131190952BA62BB72B8093380190933901A093FC
S11311A03A01B0933B01E091EA01F091EB013097F1
S11311B039F069E070E080915201909153010995F2
S11311C00E948004FF91EF91BF91AF919F918F9105
S11311D07F916F915F914F913F912F910F900FBE2F
S11311E00F901F9018951F920F920FB60F92112413
S11311F02F933F934F935F936F937F938F939F931B
S1131200AF93BF93EF93FF93209136013091370151
S11312104091840050918500C901032E000CAA0B53
S1131220BB0BDC019927882760E070E0842B952BA9
S1131230A62BB72B8093380190933901A0933A01E0
S1131240B0933B01B09B1BC040918400509185003A
S1131250C9010196092E000CAA0BBB0BDC019927CE
S1131260882760E070E0842B952BA62BB72B809306
S1131270380190933901A0933A01B0933B01E09176
S1131280EC01F091ED01309739F06AE070E0809163
S113129054019091550109950E948004FF91EF91AA
S11312A0BF91AF919F918F917F916F915F914F917A
S11312B03F912F910F900FBE0F901F9018951F9282
S11312C00F920FB60F9211242F933F934F935F9376
S11312D06F937F938F939F93AF93BF93EF93FF93FA
S11312E0209136013091370140918400509185005E
S11312F0C901032E000CAA0BBB0BDC01992788271C
S113130060E070E0842B952BA62BB72B80933801DB
S113131090933901A0933A01B0933B01B09B1BC059
S11313204091840050918500C9010196092E000C5A
S1131330AA0BBB0BDC019927882760E070E0842BA3
S1131340952BA62BB72B8093380190933901A0934A
S11313503A01B0933B01E091EE01F091EF01309737
S113136039F06BE070E08091560190915701099536
S11313700E948004FF91EF91BF91AF919F918F9153
S11313807F916F915F914F913F912F910F900FBE7D
S11313900F901F9018951F920F920FB60F92112461
S11313A02F933F934F935F936F937F938F939F9369
S11313B0AF93BF93EF93FF932091360130913701A0
S11313C04091840050918500C901032E000CAA0BA2
S11313D0BB0BDC019927882760E070E0842B952BF8
S11313E0A62BB72B8093380190933901A0933A012F
S11313F0B0933B01B09B1BC0409184005091850089
S1131400C9010196092E000CAA0BBB0BDC0199271C
S1131410882760E070E0842B952BA62BB72B809354
S1131420380190933901A0933A01B0933B01E091C4
S1131430F001F091F101309739F06CE070E08091A7
S113144058019091590109950E948004FF91EF91F0
S1131450BF91AF919F918F917F916F915F914F91C8
S11314603F912F910F900FBE0F901F9018951F92D0
S11314700F920FB60F9211242F933F934F935F93C4
S11314806F937F938F939F93AF93BF93EF93FF9348
S113149020913601309137014091840050918500AC
S11314A0C901032E000CAA0BBB0BDC01992788276A
S11314B060E070E0842B952BA62BB72B809338012A
S11314C090933901A0933A01B0933B01B09B1BC0A8
S11314D04091840050918500C9010196092E000CA9
S11314E0AA0BBB0BDC019927882760E070E0842BF2
S11314F0952BA62BB72B8093380190933901A09399
S11315003A01B0933B01E091F201F091F30130977D
S113151039F06DE070E080915A0190915B0109957A
S11315200E948004FF91EF91BF91AF919F918F91A1
S11315307F916F915F914F913F912F910F900FBECB
S11315400F901F9018951F920F920FB60F921124AF
S11315502F933F934F935F936F937F938F939F93B7
S1131560AF93BF93EF93FF932091360130913701EE
S11315704091840050918500C901032E000CAA0BF0
S1131580BB0BDC019927882760E070E0842B952B46
S1131590A62BB72B8093380190933901A0933A017D
S11315A0B0933B01B09B1BC04091840050918500D7
S11315B0C9010196092E000CAA0BBB0BDC0199276B
S11315C0882760E070E0842B952BA62BB72B8093A3
S11315D0380190933901A0933A01B0933B01E09113
S11315E0F401F091F501309739F06EE070E08091EC
S11315F05C0190915D0109950E948004FF91EF9137
S1131600BF91AF919F918F917F916F915F914F9116
S11316103F912F910F900FBE0F901F9018951F921E
S11316200F920FB60F9211242F933F934F935F9312
S11316306F937F938F939F93AF93BF93EF93FF9396
S113164020913601309137014091840050918500FA
S1131650C901032E000CAA0BBB0BDC0199278827B8
S113166060E070E0842B952BA62BB72B8093380178
S113167090933901A0933A01B0933B01B09B1BC0F6
S11316804091840050918500C9010196092E000CF7
S1131690AA0BBB0BDC019927882760E070E0842B40
S11316A0952BA62BB72B8093380190933901A093E7
S11316B03A01B0933B01E091F601F091F7013097C4
S11316C039F06FE070E080915E0190915F010995BF
S11316D00E948004FF91EF91BF91AF919F918F91F0
S11316E07F916F915F914F913F912F910F900FBE1A
S11316F00F901F9018951F920F920FB60F921124FE
S11317002F933F934F935F936F937F938F939F9305
S1131710AF93BF93EF93FF9320913601309137013C
S11317204091840050918500C901032E000CAA0B3E
S1131730BB0BDC019927882760E070E0842B952B94
S1131740A62BB72B8093380190933901A0933A01CB
S1131750B0933B01B09B1BC0409184005091850025
S1131760C9010196092E000CAA0BBB0BDC019927B9
S1131770882760E070E0842B952BA62BB72B8093F1
S1131780380190933901A0933A01B0933B01E09161
S1131790F801F091F901309739F060E170E080913F
S11317A060019091610109950E948004FF91EF917D
S11317B0BF91AF919F918F917F916F915F914F9165
S11317C03F912F910F900FBE0F901F9018951F926D
S11317D00F920FB60F9211242F933F934F935F9361
S11317E06F937F938F939F93AF93BF93EF93FF93E5
S11317F02091360130913701409184005091850049
S1131800C901032E000CAA0BBB0BDC019927882706
S113181060E070E0842B952BA62BB72B80933801C6
S113182090933901A0933A01B0933B01B09B1BC044
S11318304091840050918500C9010196092E000C45
S1131840AA0BBB0BDC019927882760E070E0842B8E
S1131850952BA62BB72B8093380190933901A09335
S11318603A01B0933B01E091FA01F091FB0130970A
S113187039F061E170E08091620190916301099512
S11318800E948004FF91EF91BF91AF919F918F913E
S11318907F916F915F914F913F912F910F900FBE68
S11318A00F901F901895EF92FF920F931F93CF9371
S11318B0DF937B01EB01A881B981109761F1FC01F1
S11318C0068117812085318516964D915D916D9124
S11318D07C911997041715072607370714F41BC0C2
S11318E0DF01ED91FC911197309749F046815781C2
S11318F06085718504171507260737078CF7EC01F7
S1131900F983E883109721F4F7019183808307C05A
S11319108D939C9304C0EC01B983A883F5CFDF9128
S1131920CF911F910F91FF90EF900895EF92FF9246
S11319300F931F93CF93DF937B01EB01A881B981B0
S1131940109761F1FC010281138124813581129683
S11319504D915D916D917C9115970417150726079C
S1131960370714F41BC0DF01ED91FC9111973097F8
S113197049F0428153816481758104171507260754
S113198037078CF7EC01F983E883109721F4F7010A
S11319909183808307C08D939C9304C0EC01B98329
S11319A0A883F5CFDF91CF911F910F91FF90EF9016
S11319B00895DC01ED91FC911197309759F48FEF64
S11319C08093EC008093ED008093EE0081E083BF70
S11319D08895FDCF208131812D933C93CF010895CB
S11319E01F920F920FB60F9211242F933F934F9390
S11319F05F936F937F938F939F93EF93FF93809164
S1131A003601909137010196909337018093360106
S1131A10E0913C01F0913D01309701F14281538105
S1131A206481758186179707C9F4CA0120918400DF
S1131A3030918500421B530B4130510529F48091AC
S1131A40840090918500019690938900809388008A
S1131A50EFE6F0E080818260808305C0EFE6F0E08D
S1131A6080818D7F8083FF91EF919F918F917F91F2
S1131A706F915F914F913F912F910F900FBE0F90F7
S1131A801F9018951F920F920FB60F921124CF92A8
S1131A90DF92EF92FF922F933F934F935F936F9355
S1131AA07F938F939F93AF93BF93EF93FF93C090D4
S1131AB03601D09037012091840030918500B0998F
S1131AC00FC00D2C000CEE08FF08D60199278827BB
S1131AD06901E12CF12CC82AD92AEA2AFB2A15C06B
S1131AE020918400309185008FEFC81AD80A0D2CFC
S1131AF0000CEE08FF08D601992788276901E12C1C
S1131B00F12CC82AD92AEA2AFB2AE0913C01F09157
S1131B103D01309709F442C082819381A481B5814B
S1131B208C199D09AE09BF09181619061A061B0659
S1131B30ECF18CE391E00E94D90C6EE371E00E9419
S1131B40530CE0913C01F0913D01309739F18281D1
S1131B509381A481B5818C199D09AE09BF0918161A
S1131B6019061A061B062CF721C09C01409184001B
S1131B7050918500841B950B019731F420918400CA
S1131B80309185002F5F3F4F309389002093880068
S1131B90EFE6F0E080818260808305C0EFE6F0E04C
S1131BA080818D7F80830E9480040CC08281938118
S1131BB0A481B58120913601309137012A173B0762
S1131BC069F7D3CFFF91EF91BF91AF919F918F911F
S1131BD07F916F915F914F913F912F91FF90EF9083
S1131BE0DF90CF900F900FBE0F901F9018953F92EB
S1131BF04F925F926F927F928F929F92AF92BF9219
S1131C00CF92DF92EF92FF920F931F93CF93DF93C4
S1131C102B013C0149015A018FB78078382EF89482
S1131C208FE291E00E94D90CEC011B870A87FD86A4
S1131C30EC86DF86CE86332061F0E0912901F091B5
S1131C402A010280F381E02D82819381A481B581F0
S1131C5008C08091380190913901A0913A01B09166
S1131C603B01480E591E6A1E7B1E4A825B826C82AF
S1131C707D82181419041A041B0444F00F2E8824BE
S1131C808A94982CA82CFFE7BF2EF02D840C951C69
S1131C90A61CB71C8E829F82A886B98680913601C5
S1131CA0909137014091840050918500B0990EC005
S1131CB0092E000CAA0BBB0BDC019927882760E0D6
S1131CC070E0842B952BA62BB72B13C02091840096
S1131CD0309185000196092E000CAA0BBB0BDC0188
S1131CE099278827A90160E070E0842B952BA62B07
S1131CF0B72B481A590A6A0A7B0A141415041604E5
S1131D001704ACF56CE371E0CE010E94960CE091EF
S1131D103C01F0913D01309721F182819381A481AE
S1131D20B58120913601309137012A173B07C9F458
S1131D309C014091840050918500841B950B019770
S1131D4031F420918400309185002F5F3F4F309310
S1131D50890020938800EFE6F0E080818260808330
S1131D6041C0EFE6F0E080818D7F80833BC06EE36D
S1131D7071E0CE010E94530C3320B9F180912D0102
S1131D8090912E01009781F1E0912B01F0912C01AB
S1131D9020913E0130913F0102811381D9011696B1
S1131DA04D915D916D917C911997D80116960D9185
S1131DB01D912D913C911997401B510B620B730B94
S1131DC09AF4DC012D913C91119730932E012093CC
S1131DD02D01ED93FC9390932C0180932B010E9491
S1131DE0600402C0332009F07894CE01DF91CF91D2
S1131DF01F910F91FF90EF90DF90CF90BF90AF9025
S1131E009F908F907F906F905F904F903F90089538
S1131E10CF92DF92EF92FF920F931F93CF93DF93B2
S1131E20EC017B016A011FB71078F894A881B9818D
S1131E30109761F11496ED91FC911597309741F04C
S1131E40A081B1811496ED91FC9115973097C1F75B
S1131E502091290130912A012A173B0721F01123EF
S1131E6009F43DC007C0112309F43CC078948FEFF6
S1131E709FEF52C08A819B810097D1F1FC011582AA
S1131E80148236C0789480E090E046C080912901A5
S1131E9090912A0199838883112329F08A819B8157
S1131EA0019709F07894B601CE01F7010995F82E4F
S1131EB0092F8FB7F894198218828A819B81823006
S1131EC0910538F01B821A82FC01158214820E944B
S1131ED06004112351F078948F2D902F1DC08FEF43
S1131EE09FEF1AC08FEF9FEF17C08F2D902F14C054
S1131EF03B832A83F901D583C483CD010E94600406
S1131F00E0912901F0912A0182819381892B09F4BE
S1131F10B9CFF983E883C2CFDF91CF911F910F919D
S1131F20FF90EF90DF90CF900895009129011091D8
S1131F302A018EE391E00E94D90CEC01D80113969A
S1131F409C938E93129778944E855F856C857D85DE
S1131F508A859B850E94080F8FB7F89480912F0182
S1131F609091300199838883D0933001C0932F01DD
S1131F70E0912B01F0912C0100811181E8012A816B
S1131F803B81A0913E01B0913F011097C1F0211512
S1131F90310559F216968D919D910D90BC91A02D0D
S1131FA0E9014E815F8168857985841B950BA60BB9
S1131FB0B70B181619061A061B060CF0B6CF1093A9
S1131FC02C0100932B0180912D0190912E0191837E
S1131FD08083F0932E01E0932D01A0912B01B09109
S1131FE02C011496ED91FC911597309741F0A08146
S1131FF0B1811496ED91FC9115973097C1F7CD01FD
S11320000E94600492CF4231B8F42FB7F89450E0A4
S1132010440F551FFA01E05CFE4F91838083FA015F
S1132020E852FE4F7183608341E050E0FC0153832A
S1132030428322230CF4789408958C017B016A0175
S11320408FB7F8940E94F5037894E114F10441F0F9
S113205020E030E0A90160E070E0CB010E94F70DC0
S11320608FB7F8940E948004789481E083BF8895A8
S1132070FDCF611105C09EB180E189278EB9089515
S11320809EB180E489278EB90895611102C07498C5
S1132090089576980895052E97FB1EF400940E94E7
S11320A0621057FD07D00E946A1007FC03D04EF45B
S11320B00C94621050954095309521953F4F4F4FA9
S11320C05F4F089590958095709561957F4F8F4FE0
S11320D09F4F0895A1E21A2EAA1BBB1BFD010DC040
S11320E0AA1FBB1FEE1FFF1FA217B307E407F507C4
S11320F020F0A21BB30BE40BF50B661F771F881FA0
S1132100991F1A9469F760957095809590959B0135
S1132110AC01BD01CF010895DC012D923D924D9299
S11321205D926D927D928D929D92AD92BD92CD9273
S1132130DD92ED92FD920D931D93CD93DD93FF916E
S1132140EF918DB78D938EB78D938FB78D93ED935C
S1132150FD93882799270994DC01CB0181309105EF
S1132160811D2D903D904D905D906D907D908D9052
S11321709D90AD90BD90CD90DD90ED90FD900D9132
S11321801D91CD91DD91ED91FD910D90F894FEBFDF
S11121900FBEEDBFED91FD910994F894FFCFC1
S113219E00000000070101000000000100001F0103
S11321AE15010100000000000032010000010000D2
S11321BE000000320100000000FC01FC0164011962
S10521CE020009
S9030000FC
