:100000000C942E000C94AB000C9433010C94BB01A7
:100010000C9443020C94CB020C944B000C94830C74
:100020000C944B000C94F50B0C9453030C94DB03D1
:100030000C9463040C94EB040C9473050C94FB0572
:100040000C9483060C940B070C9493070C941B08D8
:100050000C94A3080C942B090C94B30911241FBE13
:10006000CFEFD4E0DEBFCDBF11E0A0E0B1E0E4E52A
:10007000F2E302C005900D92A432B107D9F724E053
:10008000A4E2B1E001C01D92A737B207E1F70E94D8
:100090004D000C9428190C940000CF93DF93CDB73A
:1000A000DEB70E946E000E948A0042E064E376E1BF
:1000B0008EE091E00E945E1341E064E376E18EE021
:1000C00091E00E945E1340E050E06DEC75E18EE03F
:1000D00091E00E94A113DF91CF910895CF93DF9318
:1000E000CDB7DEB784EE90E020ECFC01208385EEF6
:1000F00090E027EBFC01208386EE90E027E0FC01F6
:10010000208387EE90E02FE0FC0120830000DF9148
:10011000CF910895CF93DF93CDB7DEB785E290E01E
:1001200020EDFC0120838EE290E02CE0FC01208396
:100130008CE690E020EDFC0120838BE690E02CE043
:10014000FC0120838DE390E020ECFC012083000083
:10015000DF91CF9108951F920F9200905F000F9250
:1001600011242F933F934F935F936F937F938F93BC
:100170009F93AF93BF93EF93FF93CF93DF93CDB74D
:10018000DEB780912C0190912D01092E000CAA0B55
:10019000BB0BAC013327222784E890E0FC0180816F
:1001A0009181CC01A0E0B0E0822B932BA42BB52B46
:1001B0008093280190932901A0932A01B0932B01E9
:1001C00086E390E0FC018081882F90E08170992780
:1001D000892B01F180912C0190912D010196092E1E
:1001E000000CAA0BBB0BAC013327222784E890E05C
:1001F000FC0180819181CC01A0E0B0E0822B932BA7
:10020000A42BB52B8093280190932901A0932A0158
:10021000B0932B018091C6019091C701892B61F0A9
:100220002091C6013091C70180912E0190912F013C
:1002300060E070E0F90109950E94500E0000DF9126
:10024000CF91FF91EF91BF91AF919F918F917F914E
:100250006F915F914F913F912F910F9000925F00AE
:100260000F901F9018951F920F9200905F000F92B1
:1002700011242F933F934F935F936F937F938F93AB
:100280009F93AF93BF93EF93FF93CF93DF93CDB73C
:10029000DEB780912C0190912D01092E000CAA0B44
:1002A000BB0BAC013327222784E890E0FC0180815E
:1002B0009181CC01A0E0B0E0822B932BA42BB52B35
:1002C0008093280190932901A0932A01B0932B01D8
:1002D00086E390E0FC018081882F90E0817099276F
:1002E000892B01F180912C0190912D010196092E0D
:1002F000000CAA0BBB0BAC013327222784E890E04B
:10030000FC0180819181CC01A0E0B0E0822B932B95
:10031000A42BB52B8093280190932901A0932A0147
:10032000B0932B018091C8019091C901892B61F094
:100330002091C8013091C901809130019091310123
:1003400061E070E0F90109950E94500E0000DF9114
:10035000CF91FF91EF91BF91AF919F918F917F913D
:100360006F915F914F913F912F910F9000925F009D
:100370000F901F9018951F920F9200905F000F92A0
:1003800011242F933F934F935F936F937F938F939A
:100390009F93AF93BF93EF93FF93CF93DF93CDB72B
:1003A000DEB780912C0190912D01092E000CAA0B33
:1003B000BB0BAC013327222784E890E0FC0180814D
:1003C0009181CC01A0E0B0E0822B932BA42BB52B24
:1003D0008093280190932901A0932A01B0932B01C7
:1003E00086E390E0FC018081882F90E0817099275E
:1003F000892B01F180912C0190912D010196092EFC
:10040000000CAA0BBB0BAC013327222784E890E039
:10041000FC0180819181CC01A0E0B0E0822B932B84
:10042000A42BB52B8093280190932901A0932A0136
:10043000B0932B018091CA019091CB01892B61F07F
:100440002091CA013091CB0180913201909133010A
:1004500062E070E0F90109950E94500E0000DF9102
:10046000CF91FF91EF91BF91AF919F918F917F912C
:100470006F915F914F913F912F910F9000925F008C
:100480000F901F9018951F920F9200905F000F928F
:1004900011242F933F934F935F936F937F938F9389
:1004A0009F93AF93BF93EF93FF93CF93DF93CDB71A
:1004B000DEB780912C0190912D01092E000CAA0B22
:1004C000BB0BAC013327222784E890E0FC0180813C
:1004D0009181CC01A0E0B0E0822B932BA42BB52B13
:1004E0008093280190932901A0932A01B0932B01B6
:1004F00086E390E0FC018081882F90E0817099274D
:10050000892B01F180912C0190912D010196092EEA
:10051000000CAA0BBB0BAC013327222784E890E028
:10052000FC0180819181CC01A0E0B0E0822B932B73
:10053000A42BB52B8093280190932901A0932A0125
:10054000B0932B018091CC019091CD01892B61F06A
:100550002091CC013091CD018091340190913501F1
:1005600063E070E0F90109950E94500E0000DF91F0
:10057000CF91FF91EF91BF91AF919F918F917F911B
:100580006F915F914F913F912F910F9000925F007B
:100590000F901F9018951F920F9200905F000F927E
:1005A00011242F933F934F935F936F937F938F9378
:1005B0009F93AF93BF93EF93FF93CF93DF93CDB709
:1005C000DEB780912C0190912D01092E000CAA0B11
:1005D000BB0BAC013327222784E890E0FC0180812B
:1005E0009181CC01A0E0B0E0822B932BA42BB52B02
:1005F0008093280190932901A0932A01B0932B01A5
:1006000086E390E0FC018081882F90E0817099273B
:10061000892B01F180912C0190912D010196092ED9
:10062000000CAA0BBB0BAC013327222784E890E017
:10063000FC0180819181CC01A0E0B0E0822B932B62
:10064000A42BB52B8093280190932901A0932A0114
:10065000B0932B018091CE019091CF01892B61F055
:100660002091CE013091CF018091360190913701D8
:1006700064E070E0F90109950E94500E0000DF91DE
:10068000CF91FF91EF91BF91AF919F918F917F910A
:100690006F915F914F913F912F910F9000925F006A
:1006A0000F901F9018951F920F9200905F000F926D
:1006B00011242F933F934F935F936F937F938F9367
:1006C0009F93AF93BF93EF93FF93CF93DF93CDB7F8
:1006D000DEB780912C0190912D01092E000CAA0B00
:1006E000BB0BAC013327222784E890E0FC0180811A
:1006F0009181CC01A0E0B0E0822B932BA42BB52BF1
:100700008093280190932901A0932A01B0932B0193
:1007100086E390E0FC018081882F90E0817099272A
:10072000892B01F180912C0190912D010196092EC8
:10073000000CAA0BBB0BAC013327222784E890E006
:10074000FC0180819181CC01A0E0B0E0822B932B51
:10075000A42BB52B8093280190932901A0932A0103
:10076000B0932B018091D0019091D101892B61F040
:100770002091D0013091D1018091380190913901BF
:1007800065E070E0F90109950E94500E0000DF91CC
:10079000CF91FF91EF91BF91AF919F918F917F91F9
:1007A0006F915F914F913F912F910F9000925F0059
:1007B0000F901F9018951F920F9200905F000F925C
:1007C00011242F933F934F935F936F937F938F9356
:1007D0009F93AF93BF93EF93FF93CF93DF93CDB7E7
:1007E000DEB780912C0190912D01092E000CAA0BEF
:1007F000BB0BAC013327222784E890E0FC01808109
:100800009181CC01A0E0B0E0822B932BA42BB52BDF
:100810008093280190932901A0932A01B0932B0182
:1008200086E390E0FC018081882F90E08170992719
:10083000892B01F180912C0190912D010196092EB7
:10084000000CAA0BBB0BAC013327222784E890E0F5
:10085000FC0180819181CC01A0E0B0E0822B932B40
:10086000A42BB52B8093280190932901A0932A01F2
:10087000B0932B018091D2019091D301892B61F02B
:100880002091D2013091D30180913A0190913B01A6
:1008900066E070E0F90109950E94500E0000DF91BA
:1008A000CF91FF91EF91BF91AF919F918F917F91E8
:1008B0006F915F914F913F912F910F9000925F0048
:1008C0000F901F9018951F920F9200905F000F924B
:1008D00011242F933F934F935F936F937F938F9345
:1008E0009F93AF93BF93EF93FF93CF93DF93CDB7D6
:1008F000DEB780912C0190912D01092E000CAA0BDE
:10090000BB0BAC013327222784E890E0FC018081F7
:100910009181CC01A0E0B0E0822B932BA42BB52BCE
:100920008093280190932901A0932A01B0932B0171
:1009300086E390E0FC018081882F90E08170992708
:10094000892B01F180912C0190912D010196092EA6
:10095000000CAA0BBB0BAC013327222784E890E0E4
:10096000FC0180819181CC01A0E0B0E0822B932B2F
:10097000A42BB52B8093280190932901A0932A01E1
:10098000B0932B018091D4019091D501892B61F016
:100990002091D4013091D50180913C0190913D018D
:1009A00067E070E0F90109950E94500E0000DF91A8
:1009B000CF91FF91EF91BF91AF919F918F917F91D7
:1009C0006F915F914F913F912F910F9000925F0037
:1009D0000F901F9018951F920F9200905F000F923A
:1009E00011242F933F934F935F936F937F938F9334
:1009F0009F93AF93BF93EF93FF93CF93DF93CDB7C5
:100A0000DEB780912C0190912D01092E000CAA0BCC
:100A1000BB0BAC013327222784E890E0FC018081E6
:100A20009181CC01A0E0B0E0822B932BA42BB52BBD
:100A30008093280190932901A0932A01B0932B0160
:100A400086E390E0FC018081882F90E081709927F7
:100A5000892B01F180912C0190912D010196092E95
:100A6000000CAA0BBB0BAC013327222784E890E0D3
:100A7000FC0180819181CC01A0E0B0E0822B932B1E
:100A8000A42BB52B8093280190932901A0932A01D0
:100A9000B0932B018091D6019091D701892B61F001
:100AA0002091D6013091D70180913E0190913F0174
:100AB00068E070E0F90109950E94500E0000DF9196
:100AC000CF91FF91EF91BF91AF919F918F917F91C6
:100AD0006F915F914F913F912F910F9000925F0026
:100AE0000F901F9018951F920F9200905F000F9229
:100AF00011242F933F934F935F936F937F938F9323
:100B00009F93AF93BF93EF93FF93CF93DF93CDB7B3
:100B1000DEB780912C0190912D01092E000CAA0BBB
:100B2000BB0BAC013327222784E890E0FC018081D5
:100B30009181CC01A0E0B0E0822B932BA42BB52BAC
:100B40008093280190932901A0932A01B0932B014F
:100B500086E390E0FC018081882F90E081709927E6
:100B6000892B01F180912C0190912D010196092E84
:100B7000000CAA0BBB0BAC013327222784E890E0C2
:100B8000FC0180819181CC01A0E0B0E0822B932B0D
:100B9000A42BB52B8093280190932901A0932A01BF
:100BA000B0932B018091D8019091D901892B61F0EC
:100BB0002091D8013091D90180914001909141015B
:100BC00069E070E0F90109950E94500E0000DF9184
:100BD000CF91FF91EF91BF91AF919F918F917F91B5
:100BE0006F915F914F913F912F910F9000925F0015
:100BF0000F901F9018951F920F9200905F000F9218
:100C000011242F933F934F935F936F937F938F9311
:100C10009F93AF93BF93EF93FF93CF93DF93CDB7A2
:100C2000DEB780912C0190912D01092E000CAA0BAA
:100C3000BB0BAC013327222784E890E0FC018081C4
:100C40009181CC01A0E0B0E0822B932BA42BB52B9B
:100C50008093280190932901A0932A01B0932B013E
:100C600086E390E0FC018081882F90E081709927D5
:100C7000892B01F180912C0190912D010196092E73
:100C8000000CAA0BBB0BAC013327222784E890E0B1
:100C9000FC0180819181CC01A0E0B0E0822B932BFC
:100CA000A42BB52B8093280190932901A0932A01AE
:100CB000B0932B018091DA019091DB01892B61F0D7
:100CC0002091DA013091DB01809142019091430142
:100CD0006AE070E0F90109950E94500E0000DF9172
:100CE000CF91FF91EF91BF91AF919F918F917F91A4
:100CF0006F915F914F913F912F910F9000925F0004
:100D00000F901F9018951F920F9200905F000F9206
:100D100011242F933F934F935F936F937F938F9300
:100D20009F93AF93BF93EF93FF93CF93DF93CDB791
:100D3000DEB780912C0190912D01092E000CAA0B99
:100D4000BB0BAC013327222784E890E0FC018081B3
:100D50009181CC01A0E0B0E0822B932BA42BB52B8A
:100D60008093280190932901A0932A01B0932B012D
:100D700086E390E0FC018081882F90E081709927C4
:100D8000892B01F180912C0190912D010196092E62
:100D9000000CAA0BBB0BAC013327222784E890E0A0
:100DA000FC0180819181CC01A0E0B0E0822B932BEB
:100DB000A42BB52B8093280190932901A0932A019D
:100DC000B0932B018091DC019091DD01892B61F0C2
:100DD0002091DC013091DD01809144019091450129
:100DE0006BE070E0F90109950E94500E0000DF9160
:100DF000CF91FF91EF91BF91AF919F918F917F9193
:100E00006F915F914F913F912F910F9000925F00F2
:100E10000F901F9018951F920F9200905F000F92F5
:100E200011242F933F934F935F936F937F938F93EF
:100E30009F93AF93BF93EF93FF93CF93DF93CDB780
:100E4000DEB780912C0190912D01092E000CAA0B88
:100E5000BB0BAC013327222784E890E0FC018081A2
:100E60009181CC01A0E0B0E0822B932BA42BB52B79
:100E70008093280190932901A0932A01B0932B011C
:100E800086E390E0FC018081882F90E081709927B3
:100E9000892B01F180912C0190912D010196092E51
:100EA000000CAA0BBB0BAC013327222784E890E08F
:100EB000FC0180819181CC01A0E0B0E0822B932BDA
:100EC000A42BB52B8093280190932901A0932A018C
:100ED000B0932B018091DE019091DF01892B61F0AD
:100EE0002091DE013091DF01809146019091470110
:100EF0006CE070E0F90109950E94500E0000DF914E
:100F0000CF91FF91EF91BF91AF919F918F917F9181
:100F10006F915F914F913F912F910F9000925F00E1
:100F20000F901F9018951F920F9200905F000F92E4
:100F300011242F933F934F935F936F937F938F93DE
:100F40009F93AF93BF93EF93FF93CF93DF93CDB76F
:100F5000DEB780912C0190912D01092E000CAA0B77
:100F6000BB0BAC013327222784E890E0FC01808191
:100F70009181CC01A0E0B0E0822B932BA42BB52B68
:100F80008093280190932901A0932A01B0932B010B
:100F900086E390E0FC018081882F90E081709927A2
:100FA000892B01F180912C0190912D010196092E40
:100FB000000CAA0BBB0BAC013327222784E890E07E
:100FC000FC0180819181CC01A0E0B0E0822B932BC9
:100FD000A42BB52B8093280190932901A0932A017B
:100FE000B0932B018091E0019091E101892B61F098
:100FF0002091E0013091E1018091480190914901F7
:101000006DE070E0F90109950E94500E0000DF913B
:10101000CF91FF91EF91BF91AF919F918F917F9170
:101020006F915F914F913F912F910F9000925F00D0
:101030000F901F9018951F920F9200905F000F92D3
:1010400011242F933F934F935F936F937F938F93CD
:101050009F93AF93BF93EF93FF93CF93DF93CDB75E
:10106000DEB780912C0190912D01092E000CAA0B66
:10107000BB0BAC013327222784E890E0FC01808180
:101080009181CC01A0E0B0E0822B932BA42BB52B57
:101090008093280190932901A0932A01B0932B01FA
:1010A00086E390E0FC018081882F90E08170992791
:1010B000892B01F180912C0190912D010196092E2F
:1010C000000CAA0BBB0BAC013327222784E890E06D
:1010D000FC0180819181CC01A0E0B0E0822B932BB8
:1010E000A42BB52B8093280190932901A0932A016A
:1010F000B0932B018091E2019091E301892B61F083
:101100002091E2013091E30180914A0190914B01DD
:101110006EE070E0F90109950E94500E0000DF9129
:10112000CF91FF91EF91BF91AF919F918F917F915F
:101130006F915F914F913F912F910F9000925F00BF
:101140000F901F9018951F920F9200905F000F92C2
:1011500011242F933F934F935F936F937F938F93BC
:101160009F93AF93BF93EF93FF93CF93DF93CDB74D
:10117000DEB780912C0190912D01092E000CAA0B55
:10118000BB0BAC013327222784E890E0FC0180816F
:101190009181CC01A0E0B0E0822B932BA42BB52B46
:1011A0008093280190932901A0932A01B0932B01E9
:1011B00086E390E0FC018081882F90E08170992780
:1011C000892B01F180912C0190912D010196092E1E
:1011D000000CAA0BBB0BAC013327222784E890E05C
:1011E000FC0180819181CC01A0E0B0E0822B932BA7
:1011F000A42BB52B8093280190932901A0932A0159
:10120000B0932B018091E4019091E501892B61F06D
:101210002091E4013091E50180914C0190914D01C4
:101220006FE070E0F90109950E94500E0000DF9117
:10123000CF91FF91EF91BF91AF919F918F917F914E
:101240006F915F914F913F912F910F9000925F00AE
:101250000F901F9018951F920F9200905F000F92B1
:1012600011242F933F934F935F936F937F938F93AB
:101270009F93AF93BF93EF93FF93CF93DF93CDB73C
:10128000DEB780912C0190912D01092E000CAA0B44
:10129000BB0BAC013327222784E890E0FC0180815E
:1012A0009181CC01A0E0B0E0822B932BA42BB52B35
:1012B0008093280190932901A0932A01B0932B01D8
:1012C00086E390E0FC018081882F90E0817099276F
:1012D000892B01F180912C0190912D010196092E0D
:1012E000000CAA0BBB0BAC013327222784E890E04B
:1012F000FC0180819181CC01A0E0B0E0822B932B96
:10130000A42BB52B8093280190932901A0932A0147
:10131000B0932B018091E6019091E701892B61F058
:101320002091E6013091E70180914E0190914F01AB
:1013300060E170E0F90109950E94500E0000DF9114
:10134000CF91FF91EF91BF91AF919F918F917F913D
:101350006F915F914F913F912F910F9000925F009D
:101360000F901F9018951F920F9200905F000F92A0
:1013700011242F933F934F935F936F937F938F939A
:101380009F93AF93BF93EF93FF93CF93DF93CDB72B
:10139000DEB780912C0190912D01092E000CAA0B33
:1013A000BB0BAC013327222784E890E0FC0180814D
:1013B0009181CC01A0E0B0E0822B932BA42BB52B24
:1013C0008093280190932901A0932A01B0932B01C7
:1013D00086E390E0FC018081882F90E0817099275E
:1013E000892B01F180912C0190912D010196092EFC
:1013F000000CAA0BBB0BAC013327222784E890E03A
:10140000FC0180819181CC01A0E0B0E0822B932B84
:10141000A42BB52B8093280190932901A0932A0136
:10142000B0932B018091E8019091E901892B61F043
:101430002091E8013091E901809150019091510192
:1014400061E170E0F90109950E94500E0000DF9102
:10145000CF91FF91EF91BF91AF919F918F917F912C
:101460006F915F914F913F912F910F9000925F008C
:101470000F901F901895CF93DF93CDB7DEB72897C5
:101480000FB6F894DEBF0FBECDBF9E838D837887E5
:101490006F831A8219828F819885FC0180819181E6
:1014A0009C838B830BC08B819C819A8389838B81E6
:1014B0009C81FC01808191819C838B838B819C81A9
:1014C000892B99F08B819C81FC0126813781408595
:1014D00051858D819E81FC0186819781A085B18592
:1014E00082179307A407B507F4F68D819E812B819F
:1014F0003C81FC013183208389819A81892B41F4CD
:101500008F8198852D813E81FC013183208307C026
:1015100089819A812D813E81FC01318320830000E5
:1015200028960FB6F894DEBF0FBECDBFDF91CF91E6
:101530000895CF93DF93CDB7DEB728970FB6F89411
:10154000DEBF0FBECDBF9E838D8378876F831A82E7
:1015500019828F819885FC01808191819C838B8386
:101560000BC08B819C819A8389838B819C81FC0138
:10157000808191819C838B838B819C81892B99F0C5
:101580008B819C81FC0122813381448155818D8135
:101590009E81FC0182819381A481B581821793078A
:1015A000A407B507F4F68D819E812B813C81FC0157
:1015B0003183208389819A81892B41F48F81988599
:1015C0002D813E81FC013183208307C089819A816E
:1015D0002D813E81FC0131832083000028960FB6C7
:1015E000F894DEBF0FBECDBFDF91CF910895CF93AA
:1015F000DF9300D000D0CDB7DEB79C838B838B8187
:101600009C81FC01808191819A83898389819A815F
:10161000892B59F089819A81FC01208131818B814C
:101620009C81FC013183208316C08CEE90E02FEF6B
:10163000FC0120838DEE90E02FEFFC0120838EEEE5
:1016400090E02FEFFC01208383E590E021E0FC0196
:1016500020838895F9CF89819A810F900F900F9000
:101660000F90DF91CF910895CF93DF9300D000D0FA
:10167000CDB7DEB79A8389837C836B838B819C8112
:10168000FC012081318189819A81FC013183208391
:101690008B819C8129813A81FC0131832083000068
:1016A0000F900F900F900F90DF91CF910895CF93EF
:1016B000DF9300D000D0CDB7DEB79A8389837C83D7
:1016C0006B838B819C81FC012081318189819A818E
:1016D000FC01318320838B819C8129813A81FC012B
:1016E0003183208300000F900F900F900F90DF91B7
:1016F000CF910895CF93DF9300D000D0CDB7DEB760
:101700009C838B838B819C81FC01808191819A8356
:10171000898389819A81FC01208131818B819C811F
:10172000FC013183208389819A810F900F900F9063
:101730000F90DF91CF910895CF93DF93CDB7DEB7B0
:1017400028970FB6F894DEBF0FBECDBF9E838D8362
:1017500078876F831A8219828F819885FC01808136
:1017600091819C838B830BC08B819C819A8389831D
:101770008B819C81FC01808191819C838B838B81F7
:101780009C81892B39F02B813C818D819E8128178A
:10179000390751F78B819C81892BE1F089819A81EE
:1017A000892B59F08B819C81FC01208131818981B9
:1017B0009A81FC01318320830AC08B819C81FC01CA
:1017C000208131818F819885FC013183208381E0E4
:1017D00090E002C080E090E028960FB6F894DEBF5B
:1017E0000FBECDBFDF91CF9108951F920F92009051
:1017F0005F000F9211242F933F934F935F936F934A
:101800007F938F939F93AF93BF93EF93FF93CF9368
:10181000DF93CDB7DEB780912C0190912D01019619
:1018200090932D0180932C018091260190912701A6
:10183000892B09F44AC08091260190912701FC016F
:1018400082819381A481B581CD01BB2797FDB0959D
:10185000AB2F9C0180912C0190912D012817390705
:10186000A1F528E830E08091260190912701FC0144
:1018700082819381A481B581AC0184E890E0FC0170
:1018800080819181BA01681B790BCB01019739F4F2
:1018900084E890E0FC0180819181019609C08091EB
:1018A000260190912701FC0182819381A481B58159
:1018B000F901918380838FE690E02FE630E0F90113
:1018C00020812260FC01208309C08FE690E02FE692
:1018D00030E0F90120812D7FFC0120830000DF91A1
:1018E000CF91FF91EF91BF91AF919F918F917F9198
:1018F0006F915F914F913F912F910F9000925F00F8
:101900000F901F9018951F920F9200905F000F92FA
:101910001124EF92FF920F931F932F933F934F93B6
:101920005F936F937F938F939F93AF93BF93EF9347
:10193000FF93CF93DF9300D000D0CDB7DEB7809177
:101940002C0190912D01092E000CAA0BBB0BAC01B0
:101950003327222784E890E0FC0180819181CC012B
:10196000A0E0B0E0822B932BA42BB52B89839A8324
:10197000AB83BC8386E390E0FC018081882F90E0FC
:1019800081709927892B29F180912C0190912D014B
:101990000196092E000CAA0BBB0BAC0133272227A2
:1019A00084E890E0FC0180819181CC01A0E0B0E06E
:1019B000822B932BA42BB52B89839A83AB83BC8377
:1019C00008C086E291E00E94F70A64E271E00E949A
:1019D0003B0A8091260190912701892BD1F08091BB
:1019E000260190912701FC01228133814481558198
:1019F00089819A81AB81BC8179018A01E81AF90A4F
:101A00000A0B1B0BD801C701181619061A061B066C
:101A1000C4F68091260190912701892B09F44AC0D0
:101A20008091260190912701FC0182819381A481FC
:101A3000B581CD01BB2797FDB095AB2F9C0180915F
:101A40002C0190912D0128173907A1F528E830E0E5
:101A50008091260190912701FC0182819381A481CC
:101A6000B581AC0184E890E0FC01808191817A012C
:101A7000E81AF90AC701019739F484E890E0FC01FB
:101A800080819181019609C0809126019091270162
:101A9000FC0182819381A481B581F90191838083C6
:101AA0008FE690E02FE630E0F90120812260FC0112
:101AB000208309C08FE690E02FE630E0F901208115
:101AC0002D7FFC0120830E94500E00000F900F908C
:101AD0000F900F90DF91CF91FF91EF91BF91AF9158
:101AE0009F918F917F916F915F914F913F912F9136
:101AF0001F910F91FF90EF900F9000925F000F9059
:101B00001F901895CF93DF9300D0CDB7DEB79A839F
:101B10008983809121019091220106960E94E71805
:101B2000892B69F489819A81909322018093210104
:101B300089819A81069661E070E00E940719000091
:101B40000F900F90DF91CF910895EF92FF920F9336
:101B50001F93CF93DF93CDB7DEB727970FB6F894D7
:101B6000DEBF0FBECDBF009121011091220184E2A2
:101B700091E00E94F70AF80193838283F801828141
:101B800093819C838B8381E08D838D81882309F0F1
:101B900078948B819C81FC01468557858B819C8143
:101BA000FC01248535858B819C81FC018285938590
:101BB000B9010E943B108FE590E0FC0180818078A4
:101BC0008D83F8948B819C816BE171E00E94340BD2
:101BD00080911F0190912001FC0180819181FC0185
:101BE000828193819F838E8380912401909125012E
:101BF000892B19F18E819F81892B09F4B4CF8091B3
:101C0000240190912501FC01268137814085518571
:101C10008E819F81FC0186819781A085B1857901A4
:101C20008A01E81AF90A0A0B1B0BD801C70118161A
:101C300019061A061B060CF096CF8FE191E00E9460
:101C40007A0B6DE171E00E94570B80911F0190911A
:101C500020019A8389830AC089819A81FC01848149
:101C60009581FC01808191819A83898389819A8100
:101C7000FC0184819581892B79F789819A810E9461
:101C8000820D71CFCF93DF93CDB7DEB70E94500E98
:101C9000789483E590E021E0FC0120838895F9CFDA
:101CA000EF92FF920F931F93CF93DF9300D0CDB7A6
:101CB000DEB780911F0190912001FC018281938108
:101CC0009A8389838091240190912501892B91F138
:101CD00080911D0190911E01892B61F189819A816A
:101CE000892BD1F08091240190912501FC0126815E
:101CF00037814085518589819A81FC018681978150
:101D0000A085B18579018A01E81AF90A0A0B1B0B33
:101D1000D801C701BB2374F48DE191E00E947A0BD6
:101D20006FE171E00E94570B80911F01909120019B
:101D30000E94820D00000F900F90DF91CF911F91B4
:101D40000F91FF90EF900895CF92DF92EF92FF9264
:101D50000F931F93CF93DF93CDB7DEB765970FB681
:101D6000F894DEBF0FBECDBF688779878A879B87CF
:101D70002C873D874E875F87198B088BFB8AEA8A01
:101D8000DD8ACC8A8FE590E0FC01808180788D83AC
:101D9000F8948BE191E00E94F70A9F838E838E81F5
:101DA0009F8128893989FC01338722878E819F8111
:101DB0002A893B89FC01358724878E819F812C8964
:101DC0003D89FC01378726878D81882369F08091C2
:101DD000210190912201FC0182819381FC01828189
:101DE0009381A481B58108C0809128019091290137
:101DF000A0912A01B0912B01288539854A855B8500
:101E0000820F931FA41FB51F2E813F81F90182838A
:101E10009383A483B5838E819F81FC0122813381CA
:101E2000448155818C859D85AE85BF851816190620
:101E30001A061B062CF48C859D85AE85BF8504C0D3
:101E40008FEF9FEFAFEFBFE7820F931FA41FB51F68
:101E50002E813F81F90186839783A087B187809186
:101E60002C0190912D01092E000CAA0BBB0BAC018B
:101E70003327222784E890E0FC0180819181CC0106
:101E8000A0E0B0E0822B932BA42BB52B89839A83FF
:101E9000AB83BC8386E390E0FC018081882F90E0D7
:101EA00081709927892BE1F080912C0190912D016F
:101EB0000196092E000CAA0BBB0BAC01332722277D
:101EC00084E890E0FC0180819181CC01A0E0B0E049
:101ED000822B932BA42BB52B89839A83AB83BC8352
:101EE0008E819F81FC0122813381448155818981CA
:101EF0009A81AB81BC8179018A01E81AF90A0A0B3F
:101F00001B0BD801C701181619061A061B060CF080
:101F100061C08E819F8166E271E00E94990A809182
:101F2000260190912701892B09F44AC0809126014E
:101F300090912701FC0182819381A481B581CD011B
:101F4000BB2797FDB095AB2F9C0180912C01909100
:101F50002D0128173907A1F528E830E080912601E6
:101F600090912701FC0182819381A481B581AC010C
:101F700084E890E0FC01808191817A01E81AF90AF5
:101F8000C701019739F484E890E0FC0180819181D8
:101F9000019609C08091260190912701FC01828160
:101FA0009381A481B581F901918380838FE690E0CC
:101FB0002FE630E0F90120812260FC01208346C039
:101FC0008FE690E02FE630E0F90120812D7FFC01C3
:101FD00020833CC08E819F8164E271E00E943B0AB5
:101FE0008D81882399F180911D0190911E01892B8B
:101FF00069F18091240190912501FC0126813781AE
:102000004085518580911F0190912001FC018281C2
:102010009381FC0186819781A085B18579018A0130
:10202000E81AF90A0A0B1B0BD801C701BB2374F489
:102030008DE191E00E947A0B6FE171E00E94570BF5
:1020400080911F01909120010E94820D8D81882333
:1020500009F078948E819F8165960FB6F894DEBF63
:102060000FBECDBFDF91CF911F910F91FF90EF90E9
:10207000DF90CF900895CF93DF93CDB7DEB72C9745
:102080000FB6F894DEBF0FBECDBF98878F837A87D7
:1020900069875C874B878FE590E0FC0180818078C1
:1020A0008B83F8948F819885FC01808191819A833C
:1020B000898389819A81892B09F45AC00AC0898150
:1020C0009A81FC0184819581FC01808191819A83B0
:1020D000898389819A81FC0184819581892B79F793
:1020E000809121019091220129813A812817390795
:1020F00019F08B81882339F48B81882309F0789437
:102100008FEF9FEF83C08F819885FC01828193813F
:10211000892B41F08F819885FC0182819381FC019C
:102120001582148220912101309122018F8198859E
:10213000FC013383228380912101909122012F8120
:102140003885FC013583248389819A810E94820D20
:102150008091210190912201FC0182819381892B40
:1021600039F48B81882309F0789480E090E04EC0A8
:1021700020912101309122018F819885FC013183CA
:1021800020838B81882341F08F819885FC01828197
:102190009381019709F078944B855C858F819885B0
:1021A00029853A85BA01F90109959D838C838FE5CC
:1021B00090E0FC01808180788E83F8948F819885EF
:1021C000FC01118210828F819885FC0182819381AC
:1021D0009A83898389819A81892B91F089819A8157
:1021E000019771F08F819885FC0113821282898199
:1021F0009A81FC011582148289819A810E94820D44
:102200008B81882309F078948C819D812C960FB660
:10221000F894DEBF0FBECDBFDF91CF910895CF936D
:10222000DF9300D000D01F92CDB7DEB79D838C83A3
:102230008FE590E0FC01808180788B83F8948C811D
:102240009D8166E271E00E949C0B892B41F48C8198
:102250009D8164E271E00E949C0B892B39F08C8196
:102260009D816BE171E00E94340B3EC080911F01A3
:10227000909120019A83898333C0809121019091AC
:10228000220129813A812817390719F189819A8118
:10229000FC01228133818C819D8128173907C9F483
:1022A00089819A81FC01248135818C819D81FC0189
:1022B000828593852817390761F489819A81FC0109
:1022C000138212828C819D816BE171E00E94340B3C
:1022D0000BC089819A81FC01808191819A838983D5
:1022E00089819A81892B49F68B81882309F078941A
:1022F00000000F900F900F900F900F90DF91CF91F3
:102300000895CF93DF9300D0CDB7DEB79A8389834A
:102310008FE590E0FC01808188236CF4809121019D
:1023200090912201FC0182819381FC018281938141
:10233000A481B58108C08091280190912901A091C4
:102340002A01B0912B0129813A81F901808391837F
:10235000A283B38300000F900F90DF91CF91089577
:10236000CF93DF9300D0CDB7DEB79A8389838FE513
:1023700090E0FC01808188236CF480912101909190
:102380002201FC0182819381FC0182819381A481DD
:10239000B58108C08091280190912901A0912A015E
:1023A000B0912B0129813A81F9012081318142814B
:1023B0005381821B930BA40BB50BBC01CD010F9075
:1023C0000F90DF91CF910895EF92FF920F931F939B
:1023D000CF93DF9300D000D01F92CDB7DEB78FE54B
:1023E00090E0FC01808180788D83F89480912C01AD
:1023F00090912D01092E000CAA0BBB0BAC013327C9
:10240000222784E890E0FC0180819181CC01A0E04A
:10241000B0E0822B932BA42BB52B89839A83AB83BB
:10242000BC8386E390E0FC018081882F90E081707E
:102430009927892BE1F080912C0190912D01019633
:10244000092E000CAA0BBB0BAC013327222784E812
:1024500090E0FC0180819181CC01A0E0B0E0822B72
:10246000932BA42BB52B89839A83AB83BC838D815B
:10247000882309F078948D81882369F08091210167
:1024800090912201FC0182819381FC0182819381E0
:10249000A481B58108C08091280190912901A09163
:1024A0002A01B0912B0129813A814B815C8179010C
:1024B0008A01E81AF90A0A0B1B0BD801C701BC01F3
:1024C000CD010F900F900F900F900F90DF91CF9153
:1024D0001F910F91FF90EF900895CF93DF9300D05D
:1024E000CDB7DEB71A8219821EC089819A81019602
:1024F00082959295907F9827807F98279C01295FED
:102500003D4F89819A8182959295907F9827807F0F
:102510009827895F9D4FFC013183208389819A81AF
:1025200001969A83898389819A810E97F4F2109299
:10253000E8021092E7021A82198220C089819A81EA
:102540009C012F5F3F4F4DE1429FC001439F900D83
:1025500011249C012E5A3E4F49815A816DE1649F9E
:10256000C001659F900D11248E5A9E4FFC0131834E
:10257000208389819A8101969A83898389819A81AE
:102580000397E4F21092AA011092A9011A8219820B
:1025900066C029813A814DE1429FC001439F900D61
:1025A000112406968E5A9E4F0E94E71829813A817F
:1025B0004DE1429FC001439F900D112406968E5A13
:1025C0009E4F409649815A8160E6649F9001659FC5
:1025D000300D112429503D4F245A3F4FFC013183C7
:1025E000208329813A814DE1429FC001439F900D94
:1025F000112406968E5A9E4F429649815A8160E672
:10260000649F9001659F300D112429503D4F245A3D
:102610003F4FFC013183208329813A814DE1429F64
:10262000C001439F900D112406968E5A9E4F4596E9
:1026300025EA3DE0FC013183208329813A814DE187
:10264000429FC001439F900D11248A5A9E4FFC0166
:102650001182108289819A8101969A838983898166
:102660009A8104970CF495CF1092EB011092EA0135
:102670001092EF011092EE011092ED011092EC0118
:1026800081E690E020E8FC01208381E690E0FC01F7
:10269000108284E890E0FC011182108281E890E0D1
:1026A00024E0FC0120838FE690E021E0FC01208300
:1026B00000000F900F90DF91CF910895CF93DF939B
:1026C00000D000D000D0CDB7DEB79B838A837D8356
:1026D0006C834E838E81823150F58FE590E0FC0152
:1026E000808180788983F8948E81882F90E0880F8C
:1026F000991F825D9E4F2A813B81FC01318320839B
:102700008E81882F90E0880F991F8A539E4F2C81CD
:102710003D81FC01318320838A819B8121E030E06F
:10272000FC01338322838981882309F07894000097
:1027300026960FB6F894DEBF0FBECDBFDF91CF91C6
:102740000895CF92DF92EF92FF920F931F93CF9352
:10275000DF93CDB7DEB727970FB6F894DEBF0FBE75
:10276000CDBF9B838A837D836C835F834E838FE59C
:1027700090E0FC01808180788983F8940E946D123A
:1027800078948C819D81892B89F04E815F812C8189
:102790003D818A819B816A0179018C0120E030E0D2
:1027A000A90160E070E0CB010E94A40E8FE590E0EB
:1027B000FC01808180788983F8940E94420E80E039
:1027C00090E027960FB6F894DEBF0FBECDBFDF9125
:1027D000CF911F910F91FF90EF90DF90CF900895D0
:1027E000CF93DF9300D000D0CDB7DEB79B838A8331
:1027F0006C838A819B81FC01848189838A819B818E
:102800002981FC0125838A819B812C81FC01248301
:1028100000000F900F900F900F90DF91CF910895CF
:10282000CF93DF9300D01F92CDB7DEB79B838A830F
:102830008A819B81FC018681898389810F900F9019
:102840000F90DF91CF910895CF93DF9300D01F9227
:10285000CDB7DEB79B838A838A819B81FC0184810B
:10286000898389810F900F900F90DF91CF91089508
:10287000CF93DF9300D01F92CDB7DEB79B838A83BF
:102880008A819B81FC018581898389810F900F90CA
:102890000F90DF91CF910895CF93DF93CDB7DEB73F
:1028A00067970FB6F894DEBF0FBECDBF9E8B8D8BA2
:1028B0006F8B8F89803318F08F898A3318F080E00E
:1028C00090E038C081E595E19A83898380E191E0C9
:1028D0009C838B8381EE91E19E838D8381EB91E1DB
:1028E00098878F8380EB95E09A87898781EB94E1C5
:1028F0009C878B8781EF94E19E878D8780E191E1B2
:10290000988B8F8781EF95E19A8B898B80EB95E18E
:102910009C8B8B8B1E8A1D8A8F89882F90E0C09795
:10292000880F991F9E012F5F3F4F820F931FFC015D
:102930008081918167960FB6F894DEBF0FBECDBF40
:10294000DF91CF910895CF93DF93CDB7DEB7609736
:102950000FB6F894DEBF0FBECDBF9D878C876E8704
:10296000588B4F878F85988999230CF4AFC08F853A
:10297000988906970CF0AAC01F821E8219821A82BB
:102980001B821C8218861D8219868C859D856E850A
:102990000E944C149F838E838F8598899595879587
:1029A00089878F85988981709927892BE9F48E8191
:1029B0009F81892F992782958F7089838E819F812E
:1029C000892F99278F708A838E819F819295829516
:1029D0008F7089279F7089278F708B838E818F706E
:1029E0008C8380EF8D8319C08E819F81892F9927D9
:1029F000807F89838E819F81929582958F708927B0
:102A00009F708927807F8A838E81807F8B838E81D0
:102A10008295807F8C838FE08D838CEE90E09B8706
:102A20008A878985882F90E02A853B85820F931FAE
:102A30009B878A878A859B85FC0190818D8189236C
:102A4000888798858981292F282B8A859B85FC0179
:102A500020838A859B8505969B878A878A859B85A7
:102A6000FC0190818D818923888798858A81292F0F
:102A7000282B8A859B85FC0120838A859B8505966A
:102A80009B878A878A859B85FC0190818D8189231C
:102A9000888798858B81292F282B8A859B85FC0127
:102AA00020838A859B8505969B878A878A859B8557
:102AB000FC0190818D818923888798858C81292FBD
:102AC000282B8A859B85FC01208301C0000060962D
:102AD0000FB6F894DEBF0FBECDBFDF91CF91089542
:102AE000CF93DF93CDB7DEB72A970FB6F894DEBF4A
:102AF0000FBECDBF9C838B834D835E836F837887AE
:102B00003A87298789859A859A8389838D819E81D1
:102B1000AF81B88524E630E040E050E0BC01CD0153
:102B20000E94A618DC01CB012AE030E040E050E032
:102B3000BC01CD010E94A618DA01C90160E3680F4B
:102B400029813A818B819C81A9010E94A3148981EA
:102B50009A8101969A8389838D819E81AF81B88500
:102B60002AE030E040E050E0BC01CD010E94A61810
:102B7000DC01CB0160E3680F29813A818B819C8164
:102B8000A9010E94A31400002A960FB6F894DEBF94
:102B90000FBECDBFDF91CF910895CF93DF9300D0CB
:102BA00000D0CDB7DEB79C838B838B819C81FC01E9
:102BB0008481882F90E0A0E0B0E0EB81FC8120E0F0
:102BC00030E0AC01BD01CF010E9470158B819C816A
:102BD000FC018581882F90E0A0E0B0E0EB81FC81D2
:102BE00024E030E0AC01BD01CF010E9470158B8163
:102BF0009C81FC0186818823C1F48CEE90E02CEE50
:102C000030E0F90120812460FC0120838FEB89836F
:102C10008CEE90E0FC019081898189238A838CEE7F
:102C200090E02A81FC01208317C08CEE90E02CEE0E
:102C300030E0F90120812064FC0120838BEF89833F
:102C40008CEE90E0FC019081898189238A838CEE4F
:102C500090E02A81FC01208300000F900F900F90DC
:102C60000F90DF91CF910895CF92DF92EF92FF9274
:102C70000F931F93CF93DF9300D0CDB7DEB79A8326
:102C8000898389819A81C12CD12C0F2EFDECEF2EE6
:102C9000F5E1FF2EF02D8C0120E030E0A90160E08D
:102CA00070E0CB010E94A40E8CE290E0FC018081D8
:102CB00086958695882F90E081709927892B29F435
:102CC00089819A81FC01168212C08CE290E0FC019D
:102CD0008081869586958695882F90E081709927CA
:102CE000892B29F489819A8121E0FC01268383E2E2
:102CF00090E0FC0180818295869586958370882F6F
:102D000090E081709927892BD1F489819A81FC0107
:102D10008681282F30E089819A8169010F2EFFE397
:102D2000EF2EF7E1FF2EF02D8C0120E030E0A9011D
:102D300065E37CE080E090E00E94A40E26C083E280
:102D400090E0FC018081881F8827881F882F90E0F1
:102D500081709927892BC9F489819A81FC01868128
:102D6000282F30E089819A8169010F2EF3EFEF2E31
:102D7000F7E1FF2EF02D8C0120E030E0A90165E3A2
:102D80007CE080E090E00E94A40E83E290E0FC01F1
:102D9000808182958F70882F90E081709927892B90
:102DA00009F061C089819A81FC018681882371F5CF
:102DB00089819A81FC018481882361F489819A81C7
:102DC000FC0187819085FC01248189819A81FC0125
:102DD000248349C089819A81FC018481282F30E0B5
:102DE00089819A81FC018781908569010F2EF0EF1E
:102DF000EF2EF3E1FF2EF02D8C0120E030E0A90151
:102E000060E070E0CB010E94A40E2DC089819A8100
:102E1000FC018581882361F489819A81FC01818587
:102E20009285FC01248189819A81FC0125831BC044
:102E300089819A81FC018581282F30E089819A81DE
:102E4000FC018185928569010F2EF0EFEF2EF3E1F1
:102E5000FF2EF02D8C0120E030E0A90160E070E051
:102E6000CB010E94A40E00000F900F90DF91CF9134
:102E70001F910F91FF90EF90DF90CF900895CF9228
:102E8000DF92EF92FF920F931F93CF93DF9300D0C7
:102E900000D0CDB7DEB79A8389837C836B8383E2CE
:102EA00090E0FC0180818295869586958370882FBD
:102EB00090E081709927892BE1F52B813C818981F4
:102EC0009A8169010F2EF7EAEF2EF7E1FF2EF02D20
:102ED0008C0120E030E0A90160E070E0CB010E94AD
:102EE000A40E89819A81C12CD12C0F2EFDECEF2EDE
:102EF000F5E1FF2EF02D8C0120E030E0A90160E02B
:102F000070E0CB010E94A40E2B813C8189819A81C3
:102F100069010F2EFFE3EF2EF7E1FF2EF02D8C015C
:102F200020E030E0A9016BE177EB80E090E00E94C7
:102F3000A40E00000F900F900F900F90DF91CF9193
:102F40001F910F91FF90EF90DF90CF900895CF9356
:102F5000DF9300D000D000D0CDB7DEB79C838B8349
:102F60007E836D838D819E81892BC1F48B819C81B1
:102F7000FC018481882F90E09A83898389819A81DA
:102F8000833691052CF489819A8101969A838983ED
:102F900029818B819C81FC0124831BC08D819E81B2
:102FA0000197B9F48B819C81FC018581882F90E089
:102FB0009A83898389819A81833691052CF489814A
:102FC0009A8101969A83898329818B819C81FC0156
:102FD0002583000026960FB6F894DEBF0FBECDBF46
:102FE000DF91CF910895CF92DF92EF92FF920F93EE
:102FF0001F93CF93DF9300D000D0CDB7DEB79A8375
:1030000089837C836B8383E290E0FC018081881F4D
:103010008827881F882F90E081709927892BE1F5F8
:103020002B813C8189819A8169010F2EFAE5EF2E6F
:10303000F8E1FF2EF02D8C0120E030E0A90160E0E6
:1030400070E0CB010E94A40E89819A81C12CD12C01
:103050000F2EFDECEF2EF5E1FF2EF02D8C0120E080
:1030600030E0A90160E070E0CB010E94A40E2B814A
:103070003C8189819A8169010F2EF3EFEF2EF7E1F0
:10308000FF2EF02D8C0120E030E0A9016BE177EB01
:1030900080E090E00E94A40E00000F900F900F902F
:1030A0000F90DF91CF911F910F91FF90EF90DF90E4
:1030B000CF900895CF93DF9300D000D000D0CDB74C
:1030C000DEB79C838B837E836D838D819E81892B6C
:1030D000C1F48B819C81FC018481882F90E09A83CC
:1030E000898389819A81181619062CF489819A811D
:1030F00001979A83898329818B819C81FC01248398
:103100001BC08D819E810197B9F48B819C81FC014C
:103110008581882F90E09A83898389819A81181606
:1031200019062CF489819A8101979A8389832981D0
:103130008B819C81FC012583000026960FB6F894B4
:10314000DEBF0FBECDBFDF91CF910895052E97FB57
:103150001EF400940E94BD1857FD07D00E94C518A8
:1031600007FC03D04EF40C94BD1850954095309553
:1031700021953F4F4F4F5F4F0895909580957095E3
:1031800061957F4F8F4F9F4F0895A1E21A2EAA1B82
:10319000BB1BFD010DC0AA1FBB1FEE1FFF1FA21707
:1031A000B307E407F50720F0A21BB30BE40BF50B04
:1031B000661F771F881F991F1A9469F7609570958D
:1031C000809590959B01AC01BD01CF010895DC0174
:1031D0002D923D924D925D926D927D928D929D9237
:1031E000AD92BD92CD92DD92ED92FD920D931D9325
:1031F000CD93DD93FF91EF918DB78D938EB78D9326
:103200008FB78D93ED93FD93882799270994DC015F
:10321000CB0181309105811D2D903D904D905D90A9
:103220006D907D908D909D90AD90BD90CD90DD90F6
:10323000ED90FD900D911D91CD91DD91ED91FD9160
:103240000D90F894FEBF0FBEEDBFED91FD91099476
:04325000F894FFCF20
:103254000000000001010000000000000001000067
:10326400000001000000010701000007025201EA0A
:0432740001EA01006A
:00000001FF
