:100000000C942E000C94A3000C942B010C94B301BF
:100010000C943B020C94C3020C944B000C947B0C8C
:100020000C944B000C94ED0B0C944B030C94D303E9
:100030000C945B040C94E3040C946B050C94F30592
:100040000C947B060C9403070C948B070C941308F8
:100050000C949B080C9423090C94AB0911241FBE2B
:10006000CFEFD4E0DEBFCDBF11E0A0E0B1E0E0EC27
:10007000FCE202C005900D92A231B107D9F724E04D
:10008000A2E1B1E001C01D92A536B207E1F70E94DE
:100090004D000C945E160C940000CF93DF93CDB707
:1000A000DEB781E690E020E8FC01208381E690E065
:1000B000FC0110820E9470000E948C0042E06AE9FC
:1000C00075E180E091E00E94561340E050E069E65F
:1000D00075E180E091E00E949913DF91CF9108953E
:1000E000CF93DF93CDB7DEB784EE90E020ECFC0138
:1000F000208385EE90E027EBFC01208386EE90E0E4
:1001000027E0FC01208387EE90E02FE0FC012083B4
:100110000000DF91CF910895CF93DF93CDB7DEB785
:1001200085E290E020E8FC0120838CE690E020E866
:10013000FC0120838DE390E020E8FC012083000097
:10014000DF91CF9108951F920F9200905F000F9260
:1001500011242F933F934F935F936F937F938F93CC
:100160009F93AF93BF93EF93FF93CF93DF93CDB75D
:10017000DEB780911A0190911B01092E000CAA0B89
:10018000BB0BAC013327222784E890E0FC0180817F
:100190009181CC01A0E0B0E0822B932BA42BB52B56
:1001A0008093160190931701A0931801B093190141
:1001B00086E390E0FC018081882F90E08170992790
:1001C000892B01F180911A0190911B010196092E52
:1001D000000CAA0BBB0BAC013327222784E890E06C
:1001E000FC0180819181CC01A0E0B0E0822B932BB7
:1001F000A42BB52B8093160190931701A09318019F
:10020000B09319018091B4019091B501892B61F0EF
:100210002091B4013091B50180911C0190911D0194
:1002200060E070E0F90109950E94480E0000DF913E
:10023000CF91FF91EF91BF91AF919F918F917F915E
:100240006F915F914F913F912F910F9000925F00BE
:100250000F901F9018951F920F9200905F000F92C1
:1002600011242F933F934F935F936F937F938F93BB
:100270009F93AF93BF93EF93FF93CF93DF93CDB74C
:10028000DEB780911A0190911B01092E000CAA0B78
:10029000BB0BAC013327222784E890E0FC0180816E
:1002A0009181CC01A0E0B0E0822B932BA42BB52B45
:1002B0008093160190931701A0931801B093190130
:1002C00086E390E0FC018081882F90E0817099277F
:1002D000892B01F180911A0190911B010196092E41
:1002E000000CAA0BBB0BAC013327222784E890E05B
:1002F000FC0180819181CC01A0E0B0E0822B932BA6
:10030000A42BB52B8093160190931701A09318018D
:10031000B09319018091B6019091B701892B61F0DA
:100320002091B6013091B70180911E0190911F017B
:1003300061E070E0F90109950E94480E0000DF912C
:10034000CF91FF91EF91BF91AF919F918F917F914D
:100350006F915F914F913F912F910F9000925F00AD
:100360000F901F9018951F920F9200905F000F92B0
:1003700011242F933F934F935F936F937F938F93AA
:100380009F93AF93BF93EF93FF93CF93DF93CDB73B
:10039000DEB780911A0190911B01092E000CAA0B67
:1003A000BB0BAC013327222784E890E0FC0180815D
:1003B0009181CC01A0E0B0E0822B932BA42BB52B34
:1003C0008093160190931701A0931801B09319011F
:1003D00086E390E0FC018081882F90E0817099276E
:1003E000892B01F180911A0190911B010196092E30
:1003F000000CAA0BBB0BAC013327222784E890E04A
:10040000FC0180819181CC01A0E0B0E0822B932B94
:10041000A42BB52B8093160190931701A09318017C
:10042000B09319018091B8019091B901892B61F0C5
:100430002091B8013091B901809120019091210162
:1004400062E070E0F90109950E94480E0000DF911A
:10045000CF91FF91EF91BF91AF919F918F917F913C
:100460006F915F914F913F912F910F9000925F009C
:100470000F901F9018951F920F9200905F000F929F
:1004800011242F933F934F935F936F937F938F9399
:100490009F93AF93BF93EF93FF93CF93DF93CDB72A
:1004A000DEB780911A0190911B01092E000CAA0B56
:1004B000BB0BAC013327222784E890E0FC0180814C
:1004C0009181CC01A0E0B0E0822B932BA42BB52B23
:1004D0008093160190931701A0931801B09319010E
:1004E00086E390E0FC018081882F90E0817099275D
:1004F000892B01F180911A0190911B010196092E1F
:10050000000CAA0BBB0BAC013327222784E890E038
:10051000FC0180819181CC01A0E0B0E0822B932B83
:10052000A42BB52B8093160190931701A09318016B
:10053000B09319018091BA019091BB01892B61F0B0
:100540002091BA013091BB01809122019091230149
:1005500063E070E0F90109950E94480E0000DF9108
:10056000CF91FF91EF91BF91AF919F918F917F912B
:100570006F915F914F913F912F910F9000925F008B
:100580000F901F9018951F920F9200905F000F928E
:1005900011242F933F934F935F936F937F938F9388
:1005A0009F93AF93BF93EF93FF93CF93DF93CDB719
:1005B000DEB780911A0190911B01092E000CAA0B45
:1005C000BB0BAC013327222784E890E0FC0180813B
:1005D0009181CC01A0E0B0E0822B932BA42BB52B12
:1005E0008093160190931701A0931801B0931901FD
:1005F00086E390E0FC018081882F90E0817099274C
:10060000892B01F180911A0190911B010196092E0D
:10061000000CAA0BBB0BAC013327222784E890E027
:10062000FC0180819181CC01A0E0B0E0822B932B72
:10063000A42BB52B8093160190931701A09318015A
:10064000B09319018091BC019091BD01892B61F09B
:100650002091BC013091BD01809124019091250130
:1006600064E070E0F90109950E94480E0000DF91F6
:10067000CF91FF91EF91BF91AF919F918F917F911A
:100680006F915F914F913F912F910F9000925F007A
:100690000F901F9018951F920F9200905F000F927D
:1006A00011242F933F934F935F936F937F938F9377
:1006B0009F93AF93BF93EF93FF93CF93DF93CDB708
:1006C000DEB780911A0190911B01092E000CAA0B34
:1006D000BB0BAC013327222784E890E0FC0180812A
:1006E0009181CC01A0E0B0E0822B932BA42BB52B01
:1006F0008093160190931701A0931801B0931901EC
:1007000086E390E0FC018081882F90E0817099273A
:10071000892B01F180911A0190911B010196092EFC
:10072000000CAA0BBB0BAC013327222784E890E016
:10073000FC0180819181CC01A0E0B0E0822B932B61
:10074000A42BB52B8093160190931701A093180149
:10075000B09319018091BE019091BF01892B61F086
:100760002091BE013091BF01809126019091270117
:1007700065E070E0F90109950E94480E0000DF91E4
:10078000CF91FF91EF91BF91AF919F918F917F9109
:100790006F915F914F913F912F910F9000925F0069
:1007A0000F901F9018951F920F9200905F000F926C
:1007B00011242F933F934F935F936F937F938F9366
:1007C0009F93AF93BF93EF93FF93CF93DF93CDB7F7
:1007D000DEB780911A0190911B01092E000CAA0B23
:1007E000BB0BAC013327222784E890E0FC01808119
:1007F0009181CC01A0E0B0E0822B932BA42BB52BF0
:100800008093160190931701A0931801B0931901DA
:1008100086E390E0FC018081882F90E08170992729
:10082000892B01F180911A0190911B010196092EEB
:10083000000CAA0BBB0BAC013327222784E890E005
:10084000FC0180819181CC01A0E0B0E0822B932B50
:10085000A42BB52B8093160190931701A093180138
:10086000B09319018091C0019091C101892B61F071
:100870002091C0013091C1018091280190912901FE
:1008800066E070E0F90109950E94480E0000DF91D2
:10089000CF91FF91EF91BF91AF919F918F917F91F8
:1008A0006F915F914F913F912F910F9000925F0058
:1008B0000F901F9018951F920F9200905F000F925B
:1008C00011242F933F934F935F936F937F938F9355
:1008D0009F93AF93BF93EF93FF93CF93DF93CDB7E6
:1008E000DEB780911A0190911B01092E000CAA0B12
:1008F000BB0BAC013327222784E890E0FC01808108
:100900009181CC01A0E0B0E0822B932BA42BB52BDE
:100910008093160190931701A0931801B0931901C9
:1009200086E390E0FC018081882F90E08170992718
:10093000892B01F180911A0190911B010196092EDA
:10094000000CAA0BBB0BAC013327222784E890E0F4
:10095000FC0180819181CC01A0E0B0E0822B932B3F
:10096000A42BB52B8093160190931701A093180127
:10097000B09319018091C2019091C301892B61F05C
:100980002091C2013091C30180912A0190912B01E5
:1009900067E070E0F90109950E94480E0000DF91C0
:1009A000CF91FF91EF91BF91AF919F918F917F91E7
:1009B0006F915F914F913F912F910F9000925F0047
:1009C0000F901F9018951F920F9200905F000F924A
:1009D00011242F933F934F935F936F937F938F9344
:1009E0009F93AF93BF93EF93FF93CF93DF93CDB7D5
:1009F000DEB780911A0190911B01092E000CAA0B01
:100A0000BB0BAC013327222784E890E0FC018081F6
:100A10009181CC01A0E0B0E0822B932BA42BB52BCD
:100A20008093160190931701A0931801B0931901B8
:100A300086E390E0FC018081882F90E08170992707
:100A4000892B01F180911A0190911B010196092EC9
:100A5000000CAA0BBB0BAC013327222784E890E0E3
:100A6000FC0180819181CC01A0E0B0E0822B932B2E
:100A7000A42BB52B8093160190931701A093180116
:100A8000B09319018091C4019091C501892B61F047
:100A90002091C4013091C50180912C0190912D01CC
:100AA00068E070E0F90109950E94480E0000DF91AE
:100AB000CF91FF91EF91BF91AF919F918F917F91D6
:100AC0006F915F914F913F912F910F9000925F0036
:100AD0000F901F9018951F920F9200905F000F9239
:100AE00011242F933F934F935F936F937F938F9333
:100AF0009F93AF93BF93EF93FF93CF93DF93CDB7C4
:100B0000DEB780911A0190911B01092E000CAA0BEF
:100B1000BB0BAC013327222784E890E0FC018081E5
:100B20009181CC01A0E0B0E0822B932BA42BB52BBC
:100B30008093160190931701A0931801B0931901A7
:100B400086E390E0FC018081882F90E081709927F6
:100B5000892B01F180911A0190911B010196092EB8
:100B6000000CAA0BBB0BAC013327222784E890E0D2
:100B7000FC0180819181CC01A0E0B0E0822B932B1D
:100B8000A42BB52B8093160190931701A093180105
:100B9000B09319018091C6019091C701892B61F032
:100BA0002091C6013091C70180912E0190912F01B3
:100BB00069E070E0F90109950E94480E0000DF919C
:100BC000CF91FF91EF91BF91AF919F918F917F91C5
:100BD0006F915F914F913F912F910F9000925F0025
:100BE0000F901F9018951F920F9200905F000F9228
:100BF00011242F933F934F935F936F937F938F9322
:100C00009F93AF93BF93EF93FF93CF93DF93CDB7B2
:100C1000DEB780911A0190911B01092E000CAA0BDE
:100C2000BB0BAC013327222784E890E0FC018081D4
:100C30009181CC01A0E0B0E0822B932BA42BB52BAB
:100C40008093160190931701A0931801B093190196
:100C500086E390E0FC018081882F90E081709927E5
:100C6000892B01F180911A0190911B010196092EA7
:100C7000000CAA0BBB0BAC013327222784E890E0C1
:100C8000FC0180819181CC01A0E0B0E0822B932B0C
:100C9000A42BB52B8093160190931701A0931801F4
:100CA000B09319018091C8019091C901892B61F01D
:100CB0002091C8013091C90180913001909131019A
:100CC0006AE070E0F90109950E94480E0000DF918A
:100CD000CF91FF91EF91BF91AF919F918F917F91B4
:100CE0006F915F914F913F912F910F9000925F0014
:100CF0000F901F9018951F920F9200905F000F9217
:100D000011242F933F934F935F936F937F938F9310
:100D10009F93AF93BF93EF93FF93CF93DF93CDB7A1
:100D2000DEB780911A0190911B01092E000CAA0BCD
:100D3000BB0BAC013327222784E890E0FC018081C3
:100D40009181CC01A0E0B0E0822B932BA42BB52B9A
:100D50008093160190931701A0931801B093190185
:100D600086E390E0FC018081882F90E081709927D4
:100D7000892B01F180911A0190911B010196092E96
:100D8000000CAA0BBB0BAC013327222784E890E0B0
:100D9000FC0180819181CC01A0E0B0E0822B932BFB
:100DA000A42BB52B8093160190931701A0931801E3
:100DB000B09319018091CA019091CB01892B61F008
:100DC0002091CA013091CB01809132019091330181
:100DD0006BE070E0F90109950E94480E0000DF9178
:100DE000CF91FF91EF91BF91AF919F918F917F91A3
:100DF0006F915F914F913F912F910F9000925F0003
:100E00000F901F9018951F920F9200905F000F9205
:100E100011242F933F934F935F936F937F938F93FF
:100E20009F93AF93BF93EF93FF93CF93DF93CDB790
:100E3000DEB780911A0190911B01092E000CAA0BBC
:100E4000BB0BAC013327222784E890E0FC018081B2
:100E50009181CC01A0E0B0E0822B932BA42BB52B89
:100E60008093160190931701A0931801B093190174
:100E700086E390E0FC018081882F90E081709927C3
:100E8000892B01F180911A0190911B010196092E85
:100E9000000CAA0BBB0BAC013327222784E890E09F
:100EA000FC0180819181CC01A0E0B0E0822B932BEA
:100EB000A42BB52B8093160190931701A0931801D2
:100EC000B09319018091CC019091CD01892B61F0F3
:100ED0002091CC013091CD01809134019091350168
:100EE0006CE070E0F90109950E94480E0000DF9166
:100EF000CF91FF91EF91BF91AF919F918F917F9192
:100F00006F915F914F913F912F910F9000925F00F1
:100F10000F901F9018951F920F9200905F000F92F4
:100F200011242F933F934F935F936F937F938F93EE
:100F30009F93AF93BF93EF93FF93CF93DF93CDB77F
:100F4000DEB780911A0190911B01092E000CAA0BAB
:100F5000BB0BAC013327222784E890E0FC018081A1
:100F60009181CC01A0E0B0E0822B932BA42BB52B78
:100F70008093160190931701A0931801B093190163
:100F800086E390E0FC018081882F90E081709927B2
:100F9000892B01F180911A0190911B010196092E74
:100FA000000CAA0BBB0BAC013327222784E890E08E
:100FB000FC0180819181CC01A0E0B0E0822B932BD9
:100FC000A42BB52B8093160190931701A0931801C1
:100FD000B09319018091CE019091CF01892B61F0DE
:100FE0002091CE013091CF0180913601909137014F
:100FF0006DE070E0F90109950E94480E0000DF9154
:10100000CF91FF91EF91BF91AF919F918F917F9180
:101010006F915F914F913F912F910F9000925F00E0
:101020000F901F9018951F920F9200905F000F92E3
:1010300011242F933F934F935F936F937F938F93DD
:101040009F93AF93BF93EF93FF93CF93DF93CDB76E
:10105000DEB780911A0190911B01092E000CAA0B9A
:10106000BB0BAC013327222784E890E0FC01808190
:101070009181CC01A0E0B0E0822B932BA42BB52B67
:101080008093160190931701A0931801B093190152
:1010900086E390E0FC018081882F90E081709927A1
:1010A000892B01F180911A0190911B010196092E63
:1010B000000CAA0BBB0BAC013327222784E890E07D
:1010C000FC0180819181CC01A0E0B0E0822B932BC8
:1010D000A42BB52B8093160190931701A0931801B0
:1010E000B09319018091D0019091D101892B61F0C9
:1010F0002091D0013091D101809138019091390136
:101100006EE070E0F90109950E94480E0000DF9141
:10111000CF91FF91EF91BF91AF919F918F917F916F
:101120006F915F914F913F912F910F9000925F00CF
:101130000F901F9018951F920F9200905F000F92D2
:1011400011242F933F934F935F936F937F938F93CC
:101150009F93AF93BF93EF93FF93CF93DF93CDB75D
:10116000DEB780911A0190911B01092E000CAA0B89
:10117000BB0BAC013327222784E890E0FC0180817F
:101180009181CC01A0E0B0E0822B932BA42BB52B56
:101190008093160190931701A0931801B093190141
:1011A00086E390E0FC018081882F90E08170992790
:1011B000892B01F180911A0190911B010196092E52
:1011C000000CAA0BBB0BAC013327222784E890E06C
:1011D000FC0180819181CC01A0E0B0E0822B932BB7
:1011E000A42BB52B8093160190931701A09318019F
:1011F000B09319018091D2019091D301892B61F0B4
:101200002091D2013091D30180913A0190913B011C
:101210006FE070E0F90109950E94480E0000DF912F
:10122000CF91FF91EF91BF91AF919F918F917F915E
:101230006F915F914F913F912F910F9000925F00BE
:101240000F901F9018951F920F9200905F000F92C1
:1012500011242F933F934F935F936F937F938F93BB
:101260009F93AF93BF93EF93FF93CF93DF93CDB74C
:10127000DEB780911A0190911B01092E000CAA0B78
:10128000BB0BAC013327222784E890E0FC0180816E
:101290009181CC01A0E0B0E0822B932BA42BB52B45
:1012A0008093160190931701A0931801B093190130
:1012B00086E390E0FC018081882F90E0817099277F
:1012C000892B01F180911A0190911B010196092E41
:1012D000000CAA0BBB0BAC013327222784E890E05B
:1012E000FC0180819181CC01A0E0B0E0822B932BA6
:1012F000A42BB52B8093160190931701A09318018E
:10130000B09319018091D4019091D501892B61F09E
:101310002091D4013091D50180913C0190913D0103
:1013200060E170E0F90109950E94480E0000DF912C
:10133000CF91FF91EF91BF91AF919F918F917F914D
:101340006F915F914F913F912F910F9000925F00AD
:101350000F901F9018951F920F9200905F000F92B0
:1013600011242F933F934F935F936F937F938F93AA
:101370009F93AF93BF93EF93FF93CF93DF93CDB73B
:10138000DEB780911A0190911B01092E000CAA0B67
:10139000BB0BAC013327222784E890E0FC0180815D
:1013A0009181CC01A0E0B0E0822B932BA42BB52B34
:1013B0008093160190931701A0931801B09319011F
:1013C00086E390E0FC018081882F90E0817099276E
:1013D000892B01F180911A0190911B010196092E30
:1013E000000CAA0BBB0BAC013327222784E890E04A
:1013F000FC0180819181CC01A0E0B0E0822B932B95
:10140000A42BB52B8093160190931701A09318017C
:10141000B09319018091D6019091D701892B61F089
:101420002091D6013091D70180913E0190913F01EA
:1014300061E170E0F90109950E94480E0000DF911A
:10144000CF91FF91EF91BF91AF919F918F917F913C
:101450006F915F914F913F912F910F9000925F009C
:101460000F901F901895CF93DF93CDB7DEB72897D5
:101470000FB6F894DEBF0FBECDBF9E838D837887F5
:101480006F831A8219828F819885FC0180819181F6
:101490009C838B830BC08B819C819A8389838B81F6
:1014A0009C81FC01808191819C838B838B819C81B9
:1014B000892B99F08B819C81FC01268137814085A5
:1014C00051858D819E81FC0186819781A085B185A2
:1014D00082179307A407B507F4F68D819E812B81AF
:1014E0003C81FC013183208389819A81892B41F4DD
:1014F0008F8198852D813E81FC013183208307C037
:1015000089819A812D813E81FC01318320830000F5
:1015100028960FB6F894DEBF0FBECDBFDF91CF91F6
:101520000895CF93DF93CDB7DEB728970FB6F89421
:10153000DEBF0FBECDBF9E838D8378876F831A82F7
:1015400019828F819885FC01808191819C838B8396
:101550000BC08B819C819A8389838B819C81FC0148
:10156000808191819C838B838B819C81892B99F0D5
:101570008B819C81FC0122813381448155818D8145
:101580009E81FC0182819381A481B581821793079A
:10159000A407B507F4F68D819E812B813C81FC0167
:1015A0003183208389819A81892B41F48F819885A9
:1015B0002D813E81FC013183208307C089819A817E
:1015C0002D813E81FC0131832083000028960FB6D7
:1015D000F894DEBF0FBECDBFDF91CF910895CF93BA
:1015E000DF9300D000D0CDB7DEB79C838B838B8197
:1015F0009C81FC01808191819A83898389819A8170
:10160000892B59F089819A81FC01208131818B815C
:101610009C81FC013183208316C08CEE90E02FEF7B
:10162000FC0120838DEE90E02FEFFC0120838EEEF5
:1016300090E02FEFFC01208383E590E021E0FC01A6
:1016400020838895F9CF89819A810F900F900F9010
:101650000F90DF91CF910895CF93DF9300D000D00A
:10166000CDB7DEB79A8389837C836B838B819C8122
:10167000FC012081318189819A81FC0131832083A1
:101680008B819C8129813A81FC0131832083000078
:101690000F900F900F900F90DF91CF910895CF93FF
:1016A000DF9300D000D0CDB7DEB79A8389837C83E7
:1016B0006B838B819C81FC012081318189819A819E
:1016C000FC01318320838B819C8129813A81FC013B
:1016D0003183208300000F900F900F900F90DF91C7
:1016E000CF910895CF93DF9300D000D0CDB7DEB770
:1016F0009C838B838B819C81FC01808191819A8367
:10170000898389819A81FC01208131818B819C812F
:10171000FC013183208389819A810F900F900F9073
:101720000F90DF91CF910895CF93DF93CDB7DEB7C0
:1017300028970FB6F894DEBF0FBECDBF9E838D8372
:1017400078876F831A8219828F819885FC01808146
:1017500091819C838B830BC08B819C819A8389832D
:101760008B819C81FC01808191819C838B838B8107
:101770009C81892B39F02B813C818D819E8128179A
:10178000390751F78B819C81892BE1F089819A81FE
:10179000892B59F08B819C81FC01208131818981C9
:1017A0009A81FC01318320830AC08B819C81FC01DA
:1017B000208131818F819885FC013183208381E0F4
:1017C00090E002C080E090E028960FB6F894DEBF6B
:1017D0000FBECDBFDF91CF9108951F920F92009061
:1017E0005F000F9211242F933F934F935F936F935A
:1017F0007F938F939F93AF93BF93EF93FF93CF9379
:10180000DF93CDB7DEB780911A0190911B0101964D
:1018100090931B0180931A018091140190911501FE
:10182000892B09F44AC08091140190911501FC01A3
:1018300082819381A481B581CD01BB2797FDB095AD
:10184000AB2F9C0180911A0190911B012817390739
:10185000A1F528E830E08091140190911501FC0178
:1018600082819381A481B581AC0184E890E0FC0180
:1018700080819181BA01681B790BCB01019739F402
:1018800084E890E0FC0180819181019609C08091FB
:10189000140190911501FC0182819381A481B5818D
:1018A000F901918380838FE690E02FE630E0F90123
:1018B00020812260FC01208309C08FE690E02FE6A2
:1018C00030E0F90120812D7FFC0120830000DF91B1
:1018D000CF91FF91EF91BF91AF919F918F917F91A8
:1018E0006F915F914F913F912F910F9000925F0008
:1018F0000F901F9018951F920F9200905F000F920B
:101900001124EF92FF920F931F932F933F934F93C6
:101910005F936F937F938F939F93AF93BF93EF9357
:10192000FF93CF93DF9300D000D0CDB7DEB7809187
:101930001A0190911B01092E000CAA0BBB0BAC01E4
:101940003327222784E890E0FC0180819181CC013B
:10195000A0E0B0E0822B932BA42BB52B89839A8334
:10196000AB83BC8386E390E0FC018081882F90E00C
:1019700081709927892B29F180911A0190911B017F
:101980000196092E000CAA0BBB0BAC0133272227B2
:1019900084E890E0FC0180819181CC01A0E0B0E07E
:1019A000822B932BA42BB52B89839A83AB83BC8387
:1019B00008C084E191E00E94EF0A62E171E00E94B8
:1019C000330A8091140190911501892BD1F08091F7
:1019D000140190911501FC012281338144815581CC
:1019E00089819A81AB81BC8179018A01E81AF90A5F
:1019F0000A0B1B0BD801C701181619061A061B067D
:101A0000C4F68091140190911501892B09F44AC004
:101A10008091140190911501FC0182819381A48130
:101A2000B581CD01BB2797FDB095AB2F9C0180916F
:101A30001A0190911B0128173907A1F528E830E019
:101A40008091140190911501FC0182819381A48100
:101A5000B581AC0184E890E0FC01808191817A013C
:101A6000E81AF90AC701019739F484E890E0FC010B
:101A700080819181019609C0809114019091150196
:101A8000FC0182819381A481B581F90191838083D6
:101A90008FE690E02FE630E0F90120812260FC0122
:101AA000208309C08FE690E02FE630E0F901208125
:101AB0002D7FFC0120830E94480E00000F900F90A4
:101AC0000F900F90DF91CF91FF91EF91BF91AF9168
:101AD0009F918F917F916F915F914F913F912F9146
:101AE0001F910F91FF90EF900F9000925F000F9069
:101AF0001F901895CF93DF9300D0CDB7DEB79A83B0
:101B00008983809110019091110106960E941D1603
:101B1000892B69F489819A81909311018093100136
:101B200089819A81069661E070E00E943D1600006E
:101B30000F900F90DF91CF910895EF92FF920F9346
:101B40001F93CF93DF93CDB7DEB727970FB6F894E7
:101B5000DEBF0FBECDBF009110011091110182E1D7
:101B600091E00E94EF0AF80193838283F801828159
:101B700093819C838B8381E08D838D81882309F001
:101B800078948B819C81FC01468557858B819C8153
:101B9000FC01248535858B819C81FC0182859385A0
:101BA000B9010E9433108FE590E0FC0180818078BC
:101BB0008D83F8948B819C816AE071E00E942C0BEC
:101BC00080910E0190910F01FC0180819181FC01B7
:101BD000828193819F838E83809112019091130162
:101BE000892B19F18E819F81892B09F4B4CF8091C3
:101BF000120190911301FC012681378140855185A6
:101C00008E819F81FC0186819781A085B1857901B4
:101C10008A01E81AF90A0A0B1B0BD801C70118162A
:101C200019061A061B060CF096CF8EE091E00E9472
:101C3000720B6CE071E00E944F0B80910E0190914D
:101C40000F019A8389830AC089819A81FC0184816A
:101C50009581FC01808191819A83898389819A8110
:101C6000FC0184819581892B79F789819A810E9471
:101C70007A0D71CFCF93DF93CDB7DEB70E94480EB8
:101C8000789483E590E021E0FC0120838895F9CFEA
:101C9000EF92FF920F931F93CF93DF9300D0CDB7B6
:101CA000DEB780910E0190910F01FC01828193813A
:101CB0009A8389838091120190911301892B91F16C
:101CC00080910C0190910D01892B61F189819A819C
:101CD000892BD1F08091120190911301FC01268192
:101CE00037814085518589819A81FC018681978160
:101CF000A085B18579018A01E81AF90A0A0B1B0B44
:101D0000D801C701BB2374F48CE091E00E94720BF0
:101D10006EE071E00E944F0B80910E0190910F01D7
:101D20000E947A0D00000F900F90DF91CF911F91CC
:101D30000F91FF90EF900895CF92DF92EF92FF9274
:101D40000F931F93CF93DF93CDB7DEB765970FB691
:101D5000F894DEBF0FBECDBF688779878A879B87DF
:101D60002C873D874E875F87198B088BFB8AEA8A11
:101D7000DD8ACC8A8FE590E0FC01808180788D83BC
:101D8000F8948AE091E00E94EF0A9F838E838E810F
:101D90009F8128893989FC01338722878E819F8121
:101DA0002A893B89FC01358724878E819F812C8974
:101DB0003D89FC01378726878D81882369F08091D2
:101DC000100190911101FC0182819381FC018281BB
:101DD0009381A481B58108C080911601909117016B
:101DE000A0911801B0911901288539854A855B8534
:101DF000820F931FA41FB51F2E813F81F90182839B
:101E00009383A483B5838E819F81FC0122813381DA
:101E1000448155818C859D85AE85BF851816190630
:101E20001A061B062CF48C859D85AE85BF8504C0E3
:101E30008FEF9FEFAFEFBFE7820F931FA41FB51F78
:101E40002E813F81F90186839783A087B187809196
:101E50001A0190911B01092E000CAA0BBB0BAC01BF
:101E60003327222784E890E0FC0180819181CC0116
:101E7000A0E0B0E0822B932BA42BB52B89839A830F
:101E8000AB83BC8386E390E0FC018081882F90E0E7
:101E900081709927892BE1F080911A0190911B01A3
:101EA0000196092E000CAA0BBB0BAC01332722278D
:101EB00084E890E0FC0180819181CC01A0E0B0E059
:101EC000822B932BA42BB52B89839A83AB83BC8362
:101ED0008E819F81FC0122813381448155818981DA
:101EE0009A81AB81BC8179018A01E81AF90A0A0B4F
:101EF0001B0BD801C701181619061A061B060CF091
:101F000061C08E819F8164E171E00E94910A80919D
:101F1000140190911501892B09F44AC08091140194
:101F200090911501FC0182819381A481B581CD013D
:101F3000BB2797FDB095AB2F9C0180911A01909122
:101F40001B0128173907A1F528E830E0809114011A
:101F500090911501FC0182819381A481B581AC012E
:101F600084E890E0FC01808191817A01E81AF90A05
:101F7000C701019739F484E890E0FC0180819181E8
:101F8000019609C08091140190911501FC01828194
:101F90009381A481B581F901918380838FE690E0DC
:101FA0002FE630E0F90120812260FC01208346C049
:101FB0008FE690E02FE630E0F90120812D7FFC01D3
:101FC00020833CC08E819F8162E171E00E94330AD0
:101FD0008D81882399F180910C0190910D01892BBD
:101FE00069F18091120190911301FC0126813781E2
:101FF0004085518580910E0190910F01FC018281F5
:102000009381FC0186819781A085B18579018A0140
:10201000E81AF90A0A0B1B0BD801C701BB2374F499
:102020008CE091E00E94720B6EE071E00E944F0B19
:1020300080910E0190910F010E947A0D8D8188236D
:1020400009F078948E819F8165960FB6F894DEBF73
:102050000FBECDBFDF91CF911F910F91FF90EF90F9
:10206000DF90CF900895CF93DF93CDB7DEB72C9755
:102070000FB6F894DEBF0FBECDBF98878F837A87E7
:1020800069875C874B878FE590E0FC0180818078D1
:102090008B83F8948F819885FC01808191819A834C
:1020A000898389819A81892B09F45AC00AC0898160
:1020B0009A81FC0184819581FC01808191819A83C0
:1020C000898389819A81FC0184819581892B79F7A3
:1020D000809110019091110129813A8128173907C7
:1020E00019F08B81882339F48B81882309F0789447
:1020F0008FEF9FEF83C08F819885FC018281938150
:10210000892B41F08F819885FC0182819381FC01AC
:102110001582148220911001309111018F819885D0
:10212000FC013383228380911001909111012F8152
:102130003885FC013583248389819A810E947A0D38
:102140008091100190911101FC0182819381892B72
:1021500039F48B81882309F0789480E090E04EC0B8
:1021600020911001309111018F819885FC013183FC
:1021700020838B81882341F08F819885FC018281A7
:102180009381019709F078944B855C858F819885C0
:1021900029853A85BA01F90109959D838C838FE5DC
:1021A00090E0FC01808180788E83F8948F819885FF
:1021B000FC01118210828F819885FC0182819381BC
:1021C0009A83898389819A81892B91F089819A8167
:1021D000019771F08F819885FC01138212828981A9
:1021E0009A81FC011582148289819A810E947A0D5C
:1021F0008B81882309F078948C819D812C960FB671
:10220000F894DEBF0FBECDBFDF91CF910895CF937D
:10221000DF9300D000D01F92CDB7DEB79D838C83B3
:102220008FE590E0FC01808180788B83F8948C812D
:102230009D8164E171E00E94940B892B41F48C81B3
:102240009D8162E171E00E94940B892B39F08C81B1
:102250009D816AE071E00E942C0B3EC080910E01CE
:1022600090910F019A83898333C0809110019091DE
:10227000110129813A812817390719F189819A8139
:10228000FC01228133818C819D8128173907C9F493
:1022900089819A81FC01248135818C819D81FC0199
:1022A000828593852817390761F489819A81FC0119
:1022B000138212828C819D816AE071E00E942C0B56
:1022C0000BC089819A81FC01808191819A838983E5
:1022D00089819A81892B49F68B81882309F078942A
:1022E00000000F900F900F900F900F90DF91CF9103
:1022F0000895CF93DF9300D0CDB7DEB79A8389835B
:102300008FE590E0FC01808188236CF480911001BE
:1023100090911101FC0182819381FC018281938162
:10232000A481B58108C08091160190911701A091F8
:102330001801B091190129813A81F90180839183B3
:10234000A283B38300000F900F90DF91CF91089587
:10235000CF93DF9300D0CDB7DEB79A8389838FE523
:1023600090E0FC01808188236CF4809110019091B1
:102370001101FC0182819381FC0182819381A481FE
:10238000B58108C08091160190911701A0911801A4
:10239000B091190129813A81F9012081318142816D
:1023A0005381821B930BA40BB50BBC01CD010F9085
:1023B0000F90DF91CF910895EF92FF920F931F93AB
:1023C000CF93DF9300D000D01F92CDB7DEB78FE55B
:1023D00090E0FC01808180788D83F89480911A01CF
:1023E00090911B01092E000CAA0BBB0BAC013327EB
:1023F000222784E890E0FC0180819181CC01A0E05B
:10240000B0E0822B932BA42BB52B89839A83AB83CB
:10241000BC8386E390E0FC018081882F90E081708E
:102420009927892BE1F080911A0190911B01019667
:10243000092E000CAA0BBB0BAC013327222784E822
:1024400090E0FC0180819181CC01A0E0B0E0822B82
:10245000932BA42BB52B89839A83AB83BC838D816B
:10246000882309F078948D81882369F08091100188
:1024700090911101FC0182819381FC018281938101
:10248000A481B58108C08091160190911701A09197
:102490001801B091190129813A814B815C81790140
:1024A0008A01E81AF90A0A0B1B0BD801C701BC0103
:1024B000CD010F900F900F900F900F90DF91CF9163
:1024C0001F910F91FF90EF900895CF93DF9300D06D
:1024D000CDB7DEB71A8219821EC089819A81019612
:1024E00082959295907F9827807F98279C012B500A
:1024F0003E4F89819A8182959295907F9827807F1F
:1025000098278B509E4FFC013183208389819A81CB
:1025100001969A83898389819A810E97F4F21092A9
:10252000D6021092D5021A82198220C089819A811E
:102530009C012F5F3F4F4DE1429FC001439F900D93
:1025400011249C01205C3E4F49815A816DE1649FBA
:10255000C001659F900D1124805C9E4FFC0131836A
:10256000208389819A8101969A83898389819A81BE
:102570000397E4F210929801109297011A8219823F
:1025800066C029813A814DE1429FC001439F900D71
:1025900011240696805C9E4F0E941D1629813A8167
:1025A0004DE1429FC001439F900D11240696805C2F
:1025B0009E4F409649815A8160E6649F9001659FD5
:1025C000300D11242B513D4F245A3F4FFC013183D4
:1025D000208329813A814DE1429FC001439F900DA4
:1025E00011240696805C9E4F429649815A8160E68E
:1025F000649F9001659F300D11242B513D4F245A4B
:102600003F4FFC013183208329813A814DE1429F74
:10261000C001439F900D11240696805C9E4F459605
:102620002DE93DE0FC013183208329813A814DE190
:10263000429FC001439F900D11248C5B9E4FFC0173
:102640001182108289819A8101969A838983898176
:102650009A8104970CF495CF1092D9011092D80169
:102660001092DD011092DC011092DB011092DA0170
:1026700081E690E020E8FC01208381E690E0FC0107
:10268000108284E890E0FC011182108281E890E0E1
:1026900024E0FC0120838FE690E021E0FC01208310
:1026A00000000F900F90DF91CF910895CF93DF93AB
:1026B00000D000D000D0CDB7DEB79B838A837D8366
:1026C0006C834E838E81823150F58FE590E0FC0162
:1026D000808180788983F8948E81882F90E0880F9C
:1026E000991F845E9E4F2A813B81FC0131832083A8
:1026F0008E81882F90E0880F991F8C549E4F2C81DB
:102700003D81FC01318320838A819B8121E030E07F
:10271000FC01338322838981882309F078940000A7
:1027200026960FB6F894DEBF0FBECDBFDF91CF91D6
:102730000895CF92DF92EF92FF920F931F93CF9362
:10274000DF93CDB7DEB727970FB6F894DEBF0FBE85
:10275000CDBF9B838A837D836C835F834E838FE5AC
:1027600090E0FC01808180788983F8940E94651252
:1027700078948C819D81892B89F04E815F812C8199
:102780003D818A819B816A0179018C0120E030E0E2
:10279000A90160E070E0CB010E949C0E8FE590E003
:1027A000FC01808180788983F8940E943A0E80E051
:1027B00090E027960FB6F894DEBF0FBECDBFDF9135
:1027C000CF911F910F91FF90EF90DF90CF900895E0
:1027D000CF93DF93CDB7DEB767970FB6F894DEBF20
:1027E0000FBECDBF9E8B8D8B6F8B8F89803318F082
:1027F0008F898A3318F080E090E038C081E595E158
:102800009A83898380E191E09C838B8381EE91E1BF
:102810009E838D8381EB91E198878F8380EB95E098
:102820009A87898781EB94E19C878B8781EF94E17C
:102830009E878D8780E191E1988B8F8781EF95E16D
:102840009A8B898B80EB95E19C8B8B8B1E8A1D8AE2
:102850008F89882F90E0C097880F991F9E012F5F66
:102860003F4F820F931FFC018081918167960FB6C5
:10287000F894DEBF0FBECDBFDF91CF910895CF9307
:10288000DF93CDB7DEB760970FB6F894DEBF0FBE0B
:10289000CDBF9D878C876E87588B4F878F85988992
:1028A00099230CF4AFC08F85988906970CF0AAC0C5
:1028B0001F821E8219821A821B821C8218861D8228
:1028C00019868C859D856E850E94E8139F838E8373
:1028D0008F8598899595879589878F859889817047
:1028E0009927892BE9F48E819F81892F99278295D9
:1028F0008F7089838E819F81892F99278F708A831A
:102900008E819F81929582958F7089279F708927EC
:102910008F708B838E818F708C8380EF8D8319C035
:102920008E819F81892F9927807F89838E819F81C6
:10293000929582958F7089279F708927807F8A83DF
:102940008E81807F8B838E818295807F8C838FE0C8
:102950008D838CEE90E09B878A878985882F90E015
:102960002A853B85820F931F9B878A878A859B8553
:10297000FC0190818D818923888798858981292F01
:10298000282B8A859B85FC0120838A859B8505965B
:102990009B878A878A859B85FC0190818D8189230D
:1029A000888798858A81292F282B8A859B85FC0119
:1029B00020838A859B8505969B878A878A859B8548
:1029C000FC0190818D818923888798858B81292FAF
:1029D000282B8A859B85FC0120838A859B8505960B
:1029E0009B878A878A859B85FC0190818D818923BD
:1029F000888798858C81292F282B8A859B85FC01C7
:102A0000208301C0000060960FB6F894DEBF0FBEB1
:102A1000CDBFDF91CF910895CF93DF93CDB7DEB7D0
:102A20002A970FB6F894DEBF0FBECDBF9C838B8371
:102A30004D835E836F8378873A87298789859A8556
:102A40009A8389838D819E81AF81B88524E630E0A9
:102A500040E050E0BC01CD010E94DC15DC01CB015F
:102A60002AE030E040E050E0BC01CD010E94DC15DE
:102A7000DA01C90160E3680F29813A818B819C8169
:102A8000A9010E943F1489819A8101969A838983C2
:102A90008D819E81AF81B8852AE030E040E050E032
:102AA000BC01CD010E94DC15DC01CB0160E3680FA5
:102AB00029813A818B819C81A9010E943F140000E9
:102AC0002A960FB6F894DEBF0FBECDBFDF91CF912F
:102AD0000895CF93DF9300D0CDB7DEB79A83898373
:102AE00089819A81FC0184819581092E000CAA0BB1
:102AF000BB0BE981FA8124E030E0AC01BD01CF01DC
:102B00000E940C1589819A81FC0186819781092E8A
:102B1000000CAA0BBB0BE981FA8120E030E0AC018C
:102B2000BD01CF010E940C1500000F900F90DF91A6
:102B3000CF910895CF92DF92EF92FF920F931F9360
:102B4000CF93DF9300D000D0CDB7DEB79C838B83CB
:102B50008B819C81FC01848195819A838983898101
:102B60009A8101969A8389838B819C8129813A81FC
:102B7000FC01358324838B819C81C12CD12C0F2EA9
:102B8000F9E6EF2EF5E1FF2EF02D8C0120E030E08C
:102B9000A90160E070E0CB010E949C0E00000F9044
:102BA0000F900F900F90DF91CF911F910F91FF9099
:102BB000EF90DF90CF900895052E97FB1EF40094C0
:102BC0000E94F31557FD07D00E94FB1507FC03D0A8
:102BD0004EF40C94F31550954095309521953F4F48
:102BE0004F4F5F4F089590958095709561957F4FF9
:102BF0008F4F9F4F0895A1E21A2EAA1BBB1BFD0108
:102C00000DC0AA1FBB1FEE1FFF1FA217B307E407CB
:102C1000F50720F0A21BB30BE40BF50B661F771F23
:102C2000881F991F1A9469F7609570958095909503
:102C30009B01AC01BD01CF010895DC012D923D92B5
:102C40004D925D926D927D928D929D92AD92BD92CC
:102C5000CD92DD92ED92FD920D931D93CD93DD9378
:102C6000FF91EF918DB78D938EB78D938FB78D9325
:102C7000ED93FD93882799270994DC01CB018130DE
:102C80009105811D2D903D904D905D906D907D90B2
:102C90008D909D90AD90BD90CD90DD90ED90FD908C
:102CA0000D911D91CD91DD91ED91FD910D90F894D7
:102CB000FEBF0FBEEDBFED91FD910994F894FFCFDB
:102CC00000000000010000000000F5014001D801F3
:022CD000D80129
:00000001FF
